{
  "contractName": "DefaultReserveInterestRateStrategy",
  "abi": [
    {
      "constant": true,
      "inputs": [],
      "name": "stableRateSlope1",
      "outputs": [
        {
          "name": "",
          "type": "uint256"
        }
      ],
      "payable": false,
      "stateMutability": "view",
      "type": "function"
    },
    {
      "constant": true,
      "inputs": [],
      "name": "EXCESS_UTILIZATION_RATE",
      "outputs": [
        {
          "name": "",
          "type": "uint256"
        }
      ],
      "payable": false,
      "stateMutability": "view",
      "type": "function"
    },
    {
      "constant": true,
      "inputs": [],
      "name": "variableRateSlope2",
      "outputs": [
        {
          "name": "",
          "type": "uint256"
        }
      ],
      "payable": false,
      "stateMutability": "view",
      "type": "function"
    },
    {
      "constant": true,
      "inputs": [],
      "name": "variableRateSlope1",
      "outputs": [
        {
          "name": "",
          "type": "uint256"
        }
      ],
      "payable": false,
      "stateMutability": "view",
      "type": "function"
    },
    {
      "constant": true,
      "inputs": [],
      "name": "OPTIMAL_UTILIZATION_RATE",
      "outputs": [
        {
          "name": "",
          "type": "uint256"
        }
      ],
      "payable": false,
      "stateMutability": "view",
      "type": "function"
    },
    {
      "constant": true,
      "inputs": [],
      "name": "baseVariableBorrowRate",
      "outputs": [
        {
          "name": "",
          "type": "uint256"
        }
      ],
      "payable": false,
      "stateMutability": "view",
      "type": "function"
    },
    {
      "constant": true,
      "inputs": [],
      "name": "addressesProvider",
      "outputs": [
        {
          "name": "",
          "type": "address"
        }
      ],
      "payable": false,
      "stateMutability": "view",
      "type": "function"
    },
    {
      "constant": true,
      "inputs": [],
      "name": "stableRateSlope2",
      "outputs": [
        {
          "name": "",
          "type": "uint256"
        }
      ],
      "payable": false,
      "stateMutability": "view",
      "type": "function"
    },
    {
      "constant": true,
      "inputs": [],
      "name": "reserve",
      "outputs": [
        {
          "name": "",
          "type": "address"
        }
      ],
      "payable": false,
      "stateMutability": "view",
      "type": "function"
    },
    {
      "inputs": [
        {
          "name": "_reserve",
          "type": "address"
        },
        {
          "name": "_provider",
          "type": "address"
        },
        {
          "name": "_baseVariableBorrowRate",
          "type": "uint256"
        },
        {
          "name": "_variableRateSlope1",
          "type": "uint256"
        },
        {
          "name": "_variableRateSlope2",
          "type": "uint256"
        },
        {
          "name": "_stableRateSlope1",
          "type": "uint256"
        },
        {
          "name": "_stableRateSlope2",
          "type": "uint256"
        }
      ],
      "payable": false,
      "stateMutability": "nonpayable",
      "type": "constructor"
    },
    {
      "constant": true,
      "inputs": [],
      "name": "getBaseVariableBorrowRate",
      "outputs": [
        {
          "name": "",
          "type": "uint256"
        }
      ],
      "payable": false,
      "stateMutability": "view",
      "type": "function"
    },
    {
      "constant": true,
      "inputs": [],
      "name": "getVariableRateSlope1",
      "outputs": [
        {
          "name": "",
          "type": "uint256"
        }
      ],
      "payable": false,
      "stateMutability": "view",
      "type": "function"
    },
    {
      "constant": true,
      "inputs": [],
      "name": "getVariableRateSlope2",
      "outputs": [
        {
          "name": "",
          "type": "uint256"
        }
      ],
      "payable": false,
      "stateMutability": "view",
      "type": "function"
    },
    {
      "constant": true,
      "inputs": [],
      "name": "getStableRateSlope1",
      "outputs": [
        {
          "name": "",
          "type": "uint256"
        }
      ],
      "payable": false,
      "stateMutability": "view",
      "type": "function"
    },
    {
      "constant": true,
      "inputs": [],
      "name": "getStableRateSlope2",
      "outputs": [
        {
          "name": "",
          "type": "uint256"
        }
      ],
      "payable": false,
      "stateMutability": "view",
      "type": "function"
    },
    {
      "constant": true,
      "inputs": [
        {
          "name": "_reserve",
          "type": "address"
        },
        {
          "name": "_availableLiquidity",
          "type": "uint256"
        },
        {
          "name": "_totalBorrowsStable",
          "type": "uint256"
        },
        {
          "name": "_totalBorrowsVariable",
          "type": "uint256"
        },
        {
          "name": "_averageStableBorrowRate",
          "type": "uint256"
        }
      ],
      "name": "calculateInterestRates",
      "outputs": [
        {
          "name": "currentLiquidityRate",
          "type": "uint256"
        },
        {
          "name": "currentStableBorrowRate",
          "type": "uint256"
        },
        {
          "name": "currentVariableBorrowRate",
          "type": "uint256"
        }
      ],
      "payable": false,
      "stateMutability": "view",
      "type": "function"
    }
  ],
  "bytecode": "0x608060405234801561001057600080fd5b5060405160e080610965833981018060405260e081101561003057600080fd5b508051602082015160408301516060840151608085015160a086015160c090960151600080546001600160a01b039687166001600160a01b031991821617909155600194909455600292909255600355600494909455600593909355600680549190921692169190911790556108ba806100ab6000396000f3fe608060405234801561001057600080fd5b50600436106100f55760003560e01c80637b832f5811610097578063ccab01a311610066578063ccab01a3146101d4578063cd3293de146101dc578063d5cd7391146101e4578063f4202409146101ec576100f5565b80637b832f5814610198578063a15f30ac146101a0578063b2589544146101a8578063c72c4d10146101b0576100f5565b806317319873116100d3578063173198731461012457806334762ca51461012c57806357e37af01461013457806365614f8114610190576100f5565b80630b3429a2146100fa5780630bdf953f1461011457806314e32da41461011c575b600080fd5b6101026101f4565b60408051918252519081900360200190f35b6101026101fa565b610102610200565b610102610206565b610102610215565b610172600480360360a081101561014a57600080fd5b506001600160a01b03813516906020810135906040810135906060810135906080013561021b565b60408051938452602084019290925282820152519081900360600190f35b6101026104c5565b6101026104cb565b6101026104d1565b6101026104e1565b6101b86104e7565b604080516001600160a01b039092168252519081900360200190f35b6101026104f6565b6101b86104fc565b61010261050b565b610102610511565b60025490565b60045481565b60055490565b6aa56fa5b99019a5c800000081565b60015490565b6000808080610230878763ffffffff61051716565b9050600081158015610240575088155b610269576102646102578a8463ffffffff61051716565b839063ffffffff61057d16565b61026c565b60005b90506000809054906101000a90046001600160a01b03166001600160a01b0316633618abba6040518163ffffffff1660e01b815260040160206040518083038186803b1580156102bb57600080fd5b505afa1580156102cf573d6000803e3d6000fd5b505050506040513d60208110156102e557600080fd5b505160408051600160e01b63bb85c0bb0281526001600160a01b038d811660048301529151919092169163bb85c0bb916024808301926020929190829003018186803b15801561033457600080fd5b505afa158015610348573d6000803e3d6000fd5b505050506040513d602081101561035e57600080fd5b505193506b0295be96e6406697200000008111156104205760006103af6aa56fa5b99019a5c80000006103a3846b0295be96e64066972000000063ffffffff6105c116565b9063ffffffff61057d16565b90506103e96103c98260055461060390919063ffffffff16565b6004546103dd90889063ffffffff61051716565b9063ffffffff61051716565b94506104186104038260035461060390919063ffffffff16565b6002546001546103dd9163ffffffff61051716565b9350506104a6565b61045e610451610442836b0295be96e64066972000000063ffffffff61057d16565b6004549063ffffffff61060316565b859063ffffffff61051716565b93506104a36104946002546104886b0295be96e6406697200000008561057d90919063ffffffff16565b9063ffffffff61060316565b6001549063ffffffff61051716565b92505b6104b6816104888a8a878b61063b565b94505050955095509592505050565b60035481565b60025481565b6b0295be96e64066972000000081565b60015481565b6000546001600160a01b031681565b60055481565b6006546001600160a01b031681565b60045490565b60035490565b6000828201838110156105745760408051600160e51b62461bcd02815260206004820152601b60248201527f536166654d6174683a206164646974696f6e206f766572666c6f770000000000604482015290519081900360640190fd5b90505b92915050565b6000600282046105b9836105ad6105a0876b033b2e3c9fd0803ce80000006106ae565b849063ffffffff61051716565b9063ffffffff61070e16565b949350505050565b600061057483836040518060400160405280601e81526020017f536166654d6174683a207375627472616374696f6e206f766572666c6f770000815250610750565b60006105746b033b2e3c9fd0803ce80000006105ad610628868663ffffffff6106ae16565b6b019d971e4fe8401e7400000090610517565b60008061064e868663ffffffff61051716565b90508015156106615760009150506105b9565b600061067085610488886107ea565b90506000610681856104888a6107ea565b905060006106a1610691856107ea565b6103a3858563ffffffff61051716565b9998505050505050505050565b60008215156106bf57506000610577565b8282028284828115156106ce57fe5b041461057457604051600160e51b62461bcd02815260040180806020018281038252602181526020018061086e6021913960400191505060405180910390fd5b600061057483836040518060400160405280601a81526020017f536166654d6174683a206469766973696f6e206279207a65726f000000000000815250610800565b600081848411156107e257604051600160e51b62461bcd0281526004018080602001828103825283818151815260200191508051906020019080838360005b838110156107a757818101518382015260200161078f565b50505050905090810190601f1680156107d45780820380516001836020036101000a031916815260200191505b509250505060405180910390fd5b505050900390565b600061057782633b9aca0063ffffffff6106ae16565b60008183151561085557604051600160e51b62461bcd028152600401808060200182810382528381815181526020019150805190602001908083836000838110156107a757818101518382015260200161078f565b506000838581151561086357fe5b049594505050505056fe536166654d6174683a206d756c7469706c69636174696f6e206f766572666c6f77a165627a7a72305820f85a399456d66c067044a544966dd28853d0e6cbb782a488a09d700fcca8b32c0029",
  "source": "pragma solidity ^0.5.0;\n\nimport \"../interfaces/IReserveInterestRateStrategy.sol\";\nimport \"../libraries/WadRayMath.sol\";\nimport \"../configuration/LendingPoolAddressesProvider.sol\";\nimport \"./LendingPoolCore.sol\";\nimport \"../interfaces/ILendingRateOracle.sol\";\n\nimport \"openzeppelin-solidity/contracts/math/SafeMath.sol\";\n\n/**\n* @title DefaultReserveInterestRateStrategy contract\n* @notice implements the calculation of the interest rates depending on the reserve parameters.\n* @dev if there is need to update the calculation of the interest rates for a specific reserve,\n* a new version of this contract will be deployed.\n* @author Aave\n**/\ncontract DefaultReserveInterestRateStrategy is IReserveInterestRateStrategy {\n    using WadRayMath for uint256;\n    using SafeMath for uint256;\n\n\n\n   /**\n    * @dev this constant represents the utilization rate at which the pool aims to obtain most competitive borrow rates\n    * expressed in ray\n    **/\n    uint256 public constant OPTIMAL_UTILIZATION_RATE = 0.8 * 1e27;\n\n   /**\n    * @dev this constant represents the excess utilization rate above the optimal. It's always equal to\n    * 1-optimal utilization rate. Added as a constant here for gas optimizations\n    * expressed in ray\n    **/\n\n    uint256 public constant EXCESS_UTILIZATION_RATE = 0.2 * 1e27;\n\n    LendingPoolAddressesProvider public addressesProvider;\n\n\n    //base variable borrow rate when Utilization rate = 0. Expressed in ray\n    uint256 public baseVariableBorrowRate;\n\n    //slope of the variable interest curve when utilization rate > 0 and <= OPTIMAL_UTILIZATION_RATE. Expressed in ray\n    uint256 public variableRateSlope1;\n\n    //slope of the variable interest curve when utilization rate > OPTIMAL_UTILIZATION_RATE. Expressed in ray\n    uint256 public variableRateSlope2;\n\n    //slope of the stable interest curve when utilization rate > 0 and <= OPTIMAL_UTILIZATION_RATE. Expressed in ray\n    uint256 public stableRateSlope1;\n\n    //slope of the stable interest curve when utilization rate > OPTIMAL_UTILIZATION_RATE. Expressed in ray\n    uint256 public stableRateSlope2;\n    address public reserve;\n\n    constructor(\n        address _reserve,\n        LendingPoolAddressesProvider _provider,\n        uint256 _baseVariableBorrowRate,\n        uint256 _variableRateSlope1,\n        uint256 _variableRateSlope2,\n        uint256 _stableRateSlope1,\n        uint256 _stableRateSlope2\n    ) public {\n        addressesProvider = _provider;\n        baseVariableBorrowRate = _baseVariableBorrowRate;\n        variableRateSlope1 = _variableRateSlope1;\n        variableRateSlope2 = _variableRateSlope2;\n        stableRateSlope1 = _stableRateSlope1;\n        stableRateSlope2 = _stableRateSlope2;\n        reserve = _reserve;\n    }\n\n    /**\n    @dev accessors\n     */\n\n    function getBaseVariableBorrowRate() external view returns (uint256) {\n        return baseVariableBorrowRate;\n    }\n\n    function getVariableRateSlope1() external view returns (uint256) {\n        return variableRateSlope1;\n    }\n\n    function getVariableRateSlope2() external view returns (uint256) {\n        return variableRateSlope2;\n    }\n\n    function getStableRateSlope1() external view returns (uint256) {\n        return stableRateSlope1;\n    }\n\n    function getStableRateSlope2() external view returns (uint256) {\n        return stableRateSlope2;\n    }\n\n    /**\n    * @dev calculates the interest rates depending on the available liquidity and the total borrowed.\n    * @param _reserve the address of the reserve\n    * @param _availableLiquidity the liquidity available in the reserve\n    * @param _totalBorrowsStable the total borrowed from the reserve a stable rate\n    * @param _totalBorrowsVariable the total borrowed from the reserve at a variable rate\n    * @param _averageStableBorrowRate the weighted average of all the stable rate borrows\n    * @return the liquidity rate, stable borrow rate and variable borrow rate calculated from the input parameters\n    **/\n    function calculateInterestRates(\n        address _reserve,\n        uint256 _availableLiquidity,\n        uint256 _totalBorrowsStable,\n        uint256 _totalBorrowsVariable,\n        uint256 _averageStableBorrowRate\n    )\n        external\n        view\n        returns (\n            uint256 currentLiquidityRate,\n            uint256 currentStableBorrowRate,\n            uint256 currentVariableBorrowRate\n        )\n    {\n        uint256 totalBorrows = _totalBorrowsStable.add(_totalBorrowsVariable);\n\n        uint256 utilizationRate = (totalBorrows == 0 && _availableLiquidity == 0)\n            ? 0\n            : totalBorrows.rayDiv(_availableLiquidity.add(totalBorrows));\n\n        currentStableBorrowRate = ILendingRateOracle(addressesProvider.getLendingRateOracle())\n            .getMarketBorrowRate(_reserve);\n\n        if (utilizationRate > OPTIMAL_UTILIZATION_RATE) {\n            uint256 excessUtilizationRateRatio = utilizationRate\n                .sub(OPTIMAL_UTILIZATION_RATE)\n                .rayDiv(EXCESS_UTILIZATION_RATE);\n\n            currentStableBorrowRate = currentStableBorrowRate.add(stableRateSlope1).add(\n                stableRateSlope2.rayMul(excessUtilizationRateRatio)\n            );\n\n            currentVariableBorrowRate = baseVariableBorrowRate.add(variableRateSlope1).add(\n                variableRateSlope2.rayMul(excessUtilizationRateRatio)\n            );\n        } else {\n            currentStableBorrowRate = currentStableBorrowRate.add(\n                stableRateSlope1.rayMul(\n                    utilizationRate.rayDiv(\n                        OPTIMAL_UTILIZATION_RATE\n                    )\n                )\n            );\n            currentVariableBorrowRate = baseVariableBorrowRate.add(\n                utilizationRate.rayDiv(OPTIMAL_UTILIZATION_RATE).rayMul(variableRateSlope1)\n            );\n        }\n\n        currentLiquidityRate = getOverallBorrowRateInternal(\n            _totalBorrowsStable,\n            _totalBorrowsVariable,\n            currentVariableBorrowRate,\n            _averageStableBorrowRate\n        )\n            .rayMul(utilizationRate);\n\n    }\n\n    /**\n    * @dev calculates the overall borrow rate as the weighted average between the total variable borrows and total stable borrows.\n    * @param _totalBorrowsStable the total borrowed from the reserve a stable rate\n    * @param _totalBorrowsVariable the total borrowed from the reserve at a variable rate\n    * @param _currentVariableBorrowRate the current variable borrow rate\n    * @param _currentAverageStableBorrowRate the weighted average of all the stable rate borrows\n    * @return the weighted averaged borrow rate\n    **/\n    function getOverallBorrowRateInternal(\n        uint256 _totalBorrowsStable,\n        uint256 _totalBorrowsVariable,\n        uint256 _currentVariableBorrowRate,\n        uint256 _currentAverageStableBorrowRate\n    ) internal pure returns (uint256) {\n        uint256 totalBorrows = _totalBorrowsStable.add(_totalBorrowsVariable);\n\n        if (totalBorrows == 0) return 0;\n\n        uint256 weightedVariableRate = _totalBorrowsVariable.wadToRay().rayMul(\n            _currentVariableBorrowRate\n        );\n\n        uint256 weightedStableRate = _totalBorrowsStable.wadToRay().rayMul(\n            _currentAverageStableBorrowRate\n        );\n\n        uint256 overallBorrowRate = weightedVariableRate.add(weightedStableRate).rayDiv(\n            totalBorrows.wadToRay()\n        );\n\n        return overallBorrowRate;\n    }\n}\n",
  "sourcePath": "/Users/rongjianlan/workspace/go/src/github.com/harmony-one/aave-protocol/contracts/lendingpool/DefaultReserveInterestRateStrategy.sol",
  "compiler": {
    "name": "solc",
    "version": "0.5.5+commit.47a71e8f.Emscripten.clang"
  },
  "schemaVersion": "3.2.0",
  "updatedAt": "2020-08-09T08:55:40.167Z",
  "devdoc": {
    "author": "Aave*",
    "details": "if there is need to update the calculation of the interest rates for a specific reserve, a new version of this contract will be deployed.",
    "methods": {
      "calculateInterestRates(address,uint256,uint256,uint256,uint256)": {
        "details": "calculates the interest rates depending on the available liquidity and the total borrowed.",
        "params": {
          "_availableLiquidity": "the liquidity available in the reserve",
          "_averageStableBorrowRate": "the weighted average of all the stable rate borrows",
          "_reserve": "the address of the reserve",
          "_totalBorrowsStable": "the total borrowed from the reserve a stable rate",
          "_totalBorrowsVariable": "the total borrowed from the reserve at a variable rate"
        },
        "return": "the liquidity rate, stable borrow rate and variable borrow rate calculated from the input parameters*"
      },
      "getBaseVariableBorrowRate()": {
        "details": "accessors"
      }
    },
    "title": "DefaultReserveInterestRateStrategy contract"
  },
  "userdoc": {
    "methods": {},
    "notice": "implements the calculation of the interest rates depending on the reserve parameters."
  }
}