{
  "contractName": "IERC20DetailedBytes",
  "abi": [
    {
      "constant": true,
      "inputs": [],
      "name": "name",
      "outputs": [
        {
          "name": "",
          "type": "bytes32"
        }
      ],
      "payable": false,
      "stateMutability": "view",
      "type": "function"
    },
    {
      "constant": true,
      "inputs": [],
      "name": "decimals",
      "outputs": [
        {
          "name": "",
          "type": "uint256"
        }
      ],
      "payable": false,
      "stateMutability": "view",
      "type": "function"
    },
    {
      "constant": true,
      "inputs": [],
      "name": "symbol",
      "outputs": [
        {
          "name": "",
          "type": "bytes32"
        }
      ],
      "payable": false,
      "stateMutability": "view",
      "type": "function"
    }
  ],
  "bytecode": "0x608060405234801561001057600080fd5b5060a38061001f6000396000f3fe6080604052348015600f57600080fd5b5060043610603c5760003560e01c806306fdde03146041578063313ce56714605957806395d89b4114605f575b600080fd5b60476065565b60408051918252519081900360200190f35b6047606b565b60476071565b60005481565b60025481565b6001548156fea165627a7a72305820d5af2b05702b7f648cc8c0ad0c84391d7269efef8474bb16d2e374e6447030b50029",
  "source": "pragma solidity ^0.5.0;\n\ncontract IERC20DetailedBytes {\n    bytes32  public  name;\n    bytes32  public  symbol;\n    uint256  public  decimals;\n}\n",
  "sourcePath": "/Users/rongjianlan/workspace/go/src/github.com/harmony-one/aave-protocol/contracts/misc/IERC20DetailedBytes.sol",
  "compiler": {
    "name": "solc",
    "version": "0.5.8+commit.23d335f2.Emscripten.clang"
  },
  "schemaVersion": "3.2.0",
  "updatedAt": "2020-08-06T22:02:21.548Z",
  "devdoc": {
    "methods": {}
  },
  "userdoc": {
    "methods": {}
  }
}