{
  "contractName": "LendingPoolConfigurator",
  "abi": [
    {
      "constant": true,
      "inputs": [],
      "name": "CONFIGURATOR_REVISION",
      "outputs": [
        {
          "name": "",
          "type": "uint256"
        }
      ],
      "payable": false,
      "stateMutability": "view",
      "type": "function"
    },
    {
      "constant": true,
      "inputs": [],
      "name": "poolAddressesProvider",
      "outputs": [
        {
          "name": "",
          "type": "address"
        }
      ],
      "payable": false,
      "stateMutability": "view",
      "type": "function"
    },
    {
      "anonymous": false,
      "inputs": [
        {
          "indexed": true,
          "name": "_reserve",
          "type": "address"
        },
        {
          "indexed": true,
          "name": "_aToken",
          "type": "address"
        },
        {
          "indexed": false,
          "name": "_interestRateStrategyAddress",
          "type": "address"
        }
      ],
      "name": "ReserveInitialized",
      "type": "event"
    },
    {
      "anonymous": false,
      "inputs": [
        {
          "indexed": true,
          "name": "_reserve",
          "type": "address"
        }
      ],
      "name": "ReserveRemoved",
      "type": "event"
    },
    {
      "anonymous": false,
      "inputs": [
        {
          "indexed": false,
          "name": "_reserve",
          "type": "address"
        },
        {
          "indexed": false,
          "name": "_stableRateEnabled",
          "type": "bool"
        }
      ],
      "name": "BorrowingEnabledOnReserve",
      "type": "event"
    },
    {
      "anonymous": false,
      "inputs": [
        {
          "indexed": true,
          "name": "_reserve",
          "type": "address"
        }
      ],
      "name": "BorrowingDisabledOnReserve",
      "type": "event"
    },
    {
      "anonymous": false,
      "inputs": [
        {
          "indexed": true,
          "name": "_reserve",
          "type": "address"
        },
        {
          "indexed": false,
          "name": "_ltv",
          "type": "uint256"
        },
        {
          "indexed": false,
          "name": "_liquidationThreshold",
          "type": "uint256"
        },
        {
          "indexed": false,
          "name": "_liquidationBonus",
          "type": "uint256"
        }
      ],
      "name": "ReserveEnabledAsCollateral",
      "type": "event"
    },
    {
      "anonymous": false,
      "inputs": [
        {
          "indexed": true,
          "name": "_reserve",
          "type": "address"
        }
      ],
      "name": "ReserveDisabledAsCollateral",
      "type": "event"
    },
    {
      "anonymous": false,
      "inputs": [
        {
          "indexed": true,
          "name": "_reserve",
          "type": "address"
        }
      ],
      "name": "StableRateEnabledOnReserve",
      "type": "event"
    },
    {
      "anonymous": false,
      "inputs": [
        {
          "indexed": true,
          "name": "_reserve",
          "type": "address"
        }
      ],
      "name": "StableRateDisabledOnReserve",
      "type": "event"
    },
    {
      "anonymous": false,
      "inputs": [
        {
          "indexed": true,
          "name": "_reserve",
          "type": "address"
        }
      ],
      "name": "ReserveActivated",
      "type": "event"
    },
    {
      "anonymous": false,
      "inputs": [
        {
          "indexed": true,
          "name": "_reserve",
          "type": "address"
        }
      ],
      "name": "ReserveDeactivated",
      "type": "event"
    },
    {
      "anonymous": false,
      "inputs": [
        {
          "indexed": true,
          "name": "_reserve",
          "type": "address"
        }
      ],
      "name": "ReserveFreezed",
      "type": "event"
    },
    {
      "anonymous": false,
      "inputs": [
        {
          "indexed": true,
          "name": "_reserve",
          "type": "address"
        }
      ],
      "name": "ReserveUnfreezed",
      "type": "event"
    },
    {
      "anonymous": false,
      "inputs": [
        {
          "indexed": false,
          "name": "_reserve",
          "type": "address"
        },
        {
          "indexed": false,
          "name": "_ltv",
          "type": "uint256"
        }
      ],
      "name": "ReserveBaseLtvChanged",
      "type": "event"
    },
    {
      "anonymous": false,
      "inputs": [
        {
          "indexed": false,
          "name": "_reserve",
          "type": "address"
        },
        {
          "indexed": false,
          "name": "_threshold",
          "type": "uint256"
        }
      ],
      "name": "ReserveLiquidationThresholdChanged",
      "type": "event"
    },
    {
      "anonymous": false,
      "inputs": [
        {
          "indexed": false,
          "name": "_reserve",
          "type": "address"
        },
        {
          "indexed": false,
          "name": "_bonus",
          "type": "uint256"
        }
      ],
      "name": "ReserveLiquidationBonusChanged",
      "type": "event"
    },
    {
      "anonymous": false,
      "inputs": [
        {
          "indexed": false,
          "name": "_reserve",
          "type": "address"
        },
        {
          "indexed": false,
          "name": "_decimals",
          "type": "uint256"
        }
      ],
      "name": "ReserveDecimalsChanged",
      "type": "event"
    },
    {
      "anonymous": false,
      "inputs": [
        {
          "indexed": false,
          "name": "_reserve",
          "type": "address"
        },
        {
          "indexed": false,
          "name": "_strategy",
          "type": "address"
        }
      ],
      "name": "ReserveInterestRateStrategyChanged",
      "type": "event"
    },
    {
      "constant": false,
      "inputs": [
        {
          "name": "_poolAddressesProvider",
          "type": "address"
        }
      ],
      "name": "initialize",
      "outputs": [],
      "payable": false,
      "stateMutability": "nonpayable",
      "type": "function"
    },
    {
      "constant": false,
      "inputs": [
        {
          "name": "_reserve",
          "type": "address"
        },
        {
          "name": "_underlyingAssetDecimals",
          "type": "uint8"
        },
        {
          "name": "_interestRateStrategyAddress",
          "type": "address"
        }
      ],
      "name": "initReserve",
      "outputs": [],
      "payable": false,
      "stateMutability": "nonpayable",
      "type": "function"
    },
    {
      "constant": false,
      "inputs": [
        {
          "name": "_reserve",
          "type": "address"
        },
        {
          "name": "_aTokenName",
          "type": "string"
        },
        {
          "name": "_aTokenSymbol",
          "type": "string"
        },
        {
          "name": "_underlyingAssetDecimals",
          "type": "uint8"
        },
        {
          "name": "_interestRateStrategyAddress",
          "type": "address"
        }
      ],
      "name": "initReserveWithData",
      "outputs": [],
      "payable": false,
      "stateMutability": "nonpayable",
      "type": "function"
    },
    {
      "constant": false,
      "inputs": [
        {
          "name": "_reserveToRemove",
          "type": "address"
        }
      ],
      "name": "removeLastAddedReserve",
      "outputs": [],
      "payable": false,
      "stateMutability": "nonpayable",
      "type": "function"
    },
    {
      "constant": false,
      "inputs": [
        {
          "name": "_reserve",
          "type": "address"
        },
        {
          "name": "_stableBorrowRateEnabled",
          "type": "bool"
        }
      ],
      "name": "enableBorrowingOnReserve",
      "outputs": [],
      "payable": false,
      "stateMutability": "nonpayable",
      "type": "function"
    },
    {
      "constant": false,
      "inputs": [
        {
          "name": "_reserve",
          "type": "address"
        }
      ],
      "name": "disableBorrowingOnReserve",
      "outputs": [],
      "payable": false,
      "stateMutability": "nonpayable",
      "type": "function"
    },
    {
      "constant": false,
      "inputs": [
        {
          "name": "_reserve",
          "type": "address"
        },
        {
          "name": "_baseLTVasCollateral",
          "type": "uint256"
        },
        {
          "name": "_liquidationThreshold",
          "type": "uint256"
        },
        {
          "name": "_liquidationBonus",
          "type": "uint256"
        }
      ],
      "name": "enableReserveAsCollateral",
      "outputs": [],
      "payable": false,
      "stateMutability": "nonpayable",
      "type": "function"
    },
    {
      "constant": false,
      "inputs": [
        {
          "name": "_reserve",
          "type": "address"
        }
      ],
      "name": "disableReserveAsCollateral",
      "outputs": [],
      "payable": false,
      "stateMutability": "nonpayable",
      "type": "function"
    },
    {
      "constant": false,
      "inputs": [
        {
          "name": "_reserve",
          "type": "address"
        }
      ],
      "name": "enableReserveStableBorrowRate",
      "outputs": [],
      "payable": false,
      "stateMutability": "nonpayable",
      "type": "function"
    },
    {
      "constant": false,
      "inputs": [
        {
          "name": "_reserve",
          "type": "address"
        }
      ],
      "name": "disableReserveStableBorrowRate",
      "outputs": [],
      "payable": false,
      "stateMutability": "nonpayable",
      "type": "function"
    },
    {
      "constant": false,
      "inputs": [
        {
          "name": "_reserve",
          "type": "address"
        }
      ],
      "name": "activateReserve",
      "outputs": [],
      "payable": false,
      "stateMutability": "nonpayable",
      "type": "function"
    },
    {
      "constant": false,
      "inputs": [
        {
          "name": "_reserve",
          "type": "address"
        }
      ],
      "name": "deactivateReserve",
      "outputs": [],
      "payable": false,
      "stateMutability": "nonpayable",
      "type": "function"
    },
    {
      "constant": false,
      "inputs": [
        {
          "name": "_reserve",
          "type": "address"
        }
      ],
      "name": "freezeReserve",
      "outputs": [],
      "payable": false,
      "stateMutability": "nonpayable",
      "type": "function"
    },
    {
      "constant": false,
      "inputs": [
        {
          "name": "_reserve",
          "type": "address"
        }
      ],
      "name": "unfreezeReserve",
      "outputs": [],
      "payable": false,
      "stateMutability": "nonpayable",
      "type": "function"
    },
    {
      "constant": false,
      "inputs": [
        {
          "name": "_reserve",
          "type": "address"
        },
        {
          "name": "_ltv",
          "type": "uint256"
        }
      ],
      "name": "setReserveBaseLTVasCollateral",
      "outputs": [],
      "payable": false,
      "stateMutability": "nonpayable",
      "type": "function"
    },
    {
      "constant": false,
      "inputs": [
        {
          "name": "_reserve",
          "type": "address"
        },
        {
          "name": "_threshold",
          "type": "uint256"
        }
      ],
      "name": "setReserveLiquidationThreshold",
      "outputs": [],
      "payable": false,
      "stateMutability": "nonpayable",
      "type": "function"
    },
    {
      "constant": false,
      "inputs": [
        {
          "name": "_reserve",
          "type": "address"
        },
        {
          "name": "_bonus",
          "type": "uint256"
        }
      ],
      "name": "setReserveLiquidationBonus",
      "outputs": [],
      "payable": false,
      "stateMutability": "nonpayable",
      "type": "function"
    },
    {
      "constant": false,
      "inputs": [
        {
          "name": "_reserve",
          "type": "address"
        },
        {
          "name": "_decimals",
          "type": "uint256"
        }
      ],
      "name": "setReserveDecimals",
      "outputs": [],
      "payable": false,
      "stateMutability": "nonpayable",
      "type": "function"
    },
    {
      "constant": false,
      "inputs": [
        {
          "name": "_reserve",
          "type": "address"
        },
        {
          "name": "_rateStrategyAddress",
          "type": "address"
        }
      ],
      "name": "setReserveInterestRateStrategyAddress",
      "outputs": [],
      "payable": false,
      "stateMutability": "nonpayable",
      "type": "function"
    },
    {
      "constant": false,
      "inputs": [],
      "name": "refreshLendingPoolCoreConfiguration",
      "outputs": [],
      "payable": false,
      "stateMutability": "nonpayable",
      "type": "function"
    }
  ],
  "bytecode": "0x60806040526000805534801561001457600080fd5b5061557b806100246000396000f3fe60806040523480156200001157600080fd5b5060043610620001605760003560e01c8063a8dc0f4511620000c9578063d466016f1162000087578063d466016f1462000550578063dae4c4e7146200057f578063e12dcc6c14620005a8578063e8ae2f5b14620005b2578063eede87c114620005db578063ef1f9373146200060c5762000160565b8063a8dc0f451462000483578063b75d6f3414620004ac578063b8c0f74514620004d5578063c4d66de814620004fe578063d06e2ec114620005275762000160565b806366bbd928116200012357806366bbd928146200037f57806370fb84f414620003ae5780637aca76eb14620003dd5780637af635a6146200040657806380e17d871462000422578063a5bc826c14620004485762000160565b8063071033e414620001655780631d2118f914620001a35780633443a14b14620001d457806336805a6214620002035780633e72a4541462000356575b600080fd5b620001a1600480360360608110156200017d57600080fd5b506001600160a01b03813581169160ff602082013516916040909101351662000635565b005b620001a160048036036040811015620001bb57600080fd5b506001600160a01b0381358116916020013516620009ae565b620001a160048036036040811015620001ec57600080fd5b506001600160a01b03813516906020013562000ba2565b620001a1600480360360a08110156200021b57600080fd5b6001600160a01b038235169190810190604081016020820135600160201b8111156200024657600080fd5b8201836020820111156200025957600080fd5b803590602001918460018302840111600160201b831117156200027b57600080fd5b91908080601f0160208091040260200160405190810160405280939291908181526020018383808284376000920191909152509295949360208101935035915050600160201b811115620002ce57600080fd5b820183602082011115620002e157600080fd5b803590602001918460018302840111600160201b831117156200030357600080fd5b91908080601f0160208091040260200160405190810160405280939291908181526020018383808284376000920191909152509295505050813560ff16925050602001356001600160a01b031662000d94565b620001a1600480360360208110156200036e57600080fd5b50356001600160a01b0316620010e6565b620001a1600480360360408110156200039757600080fd5b506001600160a01b03813516906020013562001387565b620001a160048036036040811015620003c657600080fd5b506001600160a01b03813516906020013562001579565b620001a160048036036020811015620003f557600080fd5b50356001600160a01b03166200176b565b6200041062001945565b60408051918252519081900360200190f35b6200042c6200194a565b604080516001600160a01b039092168252519081900360200190f35b620001a1600480360360808110156200046057600080fd5b506001600160a01b03813516906020810135906040810135906060013562001959565b620001a1600480360360208110156200049b57600080fd5b50356001600160a01b031662001b63565b620001a160048036036020811015620004c457600080fd5b50356001600160a01b031662001d3d565b620001a160048036036020811015620004ed57600080fd5b50356001600160a01b031662001f17565b620001a1600480360360208110156200051657600080fd5b50356001600160a01b0316620020f1565b620001a1600480360360208110156200053f57600080fd5b50356001600160a01b0316620021b8565b620001a1600480360360408110156200056857600080fd5b506001600160a01b03813516906020013562002392565b620001a1600480360360208110156200059757600080fd5b50356001600160a01b031662002584565b620001a16200275e565b620001a160048036036020811015620005ca57600080fd5b50356001600160a01b0316620028fa565b620001a160048036036040811015620005f357600080fd5b506001600160a01b038135169060200135151562002ad4565b620001a1600480360360208110156200062457600080fd5b50356001600160a01b031662002cc8565b60345460408051600160e01b6333128d59028152905133926001600160a01b0316916333128d59916004808301926020929190829003018186803b1580156200067d57600080fd5b505afa15801562000692573d6000803e3d6000fd5b505050506040513d6020811015620006a957600080fd5b50516001600160a01b031614620006f557604051600160e51b62461bcd028152600401808060200182810382526029815260200180620054cf6029913960400191505060405180910390fd5b60008390506060816001600160a01b03166306fdde036040518163ffffffff1660e01b815260040160006040518083038186803b1580156200073657600080fd5b505afa1580156200074b573d6000803e3d6000fd5b505050506040513d6000823e601f3d908101601f1916820160405260208110156200077557600080fd5b810190808051600160201b8111156200078d57600080fd5b82016020810184811115620007a157600080fd5b8151600160201b811182820187101715620007bb57600080fd5b505092919050505060405160200180807f4161766520496e7465726573742062656172696e67200000000000000000000081525060160182805190602001908083835b602083106200081f5780518252601f199092019160209182019101620007fe565b6001836020036101000a03801982511681845116808217855250505050505090500191505060405160208183030381529060405290506060826001600160a01b03166395d89b416040518163ffffffff1660e01b815260040160006040518083038186803b1580156200089157600080fd5b505afa158015620008a6573d6000803e3d6000fd5b505050506040513d6000823e601f3d908101601f191682016040526020811015620008d057600080fd5b810190808051600160201b811115620008e857600080fd5b82016020810184811115620008fc57600080fd5b8151600160201b8111828201871017156200091657600080fd5b50509291905050506040516020018080600160f81b60610281525060010182805190602001908083835b60208310620009615780518252601f19909201916020918201910162000940565b6001836020036101000a0380198251168184511680821785525050505050509050019150506040516020818303038152906040529050620009a6868383888862000d94565b505050505050565b60345460408051600160e01b6333128d59028152905133926001600160a01b0316916333128d59916004808301926020929190829003018186803b158015620009f657600080fd5b505afa15801562000a0b573d6000803e3d6000fd5b505050506040513d602081101562000a2257600080fd5b50516001600160a01b03161462000a6e57604051600160e51b62461bcd028152600401808060200182810382526029815260200180620054cf6029913960400191505060405180910390fd5b60345460408051600160e51b63076b7fbb02815290516000926001600160a01b03169163ed6ff760916004808301926020929190829003018186803b15801562000ab757600080fd5b505afa15801562000acc573d6000803e3d6000fd5b505050506040513d602081101562000ae357600080fd5b505160408051600160e01b631d2118f90281526001600160a01b0386811660048301528581166024830152915192935090831691631d2118f99160448082019260009290919082900301818387803b15801562000b3f57600080fd5b505af115801562000b54573d6000803e3d6000fd5b5050604080516001600160a01b0380881682528616602082015281517f5644b64ebb0ce18c4032248ca52f58355469092ff072866c3dcd8640e817d6a59450908190039091019150a1505050565b60345460408051600160e01b6333128d59028152905133926001600160a01b0316916333128d59916004808301926020929190829003018186803b15801562000bea57600080fd5b505afa15801562000bff573d6000803e3d6000fd5b505050506040513d602081101562000c1657600080fd5b50516001600160a01b03161462000c6257604051600160e51b62461bcd028152600401808060200182810382526029815260200180620054cf6029913960400191505060405180910390fd5b60345460408051600160e51b63076b7fbb02815290516000926001600160a01b03169163ed6ff760916004808301926020929190829003018186803b15801562000cab57600080fd5b505afa15801562000cc0573d6000803e3d6000fd5b505050506040513d602081101562000cd757600080fd5b505160408051600160e01b633443a14b0281526001600160a01b03868116600483015260248201869052915192935090831691633443a14b9160448082019260009290919082900301818387803b15801562000d3257600080fd5b505af115801562000d47573d6000803e3d6000fd5b5050604080516001600160a01b03871681526020810186905281517f437dd3b61b7c7eee7fc70515c8846482dfca92e2e1e02af5d638c5d4878d67149450908190039091019150a1505050565b60345460408051600160e01b6333128d59028152905133926001600160a01b0316916333128d59916004808301926020929190829003018186803b15801562000ddc57600080fd5b505afa15801562000df1573d6000803e3d6000fd5b505050506040513d602081101562000e0857600080fd5b50516001600160a01b03161462000e5457604051600160e51b62461bcd028152600401808060200182810382526029815260200180620054cf6029913960400191505060405180910390fd5b60345460408051600160e51b63076b7fbb02815290516000926001600160a01b03169163ed6ff760916004808301926020929190829003018186803b15801562000e9d57600080fd5b505afa15801562000eb2573d6000803e3d6000fd5b505050506040513d602081101562000ec957600080fd5b50516034546040519192506000916001600160a01b0390911690889086908990899062000ef69062002ead565b6001600160a01b038087168252851660208083019190915260ff8516604083015260a06060830181815285519184019190915284519091608084019160c085019187019080838360005b8381101562000f5a57818101518382015260200162000f40565b50505050905090810190601f16801562000f885780820380516001836020036101000a031916815260200191505b50838103825284518152845160209182019186019080838360005b8381101562000fbd57818101518382015260200162000fa3565b50505050905090810190601f16801562000feb5780820380516001836020036101000a031916815260200191505b50975050505050505050604051809103906000f08015801562001012573d6000803e3d6000fd5b5060408051600160e61b630114cc290281526001600160a01b038a81166004830152808416602483015260ff8816604483015286811660648301529151929350908416916345330a409160848082019260009290919082900301818387803b1580156200107e57600080fd5b505af115801562001093573d6000803e3d6000fd5b5050604080516001600160a01b03878116825291518286169450918b1692507f1d9fcd0dc935b4778d5af97f55c4d7b2553257382f1ef25c412114c8eeebd88e919081900360200190a350505050505050565b60345460408051600160e01b6333128d59028152905133926001600160a01b0316916333128d59916004808301926020929190829003018186803b1580156200112e57600080fd5b505afa15801562001143573d6000803e3d6000fd5b505050506040513d60208110156200115a57600080fd5b50516001600160a01b031614620011a657604051600160e51b62461bcd028152600401808060200182810382526029815260200180620054cf6029913960400191505060405180910390fd5b60345460408051600160e51b63076b7fbb02815290516000926001600160a01b03169163ed6ff760916004808301926020929190829003018186803b158015620011ef57600080fd5b505afa15801562001204573d6000803e3d6000fd5b505050506040513d60208110156200121b57600080fd5b505160408051600160e41b630c33cfd90281526001600160a01b03858116600483015291519293509083169163c33cfd9091602480820192602092909190829003018186803b1580156200126e57600080fd5b505afa15801562001283573d6000803e3d6000fd5b505050506040513d60208110156200129a57600080fd5b505115620012dd57604051600160e51b62461bcd02815260040180806020018281038252602a81526020018062005526602a913960400191505060405180910390fd5b806001600160a01b0316633e72a454836040518263ffffffff1660e01b815260040180826001600160a01b03166001600160a01b03168152602001915050600060405180830381600087803b1580156200133657600080fd5b505af11580156200134b573d6000803e3d6000fd5b50506040516001600160a01b03851692507f6f60cf8bd0f218cabe1ea3150bd07b0b758c35c4cfdf7138017a283e65564d5e9150600090a25050565b60345460408051600160e01b6333128d59028152905133926001600160a01b0316916333128d59916004808301926020929190829003018186803b158015620013cf57600080fd5b505afa158015620013e4573d6000803e3d6000fd5b505050506040513d6020811015620013fb57600080fd5b50516001600160a01b0316146200144757604051600160e51b62461bcd028152600401808060200182810382526029815260200180620054cf6029913960400191505060405180910390fd5b60345460408051600160e51b63076b7fbb02815290516000926001600160a01b03169163ed6ff760916004808301926020929190829003018186803b1580156200149057600080fd5b505afa158015620014a5573d6000803e3d6000fd5b505050506040513d6020811015620014bc57600080fd5b505160408051600160e31b630cd77b250281526001600160a01b038681166004830152602482018690529151929350908316916366bbd9289160448082019260009290919082900301818387803b1580156200151757600080fd5b505af11580156200152c573d6000803e3d6000fd5b5050604080516001600160a01b03871681526020810186905281517f2e73b7f1df792712003e6859f940c1e8711c3f1329474771fee71d2ec11631299450908190039091019150a1505050565b60345460408051600160e01b6333128d59028152905133926001600160a01b0316916333128d59916004808301926020929190829003018186803b158015620015c157600080fd5b505afa158015620015d6573d6000803e3d6000fd5b505050506040513d6020811015620015ed57600080fd5b50516001600160a01b0316146200163957604051600160e51b62461bcd028152600401808060200182810382526029815260200180620054cf6029913960400191505060405180910390fd5b60345460408051600160e51b63076b7fbb02815290516000926001600160a01b03169163ed6ff760916004808301926020929190829003018186803b1580156200168257600080fd5b505afa15801562001697573d6000803e3d6000fd5b505050506040513d6020811015620016ae57600080fd5b505160408051600160e21b631c3ee13d0281526001600160a01b038681166004830152602482018690529151929350908316916370fb84f49160448082019260009290919082900301818387803b1580156200170957600080fd5b505af11580156200171e573d6000803e3d6000fd5b5050604080516001600160a01b03871681526020810186905281517fe3ba662f7011e701056a43e8cf832242322eeff01453e7a72d01ec2af36d9aec9450908190039091019150a1505050565b60345460408051600160e01b6333128d59028152905133926001600160a01b0316916333128d59916004808301926020929190829003018186803b158015620017b357600080fd5b505afa158015620017c8573d6000803e3d6000fd5b505050506040513d6020811015620017df57600080fd5b50516001600160a01b0316146200182b57604051600160e51b62461bcd028152600401808060200182810382526029815260200180620054cf6029913960400191505060405180910390fd5b60345460408051600160e51b63076b7fbb02815290516000926001600160a01b03169163ed6ff760916004808301926020929190829003018186803b1580156200187457600080fd5b505afa15801562001889573d6000803e3d6000fd5b505050506040513d6020811015620018a057600080fd5b505160408051600160e01b637aca76eb0281526001600160a01b038581166004830152915192935090831691637aca76eb9160248082019260009290919082900301818387803b158015620018f457600080fd5b505af115801562001909573d6000803e3d6000fd5b50506040516001600160a01b03851692507fda5cdb66c77023db6abe5226a4d4a40c3b8e768012f4ff4e446f62f60127fc569150600090a25050565b600381565b6034546001600160a01b031681565b60345460408051600160e01b6333128d59028152905133926001600160a01b0316916333128d59916004808301926020929190829003018186803b158015620019a157600080fd5b505afa158015620019b6573d6000803e3d6000fd5b505050506040513d6020811015620019cd57600080fd5b50516001600160a01b03161462001a1957604051600160e51b62461bcd028152600401808060200182810382526029815260200180620054cf6029913960400191505060405180910390fd5b60345460408051600160e51b63076b7fbb02815290516000926001600160a01b03169163ed6ff760916004808301926020929190829003018186803b15801562001a6257600080fd5b505afa15801562001a77573d6000803e3d6000fd5b505050506040513d602081101562001a8e57600080fd5b505160408051600160e21b63296f209b0281526001600160a01b03888116600483015260248201889052604482018790526064820186905291519293509083169163a5bc826c9160848082019260009290919082900301818387803b15801562001af757600080fd5b505af115801562001b0c573d6000803e3d6000fd5b5050604080518781526020810187905280820186905290516001600160a01b03891693507fdfe62f53e7707d64f99bca15d2bdf3facc4074bc047e7dec2ea130300e99274492509081900360600190a25050505050565b60345460408051600160e01b6333128d59028152905133926001600160a01b0316916333128d59916004808301926020929190829003018186803b15801562001bab57600080fd5b505afa15801562001bc0573d6000803e3d6000fd5b505050506040513d602081101562001bd757600080fd5b50516001600160a01b03161462001c2357604051600160e51b62461bcd028152600401808060200182810382526029815260200180620054cf6029913960400191505060405180910390fd5b60345460408051600160e51b63076b7fbb02815290516000926001600160a01b03169163ed6ff760916004808301926020929190829003018186803b15801562001c6c57600080fd5b505afa15801562001c81573d6000803e3d6000fd5b505050506040513d602081101562001c9857600080fd5b505160408051600160e01b63a8dc0f450281526001600160a01b03858116600483015291519293509083169163a8dc0f459160248082019260009290919082900301818387803b15801562001cec57600080fd5b505af115801562001d01573d6000803e3d6000fd5b50506040516001600160a01b03851692507fe9a7e5fd4fc8ea18e602350324bf48e8f05d12434af0ce0be05743e6a5fdcb9e9150600090a25050565b60345460408051600160e01b6333128d59028152905133926001600160a01b0316916333128d59916004808301926020929190829003018186803b15801562001d8557600080fd5b505afa15801562001d9a573d6000803e3d6000fd5b505050506040513d602081101562001db157600080fd5b50516001600160a01b03161462001dfd57604051600160e51b62461bcd028152600401808060200182810382526029815260200180620054cf6029913960400191505060405180910390fd5b60345460408051600160e51b63076b7fbb02815290516000926001600160a01b03169163ed6ff760916004808301926020929190829003018186803b15801562001e4657600080fd5b505afa15801562001e5b573d6000803e3d6000fd5b505050506040513d602081101562001e7257600080fd5b505160408051600160e21b632dd75bcd0281526001600160a01b03858116600483015291519293509083169163b75d6f349160248082019260009290919082900301818387803b15801562001ec657600080fd5b505af115801562001edb573d6000803e3d6000fd5b50506040516001600160a01b03851692507f35b80cd8ea3440e9a8454f116fa658b858da1b64c86c48451f4559cefcdfb56c9150600090a25050565b60345460408051600160e01b6333128d59028152905133926001600160a01b0316916333128d59916004808301926020929190829003018186803b15801562001f5f57600080fd5b505afa15801562001f74573d6000803e3d6000fd5b505050506040513d602081101562001f8b57600080fd5b50516001600160a01b03161462001fd757604051600160e51b62461bcd028152600401808060200182810382526029815260200180620054cf6029913960400191505060405180910390fd5b60345460408051600160e51b63076b7fbb02815290516000926001600160a01b03169163ed6ff760916004808301926020929190829003018186803b1580156200202057600080fd5b505afa15801562002035573d6000803e3d6000fd5b505050506040513d60208110156200204c57600080fd5b505160408051600160e01b63b8c0f7450281526001600160a01b03858116600483015291519293509083169163b8c0f7459160248082019260009290919082900301818387803b158015620020a057600080fd5b505af1158015620020b5573d6000803e3d6000fd5b50506040516001600160a01b03851692507f8bbf35441ac2c607ddecadd3d8ee58636d32f217fad201fb2655581502dd84e39150600090a25050565b6000620020fd62002ea2565b60015490915060ff16806200211757506200211762002ea7565b8062002124575060005481115b15156200216657604051600160e51b62461bcd02815260040180806020018281038252602e815260200180620054f8602e913960400191505060405180910390fd5b60015460ff1615801562002186576001805460ff19168117905560008290555b603480546001600160a01b0319166001600160a01b0385161790558015620021b3576001805460ff191690555b505050565b60345460408051600160e01b6333128d59028152905133926001600160a01b0316916333128d59916004808301926020929190829003018186803b1580156200220057600080fd5b505afa15801562002215573d6000803e3d6000fd5b505050506040513d60208110156200222c57600080fd5b50516001600160a01b0316146200227857604051600160e51b62461bcd028152600401808060200182810382526029815260200180620054cf6029913960400191505060405180910390fd5b60345460408051600160e51b63076b7fbb02815290516000926001600160a01b03169163ed6ff760916004808301926020929190829003018186803b158015620022c157600080fd5b505afa158015620022d6573d6000803e3d6000fd5b505050506040513d6020811015620022ed57600080fd5b505160408051600160e01b63d06e2ec10281526001600160a01b03858116600483015291519293509083169163d06e2ec19160248082019260009290919082900301818387803b1580156200234157600080fd5b505af115801562002356573d6000803e3d6000fd5b50506040516001600160a01b03851692507f19dbf059e4d3a0cb998d4328b7b991bbe312827eeb053d8ff63edf33158e01db9150600090a25050565b60345460408051600160e01b6333128d59028152905133926001600160a01b0316916333128d59916004808301926020929190829003018186803b158015620023da57600080fd5b505afa158015620023ef573d6000803e3d6000fd5b505050506040513d60208110156200240657600080fd5b50516001600160a01b0316146200245257604051600160e51b62461bcd028152600401808060200182810382526029815260200180620054cf6029913960400191505060405180910390fd5b60345460408051600160e51b63076b7fbb02815290516000926001600160a01b03169163ed6ff760916004808301926020929190829003018186803b1580156200249b57600080fd5b505afa158015620024b0573d6000803e3d6000fd5b505050506040513d6020811015620024c757600080fd5b505160408051600160e01b63d466016f0281526001600160a01b0386811660048301526024820186905291519293509083169163d466016f9160448082019260009290919082900301818387803b1580156200252257600080fd5b505af115801562002537573d6000803e3d6000fd5b5050604080516001600160a01b03871681526020810186905281517fda47540c7f7fd5a68c3285f3bb708f322424f948f41df6f51622fa24b39686649450908190039091019150a1505050565b60345460408051600160e01b6333128d59028152905133926001600160a01b0316916333128d59916004808301926020929190829003018186803b158015620025cc57600080fd5b505afa158015620025e1573d6000803e3d6000fd5b505050506040513d6020811015620025f857600080fd5b50516001600160a01b0316146200264457604051600160e51b62461bcd028152600401808060200182810382526029815260200180620054cf6029913960400191505060405180910390fd5b60345460408051600160e51b63076b7fbb02815290516000926001600160a01b03169163ed6ff760916004808301926020929190829003018186803b1580156200268d57600080fd5b505afa158015620026a2573d6000803e3d6000fd5b505050506040513d6020811015620026b957600080fd5b505160408051600160e01b63dae4c4e70281526001600160a01b03858116600483015291519293509083169163dae4c4e79160248082019260009290919082900301818387803b1580156200270d57600080fd5b505af115801562002722573d6000803e3d6000fd5b50506040516001600160a01b03851692507f8dee2b2f3e98319ae6347eda521788f73f4086c9be9a594942b370b137fb8cb19150600090a25050565b60345460408051600160e01b6333128d59028152905133926001600160a01b0316916333128d59916004808301926020929190829003018186803b158015620027a657600080fd5b505afa158015620027bb573d6000803e3d6000fd5b505050506040513d6020811015620027d257600080fd5b50516001600160a01b0316146200281e57604051600160e51b62461bcd028152600401808060200182810382526029815260200180620054cf6029913960400191505060405180910390fd5b60345460408051600160e51b63076b7fbb02815290516000926001600160a01b03169163ed6ff760916004808301926020929190829003018186803b1580156200286757600080fd5b505afa1580156200287c573d6000803e3d6000fd5b505050506040513d60208110156200289357600080fd5b505160408051600160e01b636468108302815290519192506001600160a01b0383169163646810839160048082019260009290919082900301818387803b158015620028de57600080fd5b505af1158015620028f3573d6000803e3d6000fd5b5050505050565b60345460408051600160e01b6333128d59028152905133926001600160a01b0316916333128d59916004808301926020929190829003018186803b1580156200294257600080fd5b505afa15801562002957573d6000803e3d6000fd5b505050506040513d60208110156200296e57600080fd5b50516001600160a01b031614620029ba57604051600160e51b62461bcd028152600401808060200182810382526029815260200180620054cf6029913960400191505060405180910390fd5b60345460408051600160e51b63076b7fbb02815290516000926001600160a01b03169163ed6ff760916004808301926020929190829003018186803b15801562002a0357600080fd5b505afa15801562002a18573d6000803e3d6000fd5b505050506040513d602081101562002a2f57600080fd5b505160408051600160e01b63e8ae2f5b0281526001600160a01b03858116600483015291519293509083169163e8ae2f5b9160248082019260009290919082900301818387803b15801562002a8357600080fd5b505af115801562002a98573d6000803e3d6000fd5b50506040516001600160a01b03851692507f9cc75e4cafc9a556a369bc53468649075680eb554d225d5918f199453824796d9150600090a25050565b60345460408051600160e01b6333128d59028152905133926001600160a01b0316916333128d59916004808301926020929190829003018186803b15801562002b1c57600080fd5b505afa15801562002b31573d6000803e3d6000fd5b505050506040513d602081101562002b4857600080fd5b50516001600160a01b03161462002b9457604051600160e51b62461bcd028152600401808060200182810382526029815260200180620054cf6029913960400191505060405180910390fd5b60345460408051600160e51b63076b7fbb02815290516000926001600160a01b03169163ed6ff760916004808301926020929190829003018186803b15801562002bdd57600080fd5b505afa15801562002bf2573d6000803e3d6000fd5b505050506040513d602081101562002c0957600080fd5b505160408051600160e01b63eede87c10281526001600160a01b038681166004830152851515602483015291519293509083169163eede87c19160448082019260009290919082900301818387803b15801562002c6557600080fd5b505af115801562002c7a573d6000803e3d6000fd5b5050604080516001600160a01b0387168152851515602082015281517fab2f7f9e5ca2772fafa94f355c1842a80ae6b9e41f83083098d81f67d7a0b5089450908190039091019150a1505050565b60345460408051600160e01b6333128d59028152905133926001600160a01b0316916333128d59916004808301926020929190829003018186803b15801562002d1057600080fd5b505afa15801562002d25573d6000803e3d6000fd5b505050506040513d602081101562002d3c57600080fd5b50516001600160a01b03161462002d8857604051600160e51b62461bcd028152600401808060200182810382526029815260200180620054cf6029913960400191505060405180910390fd5b60345460408051600160e51b63076b7fbb02815290516000926001600160a01b03169163ed6ff760916004808301926020929190829003018186803b15801562002dd157600080fd5b505afa15801562002de6573d6000803e3d6000fd5b505050506040513d602081101562002dfd57600080fd5b505160408051600160e01b63ef1f93730281526001600160a01b03858116600483015291519293509083169163ef1f93739160248082019260009290919082900301818387803b15801562002e5157600080fd5b505af115801562002e66573d6000803e3d6000fd5b50506040516001600160a01b03851692507f995959c2ceab6ce20e8cd89c904e449fd3e21918a0f420c9ec9340595585526b9150600090a25050565b600390565b303b1590565b6126138062002ebc8339019056fe60806040523480156200001157600080fd5b506040516200261338038062002613833981018060405260a08110156200003757600080fd5b81516020830151604084015160608501805193959294919391830192916401000000008111156200006757600080fd5b820160208101848111156200007b57600080fd5b81516401000000008111828201871017156200009657600080fd5b50509291906020018051640100000000811115620000b357600080fd5b82016020810184811115620000c757600080fd5b8151640100000000811182820187101715620000e257600080fd5b505084519093508492508391508590620001049060039060208601906200035c565b5081516200011a9060049060208501906200035c565b506005805460ff191660ff929092169190911790555050600a80546001600160a01b0319166001600160a01b038781169190911791829055604080517fed6ff7600000000000000000000000000000000000000000000000000000000081529051929091169163ed6ff76091600480820192602092909190829003018186803b158015620001a757600080fd5b505afa158015620001bc573d6000803e3d6000fd5b505050506040513d6020811015620001d357600080fd5b5051600b80546001600160a01b0319166001600160a01b03928316179055600a54604080517f0261bf8b00000000000000000000000000000000000000000000000000000000815290519190921691630261bf8b916004808301926020929190829003018186803b1580156200024857600080fd5b505afa1580156200025d573d6000803e3d6000fd5b505050506040513d60208110156200027457600080fd5b5051600c80546001600160a01b0319166001600160a01b03928316179055600a54604080517f2f58b80d00000000000000000000000000000000000000000000000000000000815290519190921691632f58b80d916004808301926020929190829003018186803b158015620002e957600080fd5b505afa158015620002fe573d6000803e3d6000fd5b505050506040513d60208110156200031557600080fd5b5051600d80546001600160a01b0319166001600160a01b0392831617905560058054610100600160a81b031916610100969092169590950217909355506200040192505050565b828054600181600116156101000203166002900490600052602060002090601f016020900481019282601f106200039f57805160ff1916838001178555620003cf565b82800160010185558215620003cf579182015b82811115620003cf578251825591602001919060010190620003b2565b50620003dd929150620003e1565b5090565b620003fe91905b80821115620003dd5760008155600101620003e8565b90565b61220280620004116000396000f3fe608060405234801561001057600080fd5b50600436106101735760003560e01c80635eae177c116100de578063a9059cbb11610097578063db006a7511610071578063db006a75146104f3578063dd62ed3e14610510578063ee9907a41461053e578063f866c3191461056457610173565b8063a9059cbb14610499578063c634dfaa146104c5578063d0fc81d2146104eb57610173565b80635eae177c146103df57806370a082311461040b57806389d1a0fc1461043157806394362e8b1461043957806395d89b4114610465578063a457c2d71461046d57610173565b806323b872dd1161013057806323b872dd146102c3578063313ce567146102f9578063325a9b131461031757806339509351146103455780633edb7cb814610371578063445e80101461039d57610173565b806306fdde0314610178578063095ea7b3146101f55780630e49072d1461023557806312c87c2d1461025d57806318160ddd146102835780631d51e7cf1461029d575b600080fd5b61018061059a565b6040805160208082528351818301528351919283929083019185019080838360005b838110156101ba5781810151838201526020016101a2565b50505050905090810190601f1680156101e75780820380516001836020036101000a031916815260200191505b509250505060405180910390f35b6102216004803603604081101561020b57600080fd5b506001600160a01b038135169060200135610631565b604080519115158252519081900360200190f35b61025b6004803603602081101561024b57600080fd5b50356001600160a01b031661064f565b005b61025b6004803603602081101561027357600080fd5b50356001600160a01b031661065c565b61028b6106fe565b60408051918252519081900360200190f35b61028b600480360360208110156102b357600080fd5b50356001600160a01b03166107c5565b610221600480360360608110156102d957600080fd5b506001600160a01b038135811691602081013590911690604001356107e4565b610301610871565b6040805160ff9092168252519081900360200190f35b61025b6004803603604081101561032d57600080fd5b506001600160a01b038135811691602001351661087a565b6102216004803603604081101561035b57600080fd5b506001600160a01b0381351690602001356108e3565b61025b6004803603604081101561038757600080fd5b506001600160a01b038135169060200135610937565b6103c3600480360360208110156103b357600080fd5b50356001600160a01b0316610a31565b604080516001600160a01b039092168252519081900360200190f35b610221600480360360408110156103f557600080fd5b506001600160a01b038135169060200135610a4f565b61028b6004803603602081101561042157600080fd5b50356001600160a01b0316610aed565b6103c3610ba2565b61025b6004803603604081101561044f57600080fd5b506001600160a01b038135169060200135610bb6565b610180610c8e565b6102216004803603604081101561048357600080fd5b506001600160a01b038135169060200135610cef565b610221600480360360408110156104af57600080fd5b506001600160a01b038135169060200135610d5d565b61028b600480360360208110156104db57600080fd5b50356001600160a01b0316610d71565b61028b610d7c565b61025b6004803603602081101561050957600080fd5b5035610d82565b61028b6004803603604081101561052657600080fd5b506001600160a01b0381358116916020013516610fc8565b61028b6004803603602081101561055457600080fd5b50356001600160a01b0316610ff3565b61025b6004803603606081101561057a57600080fd5b506001600160a01b0381358116916020810135909116906040013561100e565b60038054604080516020601f60026000196101006001881615020190951694909404938401819004810282018101909252828152606093909290918301828280156106265780601f106105fb57610100808354040283529160200191610626565b820191906000526020600020905b81548152906001019060200180831161060957829003601f168201915b505050505090505b90565b600061064561063e61106a565b848461106e565b5060015b92915050565b6106593382611164565b50565b6001600160a01b0381163314156106a757604051600160e51b62461bcd028152600401808060200182810382526025815260200180611fd26025913960400191505060405180910390fd5b3360008181526009602052604080822080546001600160a01b0319166001600160a01b03861690811790915590519092917fc2d6a42a9d5273283f73009a07aacfb043f2f91173a8d9d33b504afe898db08b91a350565b60008061070961135b565b905080151561071c57600091505061062e565b600b5460055460408051600160e01b63d15e00530281526001600160a01b036101009093048316600482015290516107bf936107ba93169163d15e0053916024808301926020929190829003018186803b15801561077957600080fd5b505afa15801561078d573d6000803e3d6000fd5b505050506040513d60208110156107a357600080fd5b50516107ae84611361565b9063ffffffff61137716565b6113c2565b91505090565b6001600160a01b0381166000908152600860205260409020545b919050565b60006107f18484846113db565b610867846107fd61106a565b61086285604051806060016040528060288152602001612018602891396001600160a01b038a1660009081526001602052604081209061083b61106a565b6001600160a01b03168152602081019190915260400160002054919063ffffffff61144f16565b61106e565b5060019392505050565b60055460ff1690565b6001600160a01b038281166000908152600960205260409020541633146108d557604051600160e51b62461bcd02815260040180806020018281038252603a81526020018061219d603a913960400191505060405180910390fd5b6108df8282611164565b5050565b60006106456108f061106a565b84610862856001600061090161106a565b6001600160a01b03908116825260208083019390935260409182016000908120918c16815292529020549063ffffffff6114e916565b600c546001600160a01b0316331461098357604051600160e51b62461bcd0281526004018080602001828103825260328152602001806121466032913960400191505060405180910390fd5b600080600061099185611546565b935093509350506109a385838661163a565b6109ad8585611773565b60006109bf848663ffffffff61187416565b15156109d1576109ce866118b6565b90505b856001600160a01b03167f90e5d3d68ec162d9c7de393037a3ede04dd44f68e051bf2ace4a73c299dbc4db868584610a095785610a0c565b60005b60408051938452602084019290925282820152519081900360600190a2505050505050565b6001600160a01b039081166000908152600760205260409020541690565b600d5460055460408051600160e01b6376e9d6150281526101009092046001600160a01b039081166004840152858116602484015260448301859052905160009391909116916376e9d615916064808301926020929190829003018186803b158015610aba57600080fd5b505afa158015610ace573d6000803e3d6000fd5b505050506040513d6020811015610ae457600080fd5b50519392505050565b600080610af98361196a565b6001600160a01b03841660009081526008602052604090205490915081158015610b21575080155b15610b31576000925050506107df565b6001600160a01b03848116600090815260076020526040902054161515610b8457610b7b81610b6f86610b6a868463ffffffff6114e916565b611985565b9063ffffffff61187416565b925050506107df565b610b7b610b9582610b6f8785611985565b839063ffffffff6114e916565b60055461010090046001600160a01b031681565b600c546001600160a01b03163314610c0257604051600160e51b62461bcd0281526004018080602001828103825260328152602001806121466032913960400191505060405180910390fd5b600080610c0e84611546565b935093505050610c3284610c2b85856114e990919063ffffffff16565b600061163a565b610c3c8484611a3d565b604080518481526020810184905280820183905290516001600160a01b038616917fbe7799898ca2d813ff902b487c1b434ab45b47edd8f38b77ad5e99aae8341b7a919081900360600190a250505050565b60048054604080516020601f60026000196101006001881615020190951694909404938401819004810282018101909252828152606093909290918301828280156106265780601f106105fb57610100808354040283529160200191610626565b6000610645610cfc61106a565b84610862856040518060600160405280602581526020016121786025913960016000610d2661106a565b6001600160a01b03908116825260208083019390935260409182016000908120918d1681529252902054919063ffffffff61144f16565b6000610645610d6a61106a565b84846113db565b60006106498261196a565b60001981565b801515610dd95760408051600160e51b62461bcd02815260206004820181905260248201527f416d6f756e7420746f2072656465656d206e6565647320746f206265203e2030604482015290519081900360640190fd5b6000806000610de733611546565b91955093509150849050600019811415610dfe5750825b83811115610e4057604051600160e51b62461bcd028152600401808060200182810382526032815260200180611f586032913960400191505060405180910390fd5b610e4a3382610a4f565b1515610ea05760408051600160e51b62461bcd02815260206004820152601b60248201527f5472616e736665722063616e6e6f7420626520616c6c6f7765642e0000000000604482015290519081900360640190fd5b610eab33848361163a565b610eb53382611773565b6000610ec7858363ffffffff61187416565b1515610ed957610ed6336118b6565b90505b600c546005546001600160a01b0391821691639895e3d8916101009004163385610f098a8263ffffffff61187416565b6040518563ffffffff1660e01b815260040180856001600160a01b03166001600160a01b03168152602001846001600160a01b03166001600160a01b03168152602001838152602001828152602001945050505050600060405180830381600087803b158015610f7857600080fd5b505af1158015610f8c573d6000803e3d6000fd5b50505050336001600160a01b03167fbd5034ffbd47e4e72a94baa2cdb74c6fad73cb3bcdc13036b72ec8306f5a7646838684610a095786610a0c565b6001600160a01b03918216600090815260016020908152604080832093909416825291909152205490565b6001600160a01b031660009081526006602052604090205490565b600c546001600160a01b0316331461105a57604051600160e51b62461bcd0281526004018080602001828103825260328152602001806121466032913960400191505060405180910390fd5b611065838383611b32565b505050565b3390565b6001600160a01b03831615156110b857604051600160e51b62461bcd0281526004018080602001828103825260248152602001806121226024913960400191505060405180910390fd5b6001600160a01b038216151561110257604051600160e51b62461bcd028152600401808060200182810382526022815260200180611f8a6022913960400191505060405180910390fd5b6001600160a01b03808416600081815260016020908152604080832094871680845294825291829020859055815185815291517f8c5be1e5ebec7d5bd14f71427d1e84f3dd0314c0f7b2291e5b200ac8c7c3b9259281900390910190a3505050565b6001600160a01b0380831660009081526007602052604090205481169082168114156111c457604051600160e51b62461bcd02815260040180806020018281038252602a815260200180612040602a913960400191505060405180910390fd5b6000806000806111d387611546565b935093509350935060008311151561121f57604051600160e51b62461bcd02815260040180806020018281038252604281526020018061206a6042913960600191505060405180910390fd5b6001600160a01b0385161561123a5761123a8760008661163a565b866001600160a01b0316866001600160a01b031614156112c6576001600160a01b038716600081815260076020908152604080832080546001600160a01b03191690558051878152918201869052818101859052519192917f5e3cad45b1fe24159d1cb39788d82d0f69cc15770aa96fba1d3d1a73487355949181900360600190a350505050506108df565b6001600160a01b03878116600090815260076020526040812080546001600160a01b03191692891692909217909155611302908890859061163a565b604080518481526020810184905280820183905290516001600160a01b0380891692908a16917f5e3cad45b1fe24159d1cb39788d82d0f69cc15770aa96fba1d3d1a73487355949181900360600190a350505050505050565b60025490565b600061064982633b9aca0063ffffffff611c6516565b60006113bb6b033b2e3c9fd0803ce80000006113af61139c868663ffffffff611c6516565b6b019d971e4fe8401e74000000906114e9565b9063ffffffff611cc516565b9392505050565b6000631dcd65006113bb633b9aca006113af83866114e9565b82816113e78282610a4f565b151561143d5760408051600160e51b62461bcd02815260206004820152601b60248201527f5472616e736665722063616e6e6f7420626520616c6c6f7765642e0000000000604482015290519081900360640190fd5b611448858585611b32565b5050505050565b600081848411156114e157604051600160e51b62461bcd0281526004018080602001828103825283818151815260200191508051906020019080838360005b838110156114a657818101518382015260200161148e565b50505050905090810190601f1680156114d35780820380516001836020036101000a031916815260200191505b509250505060405180910390fd5b505050900390565b6000828201838110156113bb5760408051600160e51b62461bcd02815260206004820152601b60248201527f536166654d6174683a206164646974696f6e206f766572666c6f770000000000604482015290519081900360640190fd5b60008060008060006115578661196a565b9050600061156882610b6f89610aed565b90506115748782611a3d565b600b5460055460408051600160e01b63d15e00530281526101009092046001600160a01b0390811660048401529051600093919091169163d15e0053916024808301926020929190829003018186803b1580156115d057600080fd5b505afa1580156115e4573d6000803e3d6000fd5b505050506040513d60208110156115fa57600080fd5b50516001600160a01b038916600090815260066020526040902081905590508261162a818463ffffffff6114e916565b9099909850919650945092505050565b6001600160a01b03808416600090815260076020526040902054168015156116625750611065565b60008061166e83611546565b6001600160a01b03871660009081526008602052604090205491955093506116a49250869150610b6f908863ffffffff6114e916565b6001600160a01b03808516600090815260086020908152604080832094909455600790529190912054168015611717576001600160a01b0381166000908152600860205260409020546116fd908463ffffffff6114e916565b6001600160a01b0382166000908152600860205260409020555b60408051848152602081018490528082018890526060810187905290516001600160a01b038616917f70ff8cf632603e2bfd1afb7e4061acce53d95356b1be9726b99fa22ba733b01f919081900360800190a250505050505050565b6001600160a01b03821615156117bd57604051600160e51b62461bcd0281526004018080602001828103825260218152602001806120dc6021913960400191505060405180910390fd5b61180081604051806060016040528060228152602001611f36602291396001600160a01b038516600090815260208190526040902054919063ffffffff61144f16565b6001600160a01b03831660009081526020819052604090205560025461182c908263ffffffff61187416565b6002556040805182815290516000916001600160a01b038516917fddf252ad1be2c89b69c2b068fc378daa952ba7f163c4a11628f55a4df523b3ef9181900360200190a35050565b60006113bb83836040518060400160405280601e81526020017f536166654d6174683a207375627472616374696f6e206f766572666c6f77000081525061144f565b6001600160a01b038116600081815260076020908152604080832080546001600160a01b03191690558051838152918201839052818101839052519192839290917f5e3cad45b1fe24159d1cb39788d82d0f69cc15770aa96fba1d3d1a7348735594919081900360600190a36001600160a01b038216600090815260086020526040902054151561196257506001600160a01b03811660009081526006602052604081205560016107df565b5060006107df565b6001600160a01b031660009081526020819052604090205490565b6001600160a01b03808316600090815260066020908152604080832054600b546005548351600160e01b63d15e005302815261010090910487166004820152925194956113bb956107ba959394611a3194939092169263d15e00539260248082019391829003018186803b1580156119fc57600080fd5b505afa158015611a10573d6000803e3d6000fd5b505050506040513d6020811015611a2657600080fd5b50516107ae87611361565b9063ffffffff611d0716565b6001600160a01b0382161515611a9d5760408051600160e51b62461bcd02815260206004820152601f60248201527f45524332303a206d696e7420746f20746865207a65726f206164647265737300604482015290519081900360640190fd5b600254611ab0908263ffffffff6114e916565b6002556001600160a01b038216600090815260208190526040902054611adc908263ffffffff6114e916565b6001600160a01b0383166000818152602081815260408083209490945583518581529351929391927fddf252ad1be2c89b69c2b068fc378daa952ba7f163c4a11628f55a4df523b3ef9281900390910190a35050565b801515611b7357604051600160e51b62461bcd0281526004018080602001828103825260308152602001806120ac6030913960400191505060405180910390fd5b6000806000611b8186611546565b93509350935050600080611b9487611546565b935093505050611ba588858861163a565b611bb987610c2b848963ffffffff6114e916565b611bc4888888611d3f565b6000611bd6868863ffffffff61187416565b1515611be857611be5896118b6565b90505b876001600160a01b0316896001600160a01b03167f89a178eaa27e0cd201bd795ca8ff716ac0df9618494510ca79771cfc66ffcde889888786611c2b5789611c2e565b60005b60408051948552602085019390935283830191909152606083015260808201879052519081900360a00190a3505050505050505050565b6000821515611c7657506000610649565b828202828482811515611c8557fe5b04146113bb57604051600160e51b62461bcd028152600401808060200182810382526021815260200180611ff76021913960400191505060405180910390fd5b60006113bb83836040518060400160405280601a81526020017f536166654d6174683a206469766973696f6e206279207a65726f000000000000815250611ea5565b600060028204611d37836113af611d2a876b033b2e3c9fd0803ce8000000611c65565b849063ffffffff6114e916565b949350505050565b6001600160a01b0383161515611d8957604051600160e51b62461bcd0281526004018080602001828103825260258152602001806120fd6025913960400191505060405180910390fd5b6001600160a01b0382161515611dd357604051600160e51b62461bcd028152600401808060200182810382526023815260200180611f136023913960400191505060405180910390fd5b611e1681604051806060016040528060268152602001611fac602691396001600160a01b038616600090815260208190526040902054919063ffffffff61144f16565b6001600160a01b038085166000908152602081905260408082209390935590841681522054611e4b908263ffffffff6114e916565b6001600160a01b038084166000818152602081815260409182902094909455805185815290519193928716927fddf252ad1be2c89b69c2b068fc378daa952ba7f163c4a11628f55a4df523b3ef92918290030190a3505050565b600081831515611efa57604051600160e51b62461bcd028152600401808060200182810382528381815181526020019150805190602001908083836000838110156114a657818101518382015260200161148e565b5060008385811515611f0857fe5b049594505050505056fe45524332303a207472616e7366657220746f20746865207a65726f206164647265737345524332303a206275726e20616d6f756e7420657863656564732062616c616e6365557365722063616e6e6f742072656465656d206d6f7265207468616e2074686520617661696c61626c652062616c616e636545524332303a20617070726f766520746f20746865207a65726f206164647265737345524332303a207472616e7366657220616d6f756e7420657863656564732062616c616e6365557365722063616e6e6f74206769766520616c6c6f77616e636520746f2068696d73656c66536166654d6174683a206d756c7469706c69636174696f6e206f766572666c6f7745524332303a207472616e7366657220616d6f756e74206578636565647320616c6c6f77616e6365496e74657265737420697320616c7265616479207265646972656374656420746f207468652075736572496e7465726573742073747265616d2063616e206f6e6c79206265207265646972656374656420696620746865726520697320612076616c69642062616c616e63655472616e7366657272656420616d6f756e74206e6565647320746f2062652067726561746572207468616e207a65726f45524332303a206275726e2066726f6d20746865207a65726f206164647265737345524332303a207472616e736665722066726f6d20746865207a65726f206164647265737345524332303a20617070726f76652066726f6d20746865207a65726f20616464726573735468652063616c6c6572206f6620746869732066756e6374696f6e206d7573742062652061206c656e64696e6720706f6f6c45524332303a2064656372656173656420616c6c6f77616e63652062656c6f77207a65726f43616c6c6572206973206e6f7420616c6c6f77656420746f2072656469726563742074686520696e746572657374206f66207468652075736572a165627a7a72305820572198f05c2f8c3418228ce8eca14f2c078c4910aa199f7be59f1dbbdeced78f00295468652063616c6c6572206d7573742062652061206c656e64696e6720706f6f6c206d616e61676572436f6e747261637420696e7374616e63652068617320616c7265616479206265656e20696e697469616c697a6564546865206c6971756964697479206f66207468652072657365727665206e6565647320746f2062652030a165627a7a723058207438c01e80d33b950270c240ed20b8d8153f4473d67d6466a0c9b3f07c260d6f0029",
  "source": "pragma solidity ^0.5.0;\n\nimport \"openzeppelin-solidity/contracts/math/SafeMath.sol\";\nimport \"openzeppelin-solidity/contracts/token/ERC20/ERC20Detailed.sol\";\nimport \"../libraries/openzeppelin-upgradeability/VersionedInitializable.sol\";\nimport \"../configuration/LendingPoolAddressesProvider.sol\";\nimport \"./LendingPoolCore.sol\";\nimport \"../tokenization/AToken.sol\";\n\n/**\n* @title LendingPoolConfigurator contract\n* @author Aave\n* @notice Executes configuration methods on the LendingPoolCore contract. Allows to enable/disable reserves,\n* and set different protocol parameters.\n**/\n\ncontract LendingPoolConfigurator is VersionedInitializable {\n    using SafeMath for uint256;\n\n    /**\n    * @dev emitted when a reserve is initialized.\n    * @param _reserve the address of the reserve\n    * @param _aToken the address of the overlying aToken contract\n    * @param _interestRateStrategyAddress the address of the interest rate strategy for the reserve\n    **/\n    event ReserveInitialized(\n        address indexed _reserve,\n        address indexed _aToken,\n        address _interestRateStrategyAddress\n    );\n\n    /**\n    * @dev emitted when a reserve is removed.\n    * @param _reserve the address of the reserve\n    **/\n    event ReserveRemoved(\n        address indexed _reserve\n    );\n\n    /**\n    * @dev emitted when borrowing is enabled on a reserve\n    * @param _reserve the address of the reserve\n    * @param _stableRateEnabled true if stable rate borrowing is enabled, false otherwise\n    **/\n    event BorrowingEnabledOnReserve(address _reserve, bool _stableRateEnabled);\n\n    /**\n    * @dev emitted when borrowing is disabled on a reserve\n    * @param _reserve the address of the reserve\n    **/\n    event BorrowingDisabledOnReserve(address indexed _reserve);\n\n    /**\n    * @dev emitted when a reserve is enabled as collateral.\n    * @param _reserve the address of the reserve\n    * @param _ltv the loan to value of the asset when used as collateral\n    * @param _liquidationThreshold the threshold at which loans using this asset as collateral will be considered undercollateralized\n    * @param _liquidationBonus the bonus liquidators receive to liquidate this asset\n    **/\n    event ReserveEnabledAsCollateral(\n        address indexed _reserve,\n        uint256 _ltv,\n        uint256 _liquidationThreshold,\n        uint256 _liquidationBonus\n    );\n\n    /**\n    * @dev emitted when a reserve is disabled as collateral\n    * @param _reserve the address of the reserve\n    **/\n    event ReserveDisabledAsCollateral(address indexed _reserve);\n\n    /**\n    * @dev emitted when stable rate borrowing is enabled on a reserve\n    * @param _reserve the address of the reserve\n    **/\n    event StableRateEnabledOnReserve(address indexed _reserve);\n\n    /**\n    * @dev emitted when stable rate borrowing is disabled on a reserve\n    * @param _reserve the address of the reserve\n    **/\n    event StableRateDisabledOnReserve(address indexed _reserve);\n\n    /**\n    * @dev emitted when a reserve is activated\n    * @param _reserve the address of the reserve\n    **/\n    event ReserveActivated(address indexed _reserve);\n\n    /**\n    * @dev emitted when a reserve is deactivated\n    * @param _reserve the address of the reserve\n    **/\n    event ReserveDeactivated(address indexed _reserve);\n\n    /**\n    * @dev emitted when a reserve is freezed\n    * @param _reserve the address of the reserve\n    **/\n    event ReserveFreezed(address indexed _reserve);\n\n    /**\n    * @dev emitted when a reserve is unfreezed\n    * @param _reserve the address of the reserve\n    **/\n    event ReserveUnfreezed(address indexed _reserve);\n\n    /**\n    * @dev emitted when a reserve loan to value is updated\n    * @param _reserve the address of the reserve\n    * @param _ltv the new value for the loan to value\n    **/\n    event ReserveBaseLtvChanged(address _reserve, uint256 _ltv);\n\n    /**\n    * @dev emitted when a reserve liquidation threshold is updated\n    * @param _reserve the address of the reserve\n    * @param _threshold the new value for the liquidation threshold\n    **/\n    event ReserveLiquidationThresholdChanged(address _reserve, uint256 _threshold);\n\n    /**\n    * @dev emitted when a reserve liquidation bonus is updated\n    * @param _reserve the address of the reserve\n    * @param _bonus the new value for the liquidation bonus\n    **/\n    event ReserveLiquidationBonusChanged(address _reserve, uint256 _bonus);\n\n    /**\n    * @dev emitted when the reserve decimals are updated\n    * @param _reserve the address of the reserve\n    * @param _decimals the new decimals\n    **/\n    event ReserveDecimalsChanged(address _reserve, uint256 _decimals);\n\n\n    /**\n    * @dev emitted when a reserve interest strategy contract is updated\n    * @param _reserve the address of the reserve\n    * @param _strategy the new address of the interest strategy contract\n    **/\n    event ReserveInterestRateStrategyChanged(address _reserve, address _strategy);\n\n    LendingPoolAddressesProvider public poolAddressesProvider;\n    /**\n    * @dev only the lending pool manager can call functions affected by this modifier\n    **/\n    modifier onlyLendingPoolManager {\n        require(\n            poolAddressesProvider.getLendingPoolManager() == msg.sender,\n            \"The caller must be a lending pool manager\"\n        );\n        _;\n    }\n\n    uint256 public constant CONFIGURATOR_REVISION = 0x3;\n\n    function getRevision() internal pure returns (uint256) {\n        return CONFIGURATOR_REVISION;\n    }\n\n    function initialize(LendingPoolAddressesProvider _poolAddressesProvider) public initializer {\n        poolAddressesProvider = _poolAddressesProvider;\n    }\n\n    /**\n    * @dev initializes a reserve\n    * @param _reserve the address of the reserve to be initialized\n    * @param _underlyingAssetDecimals the decimals of the reserve underlying asset\n    * @param _interestRateStrategyAddress the address of the interest rate strategy contract for this reserve\n    **/\n    function initReserve(\n        address _reserve,\n        uint8 _underlyingAssetDecimals,\n        address _interestRateStrategyAddress\n    ) external onlyLendingPoolManager {\n        ERC20Detailed asset = ERC20Detailed(_reserve);\n\n        string memory aTokenName = string(abi.encodePacked(\"Aave Interest bearing \", asset.name()));\n        string memory aTokenSymbol = string(abi.encodePacked(\"a\", asset.symbol()));\n\n        initReserveWithData(\n            _reserve,\n            aTokenName,\n            aTokenSymbol,\n            _underlyingAssetDecimals,\n            _interestRateStrategyAddress\n        );\n\n    }\n\n    /**\n    * @dev initializes a reserve using aTokenData provided externally (useful if the underlying ERC20 contract doesn't expose name or decimals)\n    * @param _reserve the address of the reserve to be initialized\n    * @param _aTokenName the name of the aToken contract\n    * @param _aTokenSymbol the symbol of the aToken contract\n    * @param _underlyingAssetDecimals the decimals of the reserve underlying asset\n    * @param _interestRateStrategyAddress the address of the interest rate strategy contract for this reserve\n    **/\n    function initReserveWithData(\n        address _reserve,\n        string memory _aTokenName,\n        string memory _aTokenSymbol,\n        uint8 _underlyingAssetDecimals,\n        address _interestRateStrategyAddress\n    ) public onlyLendingPoolManager {\n        LendingPoolCore core = LendingPoolCore(poolAddressesProvider.getLendingPoolCore());\n\n        AToken aTokenInstance = new AToken(\n            poolAddressesProvider,\n            _reserve,\n            _underlyingAssetDecimals,\n            _aTokenName,\n            _aTokenSymbol\n        );\n        core.initReserve(\n            _reserve,\n            address(aTokenInstance),\n            _underlyingAssetDecimals,\n            _interestRateStrategyAddress\n        );\n\n        emit ReserveInitialized(\n            _reserve,\n            address(aTokenInstance),\n            _interestRateStrategyAddress\n        );\n    }\n\n    /**\n    * @dev removes the last added reserve in the list of the reserves\n    * @param _reserveToRemove the address of the reserve\n    **/\n    function removeLastAddedReserve( address _reserveToRemove) external onlyLendingPoolManager {\n        LendingPoolCore core = LendingPoolCore(poolAddressesProvider.getLendingPoolCore());\n        core.removeLastAddedReserve(_reserveToRemove);\n        emit ReserveRemoved(_reserveToRemove);\n    }\n\n    /**\n    * @dev enables borrowing on a reserve\n    * @param _reserve the address of the reserve\n    * @param _stableBorrowRateEnabled true if stable borrow rate needs to be enabled by default on this reserve\n    **/\n    function enableBorrowingOnReserve(address _reserve, bool _stableBorrowRateEnabled)\n        external\n        onlyLendingPoolManager\n    {\n        LendingPoolCore core = LendingPoolCore(poolAddressesProvider.getLendingPoolCore());\n        core.enableBorrowingOnReserve(_reserve, _stableBorrowRateEnabled);\n        emit BorrowingEnabledOnReserve(_reserve, _stableBorrowRateEnabled);\n    }\n\n    /**\n    * @dev disables borrowing on a reserve\n    * @param _reserve the address of the reserve\n    **/\n    function disableBorrowingOnReserve(address _reserve) external onlyLendingPoolManager {\n        LendingPoolCore core = LendingPoolCore(poolAddressesProvider.getLendingPoolCore());\n        core.disableBorrowingOnReserve(_reserve);\n\n        emit BorrowingDisabledOnReserve(_reserve);\n    }\n\n    /**\n    * @dev enables a reserve to be used as collateral\n    * @param _reserve the address of the reserve\n    * @param _baseLTVasCollateral the loan to value of the asset when used as collateral\n    * @param _liquidationThreshold the threshold at which loans using this asset as collateral will be considered undercollateralized\n    * @param _liquidationBonus the bonus liquidators receive to liquidate this asset\n    **/\n    function enableReserveAsCollateral(\n        address _reserve,\n        uint256 _baseLTVasCollateral,\n        uint256 _liquidationThreshold,\n        uint256 _liquidationBonus\n    ) external onlyLendingPoolManager {\n        LendingPoolCore core = LendingPoolCore(poolAddressesProvider.getLendingPoolCore());\n        core.enableReserveAsCollateral(\n            _reserve,\n            _baseLTVasCollateral,\n            _liquidationThreshold,\n            _liquidationBonus\n        );\n        emit ReserveEnabledAsCollateral(\n            _reserve,\n            _baseLTVasCollateral,\n            _liquidationThreshold,\n            _liquidationBonus\n        );\n    }\n\n    /**\n    * @dev disables a reserve as collateral\n    * @param _reserve the address of the reserve\n    **/\n    function disableReserveAsCollateral(address _reserve) external onlyLendingPoolManager {\n        LendingPoolCore core = LendingPoolCore(poolAddressesProvider.getLendingPoolCore());\n        core.disableReserveAsCollateral(_reserve);\n\n        emit ReserveDisabledAsCollateral(_reserve);\n    }\n\n    /**\n    * @dev enable stable rate borrowing on a reserve\n    * @param _reserve the address of the reserve\n    **/\n    function enableReserveStableBorrowRate(address _reserve) external onlyLendingPoolManager {\n        LendingPoolCore core = LendingPoolCore(poolAddressesProvider.getLendingPoolCore());\n        core.enableReserveStableBorrowRate(_reserve);\n\n        emit StableRateEnabledOnReserve(_reserve);\n    }\n\n    /**\n    * @dev disable stable rate borrowing on a reserve\n    * @param _reserve the address of the reserve\n    **/\n    function disableReserveStableBorrowRate(address _reserve) external onlyLendingPoolManager {\n        LendingPoolCore core = LendingPoolCore(poolAddressesProvider.getLendingPoolCore());\n        core.disableReserveStableBorrowRate(_reserve);\n\n        emit StableRateDisabledOnReserve(_reserve);\n    }\n\n    /**\n    * @dev activates a reserve\n    * @param _reserve the address of the reserve\n    **/\n    function activateReserve(address _reserve) external onlyLendingPoolManager {\n        LendingPoolCore core = LendingPoolCore(poolAddressesProvider.getLendingPoolCore());\n        core.activateReserve(_reserve);\n\n        emit ReserveActivated(_reserve);\n    }\n\n    /**\n    * @dev deactivates a reserve\n    * @param _reserve the address of the reserve\n    **/\n    function deactivateReserve(address _reserve) external onlyLendingPoolManager {\n        LendingPoolCore core = LendingPoolCore(poolAddressesProvider.getLendingPoolCore());\n        require(core.getReserveTotalLiquidity(_reserve) == 0, \"The liquidity of the reserve needs to be 0\");\n        core.deactivateReserve(_reserve);\n\n        emit ReserveDeactivated(_reserve);\n    }\n\n    /**\n    * @dev freezes a reserve. A freezed reserve doesn't accept any new deposit, borrow or rate swap, but can accept repayments, liquidations, rate rebalances and redeems\n    * @param _reserve the address of the reserve\n    **/\n    function freezeReserve(address _reserve) external onlyLendingPoolManager {\n        LendingPoolCore core = LendingPoolCore(poolAddressesProvider.getLendingPoolCore());\n        core.freezeReserve(_reserve);\n\n        emit ReserveFreezed(_reserve);\n    }\n\n    /**\n    * @dev unfreezes a reserve\n    * @param _reserve the address of the reserve\n    **/\n    function unfreezeReserve(address _reserve) external onlyLendingPoolManager {\n        LendingPoolCore core = LendingPoolCore(poolAddressesProvider.getLendingPoolCore());\n        core.unfreezeReserve(_reserve);\n\n        emit ReserveUnfreezed(_reserve);\n    }\n\n    /**\n    * @dev emitted when a reserve loan to value is updated\n    * @param _reserve the address of the reserve\n    * @param _ltv the new value for the loan to value\n    **/\n    function setReserveBaseLTVasCollateral(address _reserve, uint256 _ltv)\n        external\n        onlyLendingPoolManager\n    {\n        LendingPoolCore core = LendingPoolCore(poolAddressesProvider.getLendingPoolCore());\n        core.setReserveBaseLTVasCollateral(_reserve, _ltv);\n        emit ReserveBaseLtvChanged(_reserve, _ltv);\n    }\n\n    /**\n    * @dev updates the liquidation threshold of a reserve.\n    * @param _reserve the address of the reserve\n    * @param _threshold the new value for the liquidation threshold\n    **/\n    function setReserveLiquidationThreshold(address _reserve, uint256 _threshold)\n        external\n        onlyLendingPoolManager\n    {\n        LendingPoolCore core = LendingPoolCore(poolAddressesProvider.getLendingPoolCore());\n        core.setReserveLiquidationThreshold(_reserve, _threshold);\n        emit ReserveLiquidationThresholdChanged(_reserve, _threshold);\n    }\n\n    /**\n    * @dev updates the liquidation bonus of a reserve\n    * @param _reserve the address of the reserve\n    * @param _bonus the new value for the liquidation bonus\n    **/\n    function setReserveLiquidationBonus(address _reserve, uint256 _bonus)\n        external\n        onlyLendingPoolManager\n    {\n        LendingPoolCore core = LendingPoolCore(poolAddressesProvider.getLendingPoolCore());\n        core.setReserveLiquidationBonus(_reserve, _bonus);\n        emit ReserveLiquidationBonusChanged(_reserve, _bonus);\n    }\n\n    /**\n    * @dev updates the reserve decimals\n    * @param _reserve the address of the reserve\n    * @param _decimals the new number of decimals\n    **/\n    function setReserveDecimals(address _reserve, uint256 _decimals)\n        external\n        onlyLendingPoolManager\n    {\n        LendingPoolCore core = LendingPoolCore(poolAddressesProvider.getLendingPoolCore());\n        core.setReserveDecimals(_reserve, _decimals);\n        emit ReserveDecimalsChanged(_reserve, _decimals);\n    }\n\n    /**\n    * @dev sets the interest rate strategy of a reserve\n    * @param _reserve the address of the reserve\n    * @param _rateStrategyAddress the new address of the interest strategy contract\n    **/\n    function setReserveInterestRateStrategyAddress(address _reserve, address _rateStrategyAddress)\n        external\n        onlyLendingPoolManager\n    {\n        LendingPoolCore core = LendingPoolCore(poolAddressesProvider.getLendingPoolCore());\n        core.setReserveInterestRateStrategyAddress(_reserve, _rateStrategyAddress);\n        emit ReserveInterestRateStrategyChanged(_reserve, _rateStrategyAddress);\n    }\n\n    /**\n    * @dev refreshes the lending pool core configuration to update the cached address\n    **/\n    function refreshLendingPoolCoreConfiguration() external onlyLendingPoolManager {\n        LendingPoolCore core = LendingPoolCore(poolAddressesProvider.getLendingPoolCore());\n        core.refreshConfiguration();\n    }\n}\n",
  "sourcePath": "/Users/rongjianlan/workspace/go/src/github.com/harmony-one/aave-protocol/contracts/lendingpool/LendingPoolConfigurator.sol",
  "compiler": {
    "name": "solc",
    "version": "0.5.5+commit.47a71e8f.Emscripten.clang"
  },
  "schemaVersion": "3.2.0",
  "updatedAt": "2020-08-09T08:55:40.213Z",
  "devdoc": {
    "author": "Aave",
    "methods": {
      "activateReserve(address)": {
        "details": "activates a reserve",
        "params": {
          "_reserve": "the address of the reserve*"
        }
      },
      "deactivateReserve(address)": {
        "details": "deactivates a reserve",
        "params": {
          "_reserve": "the address of the reserve*"
        }
      },
      "disableBorrowingOnReserve(address)": {
        "details": "disables borrowing on a reserve",
        "params": {
          "_reserve": "the address of the reserve*"
        }
      },
      "disableReserveAsCollateral(address)": {
        "details": "disables a reserve as collateral",
        "params": {
          "_reserve": "the address of the reserve*"
        }
      },
      "disableReserveStableBorrowRate(address)": {
        "details": "disable stable rate borrowing on a reserve",
        "params": {
          "_reserve": "the address of the reserve*"
        }
      },
      "enableBorrowingOnReserve(address,bool)": {
        "details": "enables borrowing on a reserve",
        "params": {
          "_reserve": "the address of the reserve",
          "_stableBorrowRateEnabled": "true if stable borrow rate needs to be enabled by default on this reserve*"
        }
      },
      "enableReserveAsCollateral(address,uint256,uint256,uint256)": {
        "details": "enables a reserve to be used as collateral",
        "params": {
          "_baseLTVasCollateral": "the loan to value of the asset when used as collateral",
          "_liquidationBonus": "the bonus liquidators receive to liquidate this asset*",
          "_liquidationThreshold": "the threshold at which loans using this asset as collateral will be considered undercollateralized",
          "_reserve": "the address of the reserve"
        }
      },
      "enableReserveStableBorrowRate(address)": {
        "details": "enable stable rate borrowing on a reserve",
        "params": {
          "_reserve": "the address of the reserve*"
        }
      },
      "freezeReserve(address)": {
        "details": "freezes a reserve. A freezed reserve doesn't accept any new deposit, borrow or rate swap, but can accept repayments, liquidations, rate rebalances and redeems",
        "params": {
          "_reserve": "the address of the reserve*"
        }
      },
      "initReserve(address,uint8,address)": {
        "details": "initializes a reserve",
        "params": {
          "_interestRateStrategyAddress": "the address of the interest rate strategy contract for this reserve*",
          "_reserve": "the address of the reserve to be initialized",
          "_underlyingAssetDecimals": "the decimals of the reserve underlying asset"
        }
      },
      "initReserveWithData(address,string,string,uint8,address)": {
        "details": "initializes a reserve using aTokenData provided externally (useful if the underlying ERC20 contract doesn't expose name or decimals)",
        "params": {
          "_aTokenName": "the name of the aToken contract",
          "_aTokenSymbol": "the symbol of the aToken contract",
          "_interestRateStrategyAddress": "the address of the interest rate strategy contract for this reserve*",
          "_reserve": "the address of the reserve to be initialized",
          "_underlyingAssetDecimals": "the decimals of the reserve underlying asset"
        }
      },
      "refreshLendingPoolCoreConfiguration()": {
        "details": "refreshes the lending pool core configuration to update the cached address*"
      },
      "removeLastAddedReserve(address)": {
        "details": "removes the last added reserve in the list of the reserves",
        "params": {
          "_reserveToRemove": "the address of the reserve*"
        }
      },
      "setReserveBaseLTVasCollateral(address,uint256)": {
        "details": "emitted when a reserve loan to value is updated",
        "params": {
          "_ltv": "the new value for the loan to value*",
          "_reserve": "the address of the reserve"
        }
      },
      "setReserveDecimals(address,uint256)": {
        "details": "updates the reserve decimals",
        "params": {
          "_decimals": "the new number of decimals*",
          "_reserve": "the address of the reserve"
        }
      },
      "setReserveInterestRateStrategyAddress(address,address)": {
        "details": "sets the interest rate strategy of a reserve",
        "params": {
          "_rateStrategyAddress": "the new address of the interest strategy contract*",
          "_reserve": "the address of the reserve"
        }
      },
      "setReserveLiquidationBonus(address,uint256)": {
        "details": "updates the liquidation bonus of a reserve",
        "params": {
          "_bonus": "the new value for the liquidation bonus*",
          "_reserve": "the address of the reserve"
        }
      },
      "setReserveLiquidationThreshold(address,uint256)": {
        "details": "updates the liquidation threshold of a reserve.",
        "params": {
          "_reserve": "the address of the reserve",
          "_threshold": "the new value for the liquidation threshold*"
        }
      },
      "unfreezeReserve(address)": {
        "details": "unfreezes a reserve",
        "params": {
          "_reserve": "the address of the reserve*"
        }
      }
    },
    "title": "LendingPoolConfigurator contract"
  },
  "userdoc": {
    "methods": {},
    "notice": "Executes configuration methods on the LendingPoolCore contract. Allows to enable/disable reserves, and set different protocol parameters.*"
  }
}