{
  "contractName": "LendingPoolLiquidationManager",
  "abi": [
    {
      "constant": true,
      "inputs": [],
      "name": "addressesProvider",
      "outputs": [
        {
          "name": "",
          "type": "address"
        }
      ],
      "payable": false,
      "stateMutability": "view",
      "type": "function"
    },
    {
      "anonymous": false,
      "inputs": [
        {
          "indexed": true,
          "name": "_collateral",
          "type": "address"
        },
        {
          "indexed": true,
          "name": "_reserve",
          "type": "address"
        },
        {
          "indexed": true,
          "name": "_user",
          "type": "address"
        },
        {
          "indexed": false,
          "name": "_feeLiquidated",
          "type": "uint256"
        },
        {
          "indexed": false,
          "name": "_liquidatedCollateralForFee",
          "type": "uint256"
        },
        {
          "indexed": false,
          "name": "_timestamp",
          "type": "uint256"
        }
      ],
      "name": "OriginationFeeLiquidated",
      "type": "event"
    },
    {
      "anonymous": false,
      "inputs": [
        {
          "indexed": true,
          "name": "_collateral",
          "type": "address"
        },
        {
          "indexed": true,
          "name": "_reserve",
          "type": "address"
        },
        {
          "indexed": true,
          "name": "_user",
          "type": "address"
        },
        {
          "indexed": false,
          "name": "_purchaseAmount",
          "type": "uint256"
        },
        {
          "indexed": false,
          "name": "_liquidatedCollateralAmount",
          "type": "uint256"
        },
        {
          "indexed": false,
          "name": "_accruedBorrowInterest",
          "type": "uint256"
        },
        {
          "indexed": false,
          "name": "_liquidator",
          "type": "address"
        },
        {
          "indexed": false,
          "name": "_receiveAToken",
          "type": "bool"
        },
        {
          "indexed": false,
          "name": "_timestamp",
          "type": "uint256"
        }
      ],
      "name": "LiquidationCall",
      "type": "event"
    },
    {
      "constant": false,
      "inputs": [
        {
          "name": "_collateral",
          "type": "address"
        },
        {
          "name": "_reserve",
          "type": "address"
        },
        {
          "name": "_user",
          "type": "address"
        },
        {
          "name": "_purchaseAmount",
          "type": "uint256"
        },
        {
          "name": "_receiveAToken",
          "type": "bool"
        }
      ],
      "name": "liquidationCall",
      "outputs": [
        {
          "name": "",
          "type": "uint256"
        },
        {
          "name": "",
          "type": "string"
        }
      ],
      "payable": true,
      "stateMutability": "payable",
      "type": "function"
    }
  ],
  "bytecode": "0x608060405260006001818155815460ff191617905561134b806100236000396000f3fe6080604052600436106100285760003560e01c8062a718a91461002d578063c72c4d10146100f0575b600080fd5b610071600480360360a081101561004357600080fd5b506001600160a01b038135811691602081013582169160408201351690606081013590608001351515610121565b6040518083815260200180602001828103825283818151815260200191508051906020019080838360005b838110156100b457818101518382015260200161009c565b50505050905090810190601f1680156100e15780820380516001836020036101000a031916815260200191505b50935050505060405180910390f35b3480156100fc57600080fd5b50610105610cf8565b604080516001600160a01b039092168252519081900360200190f35b6000606061012d611198565b60375460408051600160e01b632c6d0e9b0281526001600160a01b03898116600483015291519190921691632c6d0e9b91602480830192610100929190829003018186803b15801561017e57600080fd5b505afa158015610192573d6000803e3d6000fd5b505050506040513d6101008110156101a957600080fd5b5060e0015115156101e082018190526101e15760046040518060600160405280602881526020016112ce602891399250925050610cee565b60365460408051600160e11b630c526de50281526001600160a01b038b811660048301528981166024830152915191909216916318a4dbca916044808301926020929190829003018186803b15801561023957600080fd5b505afa15801561024d573d6000803e3d6000fd5b505050506040513d602081101561026357600080fd5b505180825215156102ad57505060408051808201909152601f81527f496e76616c696420636f6c6c61746572616c20746f206c697175696461746500602082015260019150610cee565b60365460408051600160e11b630c7cddd70281526001600160a01b038b81166004830152915191909216916318f9bbae916024808301926020929190829003018186803b1580156102fd57600080fd5b505afa158015610311573d6000803e3d6000fd5b505050506040513d602081101561032757600080fd5b505180156103b5575060365460408051600160e01b639e3c4f3b0281526001600160a01b038b81166004830152898116602483015291519190921691639e3c4f3b916044808301926020929190829003018186803b15801561038857600080fd5b505afa15801561039c573d6000803e3d6000fd5b505050506040513d60208110156103b257600080fd5b50515b15156101c082018190526103e85760026040518060600160405280602a81526020016112a4602a91399250925050610cee565b60365460408051600160e01b639fb8afcd0281526001600160a01b038a81166004830152898116602483015291519190921691639fb8afcd916044808301926060929190829003018186803b15801561044057600080fd5b505afa158015610454573d6000803e3d6000fd5b505050506040513d606081101561046a57600080fd5b5060208082015160409283015192840192909252820181905215156104ae5760036040518060600160405280602a81526020016112f6602a91399250925050610cee565b6104d760646104cb60328460200151610d0790919063ffffffff16565b9063ffffffff610d7016565b6060820181905285116104ea57846104f0565b80606001515b608082018190528151600091829161050c918c918c9190610db2565b60365460408051600160e21b633faacc6b0281526001600160a01b038e811660048301528d811660248301529151949650929450169163feab31ac91604480820192602092909190829003018186803b15801561056857600080fd5b505afa15801561057c573d6000803e3d6000fd5b505050506040513d602081101561059257600080fd5b50516101208401819052156105d5576105c88a8a8561012001516105c386886000015161104f90919063ffffffff16565b610db2565b6101408501526101608401525b82608001518110156105e957608083018190525b8515156106a45760365460408051600160e01b63e24030190281526001600160a01b038d811660048301529151600093929092169163e240301991602480820192602092909190829003018186803b15801561064457600080fd5b505afa158015610658573d6000803e3d6000fd5b505050506040513d602081101561066e57600080fd5b50519050828110156106a2576005604051806060016040528060338152602001611271603391399550955050505050610cee565b505b603660009054906101000a90046001600160a01b03166001600160a01b03166368beb4d68a8c8b8760800151878961014001518a61016001518b604001518f6040518a63ffffffff1660e01b8152600401808a6001600160a01b03166001600160a01b03168152602001896001600160a01b03166001600160a01b03168152602001886001600160a01b03166001600160a01b03168152602001878152602001868152602001858152602001848152602001838152602001821515151581526020019950505050505050505050600060405180830381600087803b15801561078b57600080fd5b505af115801561079f573d6000803e3d6000fd5b505060365460408051600160e11b631a59df770281526001600160a01b038f811660048301529151600095509190921692506334b3beee91602480820192602092909190829003018186803b1580156107f757600080fd5b505afa15801561080b573d6000803e3d6000fd5b505050506040513d602081101561082157600080fd5b5051905086156108a35760408051600160e01b63f866c3190281526001600160a01b038b811660048301523360248301526044820186905291519183169163f866c3199160648082019260009290919082900301818387803b15801561088657600080fd5b505af115801561089a573d6000803e3d6000fd5b505050506109c3565b806001600160a01b0316633edb7cb88a856040518363ffffffff1660e01b815260040180836001600160a01b03166001600160a01b0316815260200182815260200192505050600060405180830381600087803b15801561090357600080fd5b505af1158015610917573d6000803e3d6000fd5b50505050603660009054906101000a90046001600160a01b03166001600160a01b031663fa93b2a58c33866040518463ffffffff1660e01b815260040180846001600160a01b03166001600160a01b03168152602001836001600160a01b03166001600160a01b031681526020018281526020019350505050600060405180830381600087803b1580156109aa57600080fd5b505af11580156109be573d6000803e3d6000fd5b505050505b603654608085015160408051600160e01b6328fcf4d30281526001600160a01b038e811660048301523360248301526044820193909352905191909216916328fcf4d391349160648082019260009290919082900301818588803b158015610a2a57600080fd5b505af1158015610a3e573d6000803e3d6000fd5b505050505060008461014001511115610c4c57806001600160a01b0316633edb7cb88a8661016001516040518363ffffffff1660e01b815260040180836001600160a01b03166001600160a01b0316815260200182815260200192505050600060405180830381600087803b158015610ab657600080fd5b505af1158015610aca573d6000803e3d6000fd5b50505050603660009054906101000a90046001600160a01b03166001600160a01b0316638f385c228c866101600151603560009054906101000a90046001600160a01b03166001600160a01b031663ee8912966040518163ffffffff1660e01b815260040160206040518083038186803b158015610b4757600080fd5b505afa158015610b5b573d6000803e3d6000fd5b505050506040513d6020811015610b7157600080fd5b50516040805163ffffffff861660e01b81526001600160a01b0394851660048201526024810193909352921660448201529051606480830192600092919082900301818387803b158015610bc457600080fd5b505af1158015610bd8573d6000803e3d6000fd5b50505050886001600160a01b03168a6001600160a01b03168c6001600160a01b03167f36ca8b16d61dc13b1062adff83e3778ab92d14f9e35bfe9fd1283e02b13fb0a18761014001518861016001514260405180848152602001838152602001828152602001935050505060405180910390a45b60808085015160408087015181519283526020830187905282820152336060830152891515928201929092524260a082015290516001600160a01b03808c16928d821692918f16917f56864757fd5b1fc9f38f5f3a981cd8ae512ce41b902cf73fc506ee369c6bc2379181900360c00190a46000604051806040016040528060098152602001600160b81b684e6f206572726f72730281525095509550505050505b9550959350505050565b6035546001600160a01b031681565b6000821515610d1857506000610d6a565b828202828482811515610d2757fe5b0414610d6757604051600160e51b62461bcd0281526004018080602001828103825260218152602001806112506021913960400191505060405180910390fd5b90505b92915050565b6000610d6783836040518060400160405280601a81526020017f536166654d6174683a206469766973696f6e206279207a65726f000000000000815250611091565b60355460408051600160e31b631f94a2750281529051600092839283926001600160a01b039092169163fca513a891600480820192602092909190829003018186803b158015610e0157600080fd5b505afa158015610e15573d6000803e3d6000fd5b505050506040513d6020811015610e2b57600080fd5b50519050610e37611220565b816001600160a01b031663b3596f07896040518263ffffffff1660e01b815260040180826001600160a01b03166001600160a01b0316815260200191505060206040518083038186803b158015610e8d57600080fd5b505afa158015610ea1573d6000803e3d6000fd5b505050506040513d6020811015610eb757600080fd5b50516040808301919091528051600160e01b63b3596f070281526001600160a01b03898116600483015291519184169163b3596f0791602480820192602092909190829003018186803b158015610f0d57600080fd5b505afa158015610f21573d6000803e3d6000fd5b505050506040513d6020811015610f3757600080fd5b5051606082015260365460408051600160e21b6331da9b270281526001600160a01b038b811660048301529151919092169163c76a6c9c916024808301926020929190829003018186803b158015610f8e57600080fd5b505afa158015610fa2573d6000803e3d6000fd5b505050506040513d6020811015610fb857600080fd5b50516020820181905260408201516060830151610ff5926064926104cb92610fe9919084908d63ffffffff610d0716565b9063ffffffff610d0716565b608082018190528510156110395784935061103281602001516104cb6064610fe985606001516104cb8a8860400151610d0790919063ffffffff16565b9250611044565b806080015193508592505b505094509492505050565b6000610d6783836040518060400160405280601e81526020017f536166654d6174683a207375627472616374696f6e206f766572666c6f77000081525061113a565b60008183151561112257604051600160e51b62461bcd0281526004018080602001828103825283818151815260200191508051906020019080838360005b838110156110e75781810151838201526020016110cf565b50505050905090810190601f1680156111145780820380516001836020036101000a031916815260200191505b509250505060405180910390fd5b506000838581151561113057fe5b0495945050505050565b6000818484111561119057604051600160e51b62461bcd028152600401808060200182810382528381815181526020019150805190602001908083836000838110156110e75781810151838201526020016110cf565b505050900390565b6040518061020001604052806000815260200160008152602001600081526020016000815260200160008152602001600081526020016000815260200160008152602001600081526020016000815260200160008152602001600081526020016000600281111561120557fe5b81526000602082018190526040820181905260609091015290565b6040518060a001604052806000815260200160008152602001600081526020016000815260200160008152509056fe536166654d6174683a206d756c7469706c69636174696f6e206f766572666c6f7754686572652069736e277420656e6f756768206c697175696469747920617661696c61626c6520746f206c697175696461746554686520636f6c6c61746572616c2063686f73656e2063616e6e6f74206265206c6971756964617465644865616c746820666163746f72206973206e6f742062656c6f7720746865207468726573686f6c645573657220646964206e6f7420626f72726f7720746865207370656369666965642063757272656e6379a165627a7a72305820b64c9fb83ccdb98dc5fc282452c9c3ae9cce3e32af302f59854a9d255c1637120029",
  "source": "pragma solidity ^0.5.0;\n\nimport \"openzeppelin-solidity/contracts/math/SafeMath.sol\";\nimport \"openzeppelin-solidity/contracts/utils/ReentrancyGuard.sol\";\nimport \"openzeppelin-solidity/contracts/utils/Address.sol\";\nimport \"openzeppelin-solidity/contracts/utils/ReentrancyGuard.sol\";\nimport \"../libraries/openzeppelin-upgradeability/VersionedInitializable.sol\";\n\nimport \"../configuration/LendingPoolAddressesProvider.sol\";\nimport \"../configuration/LendingPoolParametersProvider.sol\";\nimport \"../tokenization/AToken.sol\";\nimport \"../libraries/CoreLibrary.sol\";\nimport \"../libraries/WadRayMath.sol\";\nimport \"./LendingPoolCore.sol\";\nimport \"./LendingPoolDataProvider.sol\";\nimport \"../interfaces/IPriceOracleGetter.sol\";\n\n/**\n* @title LendingPoolLiquidationManager contract\n* @author Aave\n* @notice Implements the liquidation function.\n**/\ncontract LendingPoolLiquidationManager is ReentrancyGuard, VersionedInitializable {\n    using SafeMath for uint256;\n    using WadRayMath for uint256;\n    using Address for address;\n\n    LendingPoolAddressesProvider public addressesProvider;\n    LendingPoolCore core;\n    LendingPoolDataProvider dataProvider;\n    LendingPoolParametersProvider parametersProvider;\n    IFeeProvider feeProvider;\n    address ethereumAddress;\n\n    uint256 constant LIQUIDATION_CLOSE_FACTOR_PERCENT = 50;\n\n    /**\n    * @dev emitted when a borrow fee is liquidated\n    * @param _collateral the address of the collateral being liquidated\n    * @param _reserve the address of the reserve\n    * @param _user the address of the user being liquidated\n    * @param _feeLiquidated the total fee liquidated\n    * @param _liquidatedCollateralForFee the amount of collateral received by the protocol in exchange for the fee\n    * @param _timestamp the timestamp of the action\n    **/\n    event OriginationFeeLiquidated(\n        address indexed _collateral,\n        address indexed _reserve,\n        address indexed _user,\n        uint256 _feeLiquidated,\n        uint256 _liquidatedCollateralForFee,\n        uint256 _timestamp\n    );\n\n    /**\n    * @dev emitted when a borrower is liquidated\n    * @param _collateral the address of the collateral being liquidated\n    * @param _reserve the address of the reserve\n    * @param _user the address of the user being liquidated\n    * @param _purchaseAmount the total amount liquidated\n    * @param _liquidatedCollateralAmount the amount of collateral being liquidated\n    * @param _accruedBorrowInterest the amount of interest accrued by the borrower since the last action\n    * @param _liquidator the address of the liquidator\n    * @param _receiveAToken true if the liquidator wants to receive aTokens, false otherwise\n    * @param _timestamp the timestamp of the action\n    **/\n    event LiquidationCall(\n        address indexed _collateral,\n        address indexed _reserve,\n        address indexed _user,\n        uint256 _purchaseAmount,\n        uint256 _liquidatedCollateralAmount,\n        uint256 _accruedBorrowInterest,\n        address _liquidator,\n        bool _receiveAToken,\n        uint256 _timestamp\n    );\n\n    enum LiquidationErrors {\n        NO_ERROR,\n        NO_COLLATERAL_AVAILABLE,\n        COLLATERAL_CANNOT_BE_LIQUIDATED,\n        CURRRENCY_NOT_BORROWED,\n        HEALTH_FACTOR_ABOVE_THRESHOLD,\n        NOT_ENOUGH_LIQUIDITY\n    }\n\n    struct LiquidationCallLocalVars {\n        uint256 userCollateralBalance;\n        uint256 userCompoundedBorrowBalance;\n        uint256 borrowBalanceIncrease;\n        uint256 maxPrincipalAmountToLiquidate;\n        uint256 actualAmountToLiquidate;\n        uint256 liquidationRatio;\n        uint256 collateralPrice;\n        uint256 principalCurrencyPrice;\n        uint256 maxAmountCollateralToLiquidate;\n        uint256 originationFee;\n        uint256 feeLiquidated;\n        uint256 liquidatedCollateralForFee;\n        CoreLibrary.InterestRateMode borrowRateMode;\n        uint256 userStableRate;\n        bool isCollateralEnabled;\n        bool healthFactorBelowThreshold;\n    }\n\n    /**\n    * @dev as the contract extends the VersionedInitializable contract to match the state\n    * of the LendingPool contract, the getRevision() function is needed.\n    */\n    function getRevision() internal pure returns (uint256) {\n        return 0;\n    }\n\n    /**\n    * @dev users can invoke this function to liquidate an undercollateralized position.\n    * @param _reserve the address of the collateral to liquidated\n    * @param _reserve the address of the principal reserve\n    * @param _user the address of the borrower\n    * @param _purchaseAmount the amount of principal that the liquidator wants to repay\n    * @param _receiveAToken true if the liquidators wants to receive the aTokens, false if\n    * he wants to receive the underlying asset directly\n    **/\n    function liquidationCall(\n        address _collateral,\n        address _reserve,\n        address _user,\n        uint256 _purchaseAmount,\n        bool _receiveAToken\n    ) external payable returns (uint256, string memory) {\n        // Usage of a memory struct of vars to avoid \"Stack too deep\" errors due to local variables\n        LiquidationCallLocalVars memory vars;\n\n        (, , , , , , , vars.healthFactorBelowThreshold) = dataProvider.calculateUserGlobalData(\n            _user\n        );\n\n        if (!vars.healthFactorBelowThreshold) {\n            return (\n                uint256(LiquidationErrors.HEALTH_FACTOR_ABOVE_THRESHOLD),\n                \"Health factor is not below the threshold\"\n            );\n        }\n\n        vars.userCollateralBalance = core.getUserUnderlyingAssetBalance(_collateral, _user);\n\n        //if _user hasn't deposited this specific collateral, nothing can be liquidated\n        if (vars.userCollateralBalance == 0) {\n            return (\n                uint256(LiquidationErrors.NO_COLLATERAL_AVAILABLE),\n                \"Invalid collateral to liquidate\"\n            );\n        }\n\n        vars.isCollateralEnabled =\n            core.isReserveUsageAsCollateralEnabled(_collateral) &&\n            core.isUserUseReserveAsCollateralEnabled(_collateral, _user);\n\n        //if _collateral isn't enabled as collateral by _user, it cannot be liquidated\n        if (!vars.isCollateralEnabled) {\n            return (\n                uint256(LiquidationErrors.COLLATERAL_CANNOT_BE_LIQUIDATED),\n                \"The collateral chosen cannot be liquidated\"\n            );\n        }\n\n        //if the user hasn't borrowed the specific currency defined by _reserve, it cannot be liquidated\n        (, vars.userCompoundedBorrowBalance, vars.borrowBalanceIncrease) = core\n            .getUserBorrowBalances(_reserve, _user);\n\n        if (vars.userCompoundedBorrowBalance == 0) {\n            return (\n                uint256(LiquidationErrors.CURRRENCY_NOT_BORROWED),\n                \"User did not borrow the specified currency\"\n            );\n        }\n\n        //all clear - calculate the max principal amount that can be liquidated\n        vars.maxPrincipalAmountToLiquidate = vars\n            .userCompoundedBorrowBalance\n            .mul(LIQUIDATION_CLOSE_FACTOR_PERCENT)\n            .div(100);\n\n        vars.actualAmountToLiquidate = _purchaseAmount > vars.maxPrincipalAmountToLiquidate\n            ? vars.maxPrincipalAmountToLiquidate\n            : _purchaseAmount;\n\n        (uint256 maxCollateralToLiquidate, uint256 principalAmountNeeded) = calculateAvailableCollateralToLiquidate(\n            _collateral,\n            _reserve,\n            vars.actualAmountToLiquidate,\n            vars.userCollateralBalance\n        );\n\n        vars.originationFee = core.getUserOriginationFee(_reserve, _user);\n\n        //if there is a fee to liquidate, calculate the maximum amount of fee that can be liquidated\n        if (vars.originationFee > 0) {\n            (\n                vars.liquidatedCollateralForFee,\n                vars.feeLiquidated\n            ) = calculateAvailableCollateralToLiquidate(\n                _collateral,\n                _reserve,\n                vars.originationFee,\n                vars.userCollateralBalance.sub(maxCollateralToLiquidate)\n            );\n        }\n\n        //if principalAmountNeeded < vars.ActualAmountToLiquidate, there isn't enough\n        //of _collateral to cover the actual amount that is being liquidated, hence we liquidate\n        //a smaller amount\n\n        if (principalAmountNeeded < vars.actualAmountToLiquidate) {\n            vars.actualAmountToLiquidate = principalAmountNeeded;\n        }\n\n        //if liquidator reclaims the underlying asset, we make sure there is enough available collateral in the reserve\n        if (!_receiveAToken) {\n            uint256 currentAvailableCollateral = core.getReserveAvailableLiquidity(_collateral);\n            if (currentAvailableCollateral < maxCollateralToLiquidate) {\n                return (\n                    uint256(LiquidationErrors.NOT_ENOUGH_LIQUIDITY),\n                    \"There isn't enough liquidity available to liquidate\"\n                );\n            }\n        }\n\n        core.updateStateOnLiquidation(\n            _reserve,\n            _collateral,\n            _user,\n            vars.actualAmountToLiquidate,\n            maxCollateralToLiquidate,\n            vars.feeLiquidated,\n            vars.liquidatedCollateralForFee,\n            vars.borrowBalanceIncrease,\n            _receiveAToken\n        );\n\n        AToken collateralAtoken = AToken(core.getReserveATokenAddress(_collateral));\n\n        //if liquidator reclaims the aToken, he receives the equivalent atoken amount\n        if (_receiveAToken) {\n            collateralAtoken.transferOnLiquidation(_user, msg.sender, maxCollateralToLiquidate);\n        } else {\n            //otherwise receives the underlying asset\n            //burn the equivalent amount of atoken\n            collateralAtoken.burnOnLiquidation(_user, maxCollateralToLiquidate);\n            core.transferToUser(_collateral, msg.sender, maxCollateralToLiquidate);\n        }\n\n        //transfers the principal currency to the pool\n        core.transferToReserve.value(msg.value)(_reserve, msg.sender, vars.actualAmountToLiquidate);\n\n        if (vars.feeLiquidated > 0) {\n            //if there is enough collateral to liquidate the fee, first transfer burn an equivalent amount of\n            //aTokens of the user\n            collateralAtoken.burnOnLiquidation(_user, vars.liquidatedCollateralForFee);\n\n            //then liquidate the fee by transferring it to the fee collection address\n            core.liquidateFee(\n                _collateral,\n                vars.liquidatedCollateralForFee,\n                addressesProvider.getTokenDistributor()\n            );\n\n            emit OriginationFeeLiquidated(\n                _collateral,\n                _reserve,\n                _user,\n                vars.feeLiquidated,\n                vars.liquidatedCollateralForFee,\n                //solium-disable-next-line\n                block.timestamp\n            );\n\n        }\n        emit LiquidationCall(\n            _collateral,\n            _reserve,\n            _user,\n            vars.actualAmountToLiquidate,\n            maxCollateralToLiquidate,\n            vars.borrowBalanceIncrease,\n            msg.sender,\n            _receiveAToken,\n            //solium-disable-next-line\n            block.timestamp\n        );\n\n        return (uint256(LiquidationErrors.NO_ERROR), \"No errors\");\n    }\n\n    struct AvailableCollateralToLiquidateLocalVars {\n        uint256 userCompoundedBorrowBalance;\n        uint256 liquidationBonus;\n        uint256 collateralPrice;\n        uint256 principalCurrencyPrice;\n        uint256 maxAmountCollateralToLiquidate;\n    }\n\n    /**\n    * @dev calculates how much of a specific collateral can be liquidated, given\n    * a certain amount of principal currency. This function needs to be called after\n    * all the checks to validate the liquidation have been performed, otherwise it might fail.\n    * @param _collateral the collateral to be liquidated\n    * @param _principal the principal currency to be liquidated\n    * @param _purchaseAmount the amount of principal being liquidated\n    * @param _userCollateralBalance the collatera balance for the specific _collateral asset of the user being liquidated\n    * @return the maximum amount that is possible to liquidated given all the liquidation constraints (user balance, close factor) and\n    * the purchase amount\n    **/\n    function calculateAvailableCollateralToLiquidate(\n        address _collateral,\n        address _principal,\n        uint256 _purchaseAmount,\n        uint256 _userCollateralBalance\n    ) internal view returns (uint256 collateralAmount, uint256 principalAmountNeeded) {\n        collateralAmount = 0;\n        principalAmountNeeded = 0;\n        IPriceOracleGetter oracle = IPriceOracleGetter(addressesProvider.getPriceOracle());\n\n        // Usage of a memory struct of vars to avoid \"Stack too deep\" errors due to local variables\n        AvailableCollateralToLiquidateLocalVars memory vars;\n\n        vars.collateralPrice = oracle.getAssetPrice(_collateral);\n        vars.principalCurrencyPrice = oracle.getAssetPrice(_principal);\n        vars.liquidationBonus = core.getReserveLiquidationBonus(_collateral);\n\n        //this is the maximum possible amount of the selected collateral that can be liquidated, given the\n        //max amount of principal currency that is available for liquidation.\n        vars.maxAmountCollateralToLiquidate = vars\n            .principalCurrencyPrice\n            .mul(_purchaseAmount)\n            .div(vars.collateralPrice)\n            .mul(vars.liquidationBonus)\n            .div(100);\n\n        if (vars.maxAmountCollateralToLiquidate > _userCollateralBalance) {\n            collateralAmount = _userCollateralBalance;\n            principalAmountNeeded = vars\n                .collateralPrice\n                .mul(collateralAmount)\n                .div(vars.principalCurrencyPrice)\n                .mul(100)\n                .div(vars.liquidationBonus);\n        } else {\n            collateralAmount = vars.maxAmountCollateralToLiquidate;\n            principalAmountNeeded = _purchaseAmount;\n        }\n\n        return (collateralAmount, principalAmountNeeded);\n    }\n}\n",
  "sourcePath": "/Users/rongjianlan/workspace/go/src/github.com/harmony-one/aave-protocol/contracts/lendingpool/LendingPoolLiquidationManager.sol",
  "compiler": {
    "name": "solc",
    "version": "0.5.5+commit.47a71e8f.Emscripten.clang"
  },
  "schemaVersion": "3.2.0",
  "updatedAt": "2020-08-09T08:55:40.349Z",
  "devdoc": {
    "author": "Aave",
    "methods": {
      "liquidationCall(address,address,address,uint256,bool)": {
        "details": "users can invoke this function to liquidate an undercollateralized position.",
        "params": {
          "_purchaseAmount": "the amount of principal that the liquidator wants to repay",
          "_receiveAToken": "true if the liquidators wants to receive the aTokens, false if he wants to receive the underlying asset directly*",
          "_reserve": "the address of the principal reserve",
          "_user": "the address of the borrower"
        }
      }
    },
    "title": "LendingPoolLiquidationManager contract"
  },
  "userdoc": {
    "methods": {},
    "notice": "Implements the liquidation function.*"
  }
}