{
  "contractName": "MockFlashLoanReceiver",
  "abi": [
    {
      "constant": true,
      "inputs": [],
      "name": "addressesProvider",
      "outputs": [
        {
          "name": "",
          "type": "address"
        }
      ],
      "payable": false,
      "stateMutability": "view",
      "type": "function"
    },
    {
      "inputs": [
        {
          "name": "_provider",
          "type": "address"
        }
      ],
      "payable": false,
      "stateMutability": "nonpayable",
      "type": "constructor"
    },
    {
      "payable": true,
      "stateMutability": "payable",
      "type": "fallback"
    },
    {
      "anonymous": false,
      "inputs": [
        {
          "indexed": false,
          "name": "_reserve",
          "type": "address"
        },
        {
          "indexed": false,
          "name": "_amount",
          "type": "uint256"
        },
        {
          "indexed": false,
          "name": "_fee",
          "type": "uint256"
        }
      ],
      "name": "ExecutedWithFail",
      "type": "event"
    },
    {
      "anonymous": false,
      "inputs": [
        {
          "indexed": false,
          "name": "_reserve",
          "type": "address"
        },
        {
          "indexed": false,
          "name": "_amount",
          "type": "uint256"
        },
        {
          "indexed": false,
          "name": "_fee",
          "type": "uint256"
        }
      ],
      "name": "ExecutedWithSuccess",
      "type": "event"
    },
    {
      "constant": false,
      "inputs": [
        {
          "name": "_fail",
          "type": "bool"
        }
      ],
      "name": "setFailExecutionTransfer",
      "outputs": [],
      "payable": false,
      "stateMutability": "nonpayable",
      "type": "function"
    },
    {
      "constant": false,
      "inputs": [
        {
          "name": "_reserve",
          "type": "address"
        },
        {
          "name": "_amount",
          "type": "uint256"
        },
        {
          "name": "_fee",
          "type": "uint256"
        },
        {
          "name": "_params",
          "type": "bytes"
        }
      ],
      "name": "executeOperation",
      "outputs": [],
      "payable": false,
      "stateMutability": "nonpayable",
      "type": "function"
    }
  ],
  "bytecode": "0x608060405260008054600160a01b60ff021916905534801561002057600080fd5b506040516020806108ce8339810180604052602081101561004057600080fd5b5051600080546001600160a01b039092166001600160a01b031990921691909117905561085c806100726000396000f3fe6080604052600436106100345760003560e01c8063388f70f114610036578063c72c4d1014610062578063ee87255814610093575b005b34801561004257600080fd5b506100346004803603602081101561005957600080fd5b50351515610162565b34801561006e57600080fd5b50610077610191565b604080516001600160a01b039092168252519081900360200190f35b34801561009f57600080fd5b50610034600480360360808110156100b657600080fd5b6001600160a01b0382351691602081013591604082013591908101906080810160608201356401000000008111156100ed57600080fd5b8201836020820111156100ff57600080fd5b8035906020019184600183028401116401000000008311171561012157600080fd5b91908080601f0160208091040260200160405190810160405280939291908181526020018383808284376000920191909152509295506101a0945050505050565b60008054911515600160a01b0274ff000000000000000000000000000000000000000019909216919091179055565b6000546001600160a01b031681565b836101ab3082610360565b8411156102025760408051600160e51b62461bcd02815260206004820181905260248201527f496e76616c69642062616c616e636520666f722074686520636f6e7472616374604482015290519081900360640190fd5b600054600160a01b900460ff161561026357604080516001600160a01b03871681526020810186905280820185905290517f816f6a6bc084e1996be1a831afa1af30763d0501b6b43b9e1922a11f347366d79181900360600190a15061035a565b61026b61041f565b6001600160a01b0316856001600160a01b0316146102f657806001600160a01b031663a0712d68846040518263ffffffff1660e01b815260040180828152602001915050602060405180830381600087803b1580156102c957600080fd5b505af11580156102dd573d6000803e3d6000fd5b505050506040513d60208110156102f357600080fd5b50505b61030f8561030a868663ffffffff61043716565b61049b565b604080516001600160a01b03871681526020810186905280820185905290517f7d94e9d0c906b8d7b2b52a581b9e9ba728aa6f8cd8532bd87243d193f47401be9181900360600190a1505b50505050565b600061036a61041f565b6001600160a01b0316826001600160a01b0316141561039457506001600160a01b03821631610419565b816001600160a01b03166370a08231846040518263ffffffff1660e01b815260040180826001600160a01b03166001600160a01b0316815260200191505060206040518083038186803b1580156103ea57600080fd5b505afa1580156103fe573d6000803e3d6000fd5b505050506040513d602081101561041457600080fd5b505190505b92915050565b73eeeeeeeeeeeeeeeeeeeeeeeeeeeeeeeeeeeeeeee90565b6000828201838110156104945760408051600160e51b62461bcd02815260206004820152601b60248201527f536166654d6174683a206164646974696f6e206f766572666c6f770000000000604482015290519081900360640190fd5b9392505050565b60008060009054906101000a90046001600160a01b03166001600160a01b031663ed6ff7606040518163ffffffff1660e01b815260040160206040518083038186803b1580156104ea57600080fd5b505afa1580156104fe573d6000803e3d6000fd5b505050506040513d602081101561051457600080fd5b50519050610523818484610528565b505050565b61053061041f565b6001600160a01b0316826001600160a01b0316141561059f576040516001600160a01b038416908290600081818185875af1925050503d8060008114610592576040519150601f19603f3d011682016040523d82523d6000602084013e610597565b606091505b505050610523565b6105236001600160a01b038316848363ffffffff6105b916565b604080516001600160a01b038416602482015260448082018490528251808303909101815260649091019091526020810180516001600160e01b0316600160e01b63a9059cbb0217905261052390849061061b826001600160a01b03166107ca565b61066f5760408051600160e51b62461bcd02815260206004820152601f60248201527f5361666545524332303a2063616c6c20746f206e6f6e2d636f6e747261637400604482015290519081900360640190fd5b60006060836001600160a01b0316836040518082805190602001908083835b602083106106ad5780518252601f19909201916020918201910161068e565b6001836020036101000a0380198251168184511680821785525050505050509050019150506000604051808303816000865af19150503d806000811461070f576040519150601f19603f3d011682016040523d82523d6000602084013e610714565b606091505b50915091508161076e5760408051600160e51b62461bcd02815260206004820181905260248201527f5361666545524332303a206c6f772d6c6576656c2063616c6c206661696c6564604482015290519081900360640190fd5b80511561035a5780806020019051602081101561078a57600080fd5b505161035a57604051600160e51b62461bcd02815260040180806020018281038252602a815260200180610807602a913960400191505060405180910390fd5b6000813f7fc5d2460186f7233c927e7db2dcc703c0e500b653ca82273b7bfad8045d85a4708181148015906107fe57508115155b94935050505056fe5361666545524332303a204552433230206f7065726174696f6e20646964206e6f742073756363656564a165627a7a723058200dd07029455d4742f3a0d4f7e92c5c357b04951bc3e8c47e294feaf25bf202f60029",
  "source": "pragma solidity ^0.5.0;\n\nimport \"openzeppelin-solidity/contracts/math/SafeMath.sol\";\n\nimport \"../../flashloan/base/FlashLoanReceiverBase.sol\";\nimport \"../tokens/MintableERC20.sol\";\n\ncontract MockFlashLoanReceiver is FlashLoanReceiverBase {\n\n    using SafeMath for uint256;\n    event ExecutedWithFail(address _reserve, uint256 _amount, uint256 _fee);\n    event ExecutedWithSuccess(address _reserve, uint256 _amount, uint256 _fee);\n\n\n    bool failExecution = false;\n\n    constructor(ILendingPoolAddressesProvider _provider) FlashLoanReceiverBase(_provider)  public {\n    }\n\n    function setFailExecutionTransfer(bool _fail) public {\n        failExecution = _fail;\n    }\n\n    function executeOperation(\n        address _reserve,\n        uint256 _amount,\n        uint256 _fee,\n        bytes memory _params) public {\n        //mint to this contract the specific amount\n        MintableERC20 token = MintableERC20(_reserve);\n\n\n        //check the contract has the specified balance\n        require(_amount <= getBalanceInternal(address(this), _reserve), \"Invalid balance for the contract\");\n\n        if(failExecution) {\n            emit ExecutedWithFail(_reserve, _amount, _fee);\n            return;\n        }\n\n        //execution does not fail - mint tokens and return them to the _destination\n        //note: if the reserve is eth, the mock contract must receive at least _fee ETH before calling executeOperation\n\n        if(_reserve != EthAddressLib.ethAddress()) {\n            token.mint(_fee);\n        }\n        //returning amount + fee to the destination\n        transferFundsBackToPoolInternal(_reserve, _amount.add(_fee));\n        emit ExecutedWithSuccess(_reserve, _amount, _fee);\n    }\n}",
  "sourcePath": "/Users/rongjianlan/workspace/go/src/github.com/harmony-one/aave-protocol/contracts/mocks/flashloan/MockFlashLoanReceiver.sol",
  "compiler": {
    "name": "solc",
    "version": "0.5.8+commit.23d335f2.Emscripten.clang"
  },
  "schemaVersion": "3.2.0",
  "updatedAt": "2020-08-06T22:02:21.553Z",
  "devdoc": {
    "methods": {}
  },
  "userdoc": {
    "methods": {}
  }
}