{
  "contractName": "MockLendingPoolCore",
  "abi": [
    {
      "constant": true,
      "inputs": [
        {
          "name": "_reserve",
          "type": "address"
        }
      ],
      "name": "getReserveIsActive",
      "outputs": [
        {
          "name": "",
          "type": "bool"
        }
      ],
      "payable": false,
      "stateMutability": "view",
      "type": "function"
    },
    {
      "constant": true,
      "inputs": [],
      "name": "getReserves",
      "outputs": [
        {
          "name": "",
          "type": "address[]"
        }
      ],
      "payable": false,
      "stateMutability": "view",
      "type": "function"
    },
    {
      "constant": false,
      "inputs": [
        {
          "name": "_reserve",
          "type": "address"
        },
        {
          "name": "_availableLiquidityBefore",
          "type": "uint256"
        },
        {
          "name": "_income",
          "type": "uint256"
        },
        {
          "name": "_protocolFee",
          "type": "uint256"
        }
      ],
      "name": "updateStateOnFlashLoan",
      "outputs": [],
      "payable": false,
      "stateMutability": "nonpayable",
      "type": "function"
    },
    {
      "constant": true,
      "inputs": [],
      "name": "CORE_REVISION",
      "outputs": [
        {
          "name": "",
          "type": "uint256"
        }
      ],
      "payable": false,
      "stateMutability": "view",
      "type": "function"
    },
    {
      "constant": true,
      "inputs": [
        {
          "name": "_reserve",
          "type": "address"
        },
        {
          "name": "_user",
          "type": "address"
        }
      ],
      "name": "getUserUnderlyingAssetBalance",
      "outputs": [
        {
          "name": "",
          "type": "uint256"
        }
      ],
      "payable": false,
      "stateMutability": "view",
      "type": "function"
    },
    {
      "constant": true,
      "inputs": [
        {
          "name": "_reserve",
          "type": "address"
        }
      ],
      "name": "isReserveUsageAsCollateralEnabled",
      "outputs": [
        {
          "name": "",
          "type": "bool"
        }
      ],
      "payable": false,
      "stateMutability": "view",
      "type": "function"
    },
    {
      "constant": true,
      "inputs": [
        {
          "name": "_reserve",
          "type": "address"
        },
        {
          "name": "_user",
          "type": "address"
        }
      ],
      "name": "getUserCurrentBorrowRateMode",
      "outputs": [
        {
          "name": "",
          "type": "uint8"
        }
      ],
      "payable": false,
      "stateMutability": "view",
      "type": "function"
    },
    {
      "constant": false,
      "inputs": [
        {
          "name": "_reserve",
          "type": "address"
        },
        {
          "name": "_rateStrategyAddress",
          "type": "address"
        }
      ],
      "name": "setReserveInterestRateStrategyAddress",
      "outputs": [],
      "payable": false,
      "stateMutability": "nonpayable",
      "type": "function"
    },
    {
      "constant": false,
      "inputs": [
        {
          "name": "_reserve",
          "type": "address"
        },
        {
          "name": "_user",
          "type": "address"
        },
        {
          "name": "_amount",
          "type": "uint256"
        }
      ],
      "name": "transferToReserve",
      "outputs": [],
      "payable": true,
      "stateMutability": "payable",
      "type": "function"
    },
    {
      "constant": false,
      "inputs": [
        {
          "name": "_reserve",
          "type": "address"
        },
        {
          "name": "_threshold",
          "type": "uint256"
        }
      ],
      "name": "setReserveLiquidationThreshold",
      "outputs": [],
      "payable": false,
      "stateMutability": "nonpayable",
      "type": "function"
    },
    {
      "constant": true,
      "inputs": [
        {
          "name": "_reserve",
          "type": "address"
        }
      ],
      "name": "getReserveATokenAddress",
      "outputs": [
        {
          "name": "",
          "type": "address"
        }
      ],
      "payable": false,
      "stateMutability": "view",
      "type": "function"
    },
    {
      "constant": false,
      "inputs": [
        {
          "name": "_reserve",
          "type": "address"
        },
        {
          "name": "_user",
          "type": "address"
        },
        {
          "name": "_amountBorrowed",
          "type": "uint256"
        },
        {
          "name": "_borrowFee",
          "type": "uint256"
        },
        {
          "name": "_rateMode",
          "type": "uint8"
        }
      ],
      "name": "updateStateOnBorrow",
      "outputs": [
        {
          "name": "",
          "type": "uint256"
        },
        {
          "name": "",
          "type": "uint256"
        }
      ],
      "payable": false,
      "stateMutability": "nonpayable",
      "type": "function"
    },
    {
      "constant": false,
      "inputs": [
        {
          "name": "_reserve",
          "type": "address"
        }
      ],
      "name": "deactivateReserve",
      "outputs": [],
      "payable": false,
      "stateMutability": "nonpayable",
      "type": "function"
    },
    {
      "constant": false,
      "inputs": [
        {
          "name": "_reserve",
          "type": "address"
        },
        {
          "name": "_aTokenAddress",
          "type": "address"
        },
        {
          "name": "_decimals",
          "type": "uint256"
        },
        {
          "name": "_interestRateStrategyAddress",
          "type": "address"
        }
      ],
      "name": "initReserve",
      "outputs": [],
      "payable": false,
      "stateMutability": "nonpayable",
      "type": "function"
    },
    {
      "constant": true,
      "inputs": [
        {
          "name": "_reserve",
          "type": "address"
        }
      ],
      "name": "getReserveCurrentAverageStableBorrowRate",
      "outputs": [
        {
          "name": "",
          "type": "uint256"
        }
      ],
      "payable": false,
      "stateMutability": "view",
      "type": "function"
    },
    {
      "constant": true,
      "inputs": [
        {
          "name": "_reserve",
          "type": "address"
        }
      ],
      "name": "getReserveIsFreezed",
      "outputs": [
        {
          "name": "",
          "type": "bool"
        }
      ],
      "payable": false,
      "stateMutability": "view",
      "type": "function"
    },
    {
      "constant": true,
      "inputs": [
        {
          "name": "_reserve",
          "type": "address"
        }
      ],
      "name": "getReserveLastUpdate",
      "outputs": [
        {
          "name": "timestamp",
          "type": "uint40"
        }
      ],
      "payable": false,
      "stateMutability": "view",
      "type": "function"
    },
    {
      "constant": true,
      "inputs": [
        {
          "name": "",
          "type": "uint256"
        }
      ],
      "name": "reservesList",
      "outputs": [
        {
          "name": "",
          "type": "address"
        }
      ],
      "payable": false,
      "stateMutability": "view",
      "type": "function"
    },
    {
      "constant": true,
      "inputs": [
        {
          "name": "_reserve",
          "type": "address"
        }
      ],
      "name": "isReserveBorrowingEnabled",
      "outputs": [
        {
          "name": "",
          "type": "bool"
        }
      ],
      "payable": false,
      "stateMutability": "view",
      "type": "function"
    },
    {
      "constant": true,
      "inputs": [
        {
          "name": "_reserve",
          "type": "address"
        }
      ],
      "name": "getReserveConfiguration",
      "outputs": [
        {
          "name": "",
          "type": "uint256"
        },
        {
          "name": "",
          "type": "uint256"
        },
        {
          "name": "",
          "type": "uint256"
        },
        {
          "name": "",
          "type": "bool"
        }
      ],
      "payable": false,
      "stateMutability": "view",
      "type": "function"
    },
    {
      "constant": false,
      "inputs": [],
      "name": "refreshConfiguration",
      "outputs": [],
      "payable": false,
      "stateMutability": "nonpayable",
      "type": "function"
    },
    {
      "constant": false,
      "inputs": [
        {
          "name": "_reserve",
          "type": "address"
        },
        {
          "name": "_decimals",
          "type": "uint256"
        }
      ],
      "name": "setReserveDecimals",
      "outputs": [],
      "payable": false,
      "stateMutability": "nonpayable",
      "type": "function"
    },
    {
      "constant": true,
      "inputs": [
        {
          "name": "_reserve",
          "type": "address"
        },
        {
          "name": "_user",
          "type": "address"
        }
      ],
      "name": "getUserLastUpdate",
      "outputs": [
        {
          "name": "timestamp",
          "type": "uint256"
        }
      ],
      "payable": false,
      "stateMutability": "view",
      "type": "function"
    },
    {
      "constant": false,
      "inputs": [
        {
          "name": "_principalReserve",
          "type": "address"
        },
        {
          "name": "_collateralReserve",
          "type": "address"
        },
        {
          "name": "_user",
          "type": "address"
        },
        {
          "name": "_amountToLiquidate",
          "type": "uint256"
        },
        {
          "name": "_collateralToLiquidate",
          "type": "uint256"
        },
        {
          "name": "_feeLiquidated",
          "type": "uint256"
        },
        {
          "name": "_liquidatedCollateralForFee",
          "type": "uint256"
        },
        {
          "name": "_balanceIncrease",
          "type": "uint256"
        },
        {
          "name": "_liquidatorReceivesAToken",
          "type": "bool"
        }
      ],
      "name": "updateStateOnLiquidation",
      "outputs": [],
      "payable": false,
      "stateMutability": "nonpayable",
      "type": "function"
    },
    {
      "constant": true,
      "inputs": [
        {
          "name": "_reserve",
          "type": "address"
        }
      ],
      "name": "getReserveInterestRateStrategyAddress",
      "outputs": [
        {
          "name": "",
          "type": "address"
        }
      ],
      "payable": false,
      "stateMutability": "view",
      "type": "function"
    },
    {
      "constant": true,
      "inputs": [
        {
          "name": "_reserve",
          "type": "address"
        },
        {
          "name": "_user",
          "type": "address"
        }
      ],
      "name": "getUserCurrentStableBorrowRate",
      "outputs": [
        {
          "name": "",
          "type": "uint256"
        }
      ],
      "payable": false,
      "stateMutability": "view",
      "type": "function"
    },
    {
      "constant": false,
      "inputs": [
        {
          "name": "_reserve",
          "type": "address"
        },
        {
          "name": "_bonus",
          "type": "uint256"
        }
      ],
      "name": "setReserveLiquidationBonus",
      "outputs": [],
      "payable": false,
      "stateMutability": "nonpayable",
      "type": "function"
    },
    {
      "constant": false,
      "inputs": [
        {
          "name": "_reserve",
          "type": "address"
        }
      ],
      "name": "freezeReserve",
      "outputs": [],
      "payable": false,
      "stateMutability": "nonpayable",
      "type": "function"
    },
    {
      "constant": true,
      "inputs": [
        {
          "name": "_reserve",
          "type": "address"
        }
      ],
      "name": "getReserveTotalBorrowsStable",
      "outputs": [
        {
          "name": "",
          "type": "uint256"
        }
      ],
      "payable": false,
      "stateMutability": "view",
      "type": "function"
    },
    {
      "constant": true,
      "inputs": [
        {
          "name": "_reserve",
          "type": "address"
        }
      ],
      "name": "getReserveCurrentStableBorrowRate",
      "outputs": [
        {
          "name": "",
          "type": "uint256"
        }
      ],
      "payable": false,
      "stateMutability": "view",
      "type": "function"
    },
    {
      "constant": false,
      "inputs": [
        {
          "name": "_token",
          "type": "address"
        },
        {
          "name": "_amount",
          "type": "uint256"
        },
        {
          "name": "_destination",
          "type": "address"
        }
      ],
      "name": "liquidateFee",
      "outputs": [],
      "payable": true,
      "stateMutability": "payable",
      "type": "function"
    },
    {
      "constant": true,
      "inputs": [
        {
          "name": "_reserve",
          "type": "address"
        }
      ],
      "name": "getReserveCurrentVariableBorrowRate",
      "outputs": [
        {
          "name": "",
          "type": "uint256"
        }
      ],
      "payable": false,
      "stateMutability": "view",
      "type": "function"
    },
    {
      "constant": true,
      "inputs": [
        {
          "name": "_reserve",
          "type": "address"
        }
      ],
      "name": "getReserveTotalBorrowsVariable",
      "outputs": [
        {
          "name": "",
          "type": "uint256"
        }
      ],
      "payable": false,
      "stateMutability": "view",
      "type": "function"
    },
    {
      "constant": true,
      "inputs": [
        {
          "name": "_reserve",
          "type": "address"
        },
        {
          "name": "_user",
          "type": "address"
        }
      ],
      "name": "isUserUseReserveAsCollateralEnabled",
      "outputs": [
        {
          "name": "",
          "type": "bool"
        }
      ],
      "payable": false,
      "stateMutability": "view",
      "type": "function"
    },
    {
      "constant": true,
      "inputs": [
        {
          "name": "_reserve",
          "type": "address"
        }
      ],
      "name": "getReserveIsStableBorrowRateEnabled",
      "outputs": [
        {
          "name": "",
          "type": "bool"
        }
      ],
      "payable": false,
      "stateMutability": "view",
      "type": "function"
    },
    {
      "constant": true,
      "inputs": [
        {
          "name": "_reserve",
          "type": "address"
        },
        {
          "name": "_user",
          "type": "address"
        }
      ],
      "name": "getUserBorrowBalances",
      "outputs": [
        {
          "name": "",
          "type": "uint256"
        },
        {
          "name": "",
          "type": "uint256"
        },
        {
          "name": "",
          "type": "uint256"
        }
      ],
      "payable": false,
      "stateMutability": "view",
      "type": "function"
    },
    {
      "constant": true,
      "inputs": [
        {
          "name": "_reserve",
          "type": "address"
        }
      ],
      "name": "getReserveDecimals",
      "outputs": [
        {
          "name": "",
          "type": "uint256"
        }
      ],
      "payable": false,
      "stateMutability": "view",
      "type": "function"
    },
    {
      "constant": false,
      "inputs": [
        {
          "name": "_reserve",
          "type": "address"
        },
        {
          "name": "_baseLTVasCollateral",
          "type": "uint256"
        },
        {
          "name": "_liquidationThreshold",
          "type": "uint256"
        },
        {
          "name": "_liquidationBonus",
          "type": "uint256"
        }
      ],
      "name": "enableReserveAsCollateral",
      "outputs": [],
      "payable": false,
      "stateMutability": "nonpayable",
      "type": "function"
    },
    {
      "constant": false,
      "inputs": [
        {
          "name": "_reserve",
          "type": "address"
        }
      ],
      "name": "disableBorrowingOnReserve",
      "outputs": [],
      "payable": false,
      "stateMutability": "nonpayable",
      "type": "function"
    },
    {
      "constant": false,
      "inputs": [
        {
          "name": "_reserve",
          "type": "address"
        },
        {
          "name": "_user",
          "type": "address"
        },
        {
          "name": "_balanceIncrease",
          "type": "uint256"
        }
      ],
      "name": "updateStateOnRebalance",
      "outputs": [
        {
          "name": "",
          "type": "uint256"
        }
      ],
      "payable": false,
      "stateMutability": "nonpayable",
      "type": "function"
    },
    {
      "constant": false,
      "inputs": [
        {
          "name": "_reserve",
          "type": "address"
        },
        {
          "name": "_user",
          "type": "address"
        },
        {
          "name": "_amountRedeemed",
          "type": "uint256"
        },
        {
          "name": "_userRedeemedEverything",
          "type": "bool"
        }
      ],
      "name": "updateStateOnRedeem",
      "outputs": [],
      "payable": false,
      "stateMutability": "nonpayable",
      "type": "function"
    },
    {
      "constant": true,
      "inputs": [
        {
          "name": "_reserve",
          "type": "address"
        }
      ],
      "name": "getReserveVariableBorrowsCumulativeIndex",
      "outputs": [
        {
          "name": "",
          "type": "uint256"
        }
      ],
      "payable": false,
      "stateMutability": "view",
      "type": "function"
    },
    {
      "constant": false,
      "inputs": [
        {
          "name": "_reserve",
          "type": "address"
        }
      ],
      "name": "activateReserve",
      "outputs": [],
      "payable": false,
      "stateMutability": "nonpayable",
      "type": "function"
    },
    {
      "constant": false,
      "inputs": [
        {
          "name": "_reserve",
          "type": "address"
        }
      ],
      "name": "disableReserveStableBorrowRate",
      "outputs": [],
      "payable": false,
      "stateMutability": "nonpayable",
      "type": "function"
    },
    {
      "constant": false,
      "inputs": [
        {
          "name": "_reserve",
          "type": "address"
        },
        {
          "name": "_user",
          "type": "address"
        },
        {
          "name": "_amount",
          "type": "uint256"
        },
        {
          "name": "_isFirstDeposit",
          "type": "bool"
        }
      ],
      "name": "updateStateOnDeposit",
      "outputs": [],
      "payable": false,
      "stateMutability": "nonpayable",
      "type": "function"
    },
    {
      "constant": true,
      "inputs": [
        {
          "name": "_reserve",
          "type": "address"
        }
      ],
      "name": "getReserveLiquidityCumulativeIndex",
      "outputs": [
        {
          "name": "",
          "type": "uint256"
        }
      ],
      "payable": false,
      "stateMutability": "view",
      "type": "function"
    },
    {
      "constant": true,
      "inputs": [
        {
          "name": "_reserve",
          "type": "address"
        }
      ],
      "name": "getReserveUtilizationRate",
      "outputs": [
        {
          "name": "",
          "type": "uint256"
        }
      ],
      "payable": false,
      "stateMutability": "view",
      "type": "function"
    },
    {
      "constant": true,
      "inputs": [
        {
          "name": "_reserve",
          "type": "address"
        }
      ],
      "name": "getReserveTotalLiquidity",
      "outputs": [
        {
          "name": "",
          "type": "uint256"
        }
      ],
      "payable": false,
      "stateMutability": "view",
      "type": "function"
    },
    {
      "constant": true,
      "inputs": [
        {
          "name": "_reserve",
          "type": "address"
        }
      ],
      "name": "getReserveCurrentLiquidityRate",
      "outputs": [
        {
          "name": "",
          "type": "uint256"
        }
      ],
      "payable": false,
      "stateMutability": "view",
      "type": "function"
    },
    {
      "constant": true,
      "inputs": [],
      "name": "addressesProvider",
      "outputs": [
        {
          "name": "",
          "type": "address"
        }
      ],
      "payable": false,
      "stateMutability": "view",
      "type": "function"
    },
    {
      "constant": true,
      "inputs": [
        {
          "name": "_reserve",
          "type": "address"
        }
      ],
      "name": "getReserveLiquidationBonus",
      "outputs": [
        {
          "name": "",
          "type": "uint256"
        }
      ],
      "payable": false,
      "stateMutability": "view",
      "type": "function"
    },
    {
      "constant": false,
      "inputs": [
        {
          "name": "_token",
          "type": "address"
        },
        {
          "name": "_user",
          "type": "address"
        },
        {
          "name": "_amount",
          "type": "uint256"
        },
        {
          "name": "_destination",
          "type": "address"
        }
      ],
      "name": "transferToFeeCollectionAddress",
      "outputs": [],
      "payable": true,
      "stateMutability": "payable",
      "type": "function"
    },
    {
      "constant": false,
      "inputs": [
        {
          "name": "_reserveToRemove",
          "type": "address"
        }
      ],
      "name": "removeLastAddedReserve",
      "outputs": [],
      "payable": false,
      "stateMutability": "nonpayable",
      "type": "function"
    },
    {
      "constant": true,
      "inputs": [
        {
          "name": "_reserve",
          "type": "address"
        }
      ],
      "name": "getReserveNormalizedIncome",
      "outputs": [
        {
          "name": "",
          "type": "uint256"
        }
      ],
      "payable": false,
      "stateMutability": "view",
      "type": "function"
    },
    {
      "constant": true,
      "inputs": [],
      "name": "lendingPoolAddress",
      "outputs": [
        {
          "name": "",
          "type": "address"
        }
      ],
      "payable": false,
      "stateMutability": "view",
      "type": "function"
    },
    {
      "constant": false,
      "inputs": [
        {
          "name": "_reserve",
          "type": "address"
        },
        {
          "name": "_ltv",
          "type": "uint256"
        }
      ],
      "name": "setReserveBaseLTVasCollateral",
      "outputs": [],
      "payable": false,
      "stateMutability": "nonpayable",
      "type": "function"
    },
    {
      "constant": false,
      "inputs": [
        {
          "name": "_reserve",
          "type": "address"
        },
        {
          "name": "_user",
          "type": "address"
        },
        {
          "name": "_paybackAmountMinusFees",
          "type": "uint256"
        },
        {
          "name": "_originationFeeRepaid",
          "type": "uint256"
        },
        {
          "name": "_balanceIncrease",
          "type": "uint256"
        },
        {
          "name": "_repaidWholeLoan",
          "type": "bool"
        }
      ],
      "name": "updateStateOnRepay",
      "outputs": [],
      "payable": false,
      "stateMutability": "nonpayable",
      "type": "function"
    },
    {
      "constant": false,
      "inputs": [
        {
          "name": "_reserve",
          "type": "address"
        }
      ],
      "name": "enableReserveStableBorrowRate",
      "outputs": [],
      "payable": false,
      "stateMutability": "nonpayable",
      "type": "function"
    },
    {
      "constant": true,
      "inputs": [
        {
          "name": "_reserve",
          "type": "address"
        },
        {
          "name": "_user",
          "type": "address"
        }
      ],
      "name": "getUserBasicReserveData",
      "outputs": [
        {
          "name": "",
          "type": "uint256"
        },
        {
          "name": "",
          "type": "uint256"
        },
        {
          "name": "",
          "type": "uint256"
        },
        {
          "name": "",
          "type": "bool"
        }
      ],
      "payable": false,
      "stateMutability": "view",
      "type": "function"
    },
    {
      "constant": true,
      "inputs": [
        {
          "name": "_reserve",
          "type": "address"
        },
        {
          "name": "_user",
          "type": "address"
        },
        {
          "name": "_amount",
          "type": "uint256"
        }
      ],
      "name": "isUserAllowedToBorrowAtStable",
      "outputs": [
        {
          "name": "",
          "type": "bool"
        }
      ],
      "payable": false,
      "stateMutability": "view",
      "type": "function"
    },
    {
      "constant": true,
      "inputs": [
        {
          "name": "_reserve",
          "type": "address"
        }
      ],
      "name": "getReserveAvailableLiquidity",
      "outputs": [
        {
          "name": "",
          "type": "uint256"
        }
      ],
      "payable": false,
      "stateMutability": "view",
      "type": "function"
    },
    {
      "constant": true,
      "inputs": [
        {
          "name": "_reserve",
          "type": "address"
        }
      ],
      "name": "getReserveTotalBorrows",
      "outputs": [
        {
          "name": "",
          "type": "uint256"
        }
      ],
      "payable": false,
      "stateMutability": "view",
      "type": "function"
    },
    {
      "constant": false,
      "inputs": [
        {
          "name": "_reserve",
          "type": "address"
        }
      ],
      "name": "disableReserveAsCollateral",
      "outputs": [],
      "payable": false,
      "stateMutability": "nonpayable",
      "type": "function"
    },
    {
      "constant": false,
      "inputs": [
        {
          "name": "_reserve",
          "type": "address"
        },
        {
          "name": "_stableBorrowRateEnabled",
          "type": "bool"
        }
      ],
      "name": "enableBorrowingOnReserve",
      "outputs": [],
      "payable": false,
      "stateMutability": "nonpayable",
      "type": "function"
    },
    {
      "constant": false,
      "inputs": [
        {
          "name": "_reserve",
          "type": "address"
        }
      ],
      "name": "unfreezeReserve",
      "outputs": [],
      "payable": false,
      "stateMutability": "nonpayable",
      "type": "function"
    },
    {
      "constant": true,
      "inputs": [
        {
          "name": "_reserve",
          "type": "address"
        }
      ],
      "name": "getReserveLiquidationThreshold",
      "outputs": [
        {
          "name": "",
          "type": "uint256"
        }
      ],
      "payable": false,
      "stateMutability": "view",
      "type": "function"
    },
    {
      "constant": false,
      "inputs": [
        {
          "name": "_reserve",
          "type": "address"
        },
        {
          "name": "_user",
          "type": "address"
        },
        {
          "name": "_principalBorrowBalance",
          "type": "uint256"
        },
        {
          "name": "_compoundedBorrowBalance",
          "type": "uint256"
        },
        {
          "name": "_balanceIncrease",
          "type": "uint256"
        },
        {
          "name": "_currentRateMode",
          "type": "uint8"
        }
      ],
      "name": "updateStateOnSwapRate",
      "outputs": [
        {
          "name": "",
          "type": "uint8"
        },
        {
          "name": "",
          "type": "uint256"
        }
      ],
      "payable": false,
      "stateMutability": "nonpayable",
      "type": "function"
    },
    {
      "constant": true,
      "inputs": [
        {
          "name": "_reserve",
          "type": "address"
        },
        {
          "name": "_user",
          "type": "address"
        }
      ],
      "name": "getUserVariableBorrowCumulativeIndex",
      "outputs": [
        {
          "name": "",
          "type": "uint256"
        }
      ],
      "payable": false,
      "stateMutability": "view",
      "type": "function"
    },
    {
      "constant": false,
      "inputs": [
        {
          "name": "_reserve",
          "type": "address"
        },
        {
          "name": "_user",
          "type": "address"
        },
        {
          "name": "_useAsCollateral",
          "type": "bool"
        }
      ],
      "name": "setUserUseReserveAsCollateral",
      "outputs": [],
      "payable": false,
      "stateMutability": "nonpayable",
      "type": "function"
    },
    {
      "constant": false,
      "inputs": [
        {
          "name": "_reserve",
          "type": "address"
        },
        {
          "name": "_user",
          "type": "address"
        },
        {
          "name": "_amount",
          "type": "uint256"
        }
      ],
      "name": "transferToUser",
      "outputs": [],
      "payable": false,
      "stateMutability": "nonpayable",
      "type": "function"
    },
    {
      "constant": true,
      "inputs": [
        {
          "name": "_reserve",
          "type": "address"
        },
        {
          "name": "_user",
          "type": "address"
        }
      ],
      "name": "getUserOriginationFee",
      "outputs": [
        {
          "name": "",
          "type": "uint256"
        }
      ],
      "payable": false,
      "stateMutability": "view",
      "type": "function"
    },
    {
      "payable": true,
      "stateMutability": "payable",
      "type": "fallback"
    },
    {
      "anonymous": false,
      "inputs": [
        {
          "indexed": true,
          "name": "revision",
          "type": "uint256"
        }
      ],
      "name": "ReserveUpdatedFromMock",
      "type": "event"
    },
    {
      "anonymous": false,
      "inputs": [
        {
          "indexed": true,
          "name": "reserve",
          "type": "address"
        },
        {
          "indexed": false,
          "name": "liquidityRate",
          "type": "uint256"
        },
        {
          "indexed": false,
          "name": "stableBorrowRate",
          "type": "uint256"
        },
        {
          "indexed": false,
          "name": "variableBorrowRate",
          "type": "uint256"
        },
        {
          "indexed": false,
          "name": "liquidityIndex",
          "type": "uint256"
        },
        {
          "indexed": false,
          "name": "variableBorrowIndex",
          "type": "uint256"
        }
      ],
      "name": "ReserveUpdated",
      "type": "event"
    },
    {
      "constant": false,
      "inputs": [
        {
          "name": "_addressesProvider",
          "type": "address"
        }
      ],
      "name": "initialize",
      "outputs": [],
      "payable": false,
      "stateMutability": "nonpayable",
      "type": "function"
    }
  ],
  "bytecode": "0x60806040526000805534801561001457600080fd5b506159ea80620000256000396000f3fe60806040526004361061041b5760003560e01c8063a2353fdc1161021e578063d15e005311610123578063e8ae2f5b116100ab578063f61483111161007a578063f6148311146113c4578063f6ea8d7614611448578063fa51854c14611483578063fa93b2a5146114c8578063feab31ac1461150b5761041b565b8063e8ae2f5b146112f0578063eede87c114611323578063ef1f93731461135e578063f054ab46146113915761041b565b8063dae4c4e7116100f2578063dae4c4e7146111d9578063e10076ad1461120c578063e2174d8614611247578063e24030191461128a578063e6d18190146112bd5761041b565b8063d15e005314611101578063d3ae26b314611134578063d466016f14611149578063da12d96f146111825761041b565b8063bd7fd79a116101a6578063c540148e11610175578063c540148e14611017578063c72c4d101461104a578063c76a6c9c1461105f578063c7d1423714611092578063d06e2ec1146110ce5761041b565b8063bd7fd79a14610f4b578063bfacad8414610f7e578063c33cfd9014610fb1578063c4d66de814610fe45761041b565b8063afcdbea3116101ed578063afcdbea314610e1c578063b701d09314610e67578063b75d6f3414610e9a578063b8c0f74514610ecd578063bcd6ffa414610f005761041b565b8063a2353fdc14610d2e578063a5bc826c14610d61578063a8dc0f4514610da6578063af825b0714610dd95761041b565b80635cf2e656116103245780637aca76eb116102ac578063906c0a411161027b578063906c0a4114610c0157806398bd473714610c345780639e3c4f3b14610c675780639e67484814610ca25780639fb8afcd14610cd55761041b565b80637aca76eb14610b325780637f90fec514610b6557806388079d8814610b985780638f385c2214610bcb5761041b565b806366d103f3116102f357806366d103f3146109e557806368beb4d614610a205780636ae1441614610a8b5780636fffab0c14610abe57806370fb84f414610af95761041b565b80635cf2e656146109095780635fc526ff1461093c578063646810831461099757806366bbd928146109ac5761041b565b80633443a14b116103a757806345330a401161037657806345330a40146107e357806346bc0f281461082c5780634a08accb1461085f5780634f144609146108925780634fe7a6e5146108df5761041b565b80633443a14b146106bc57806334b3beee146106f557806337ac6fe4146107445780633e72a454146107b05761041b565b806318a4dbca116103ee57806318a4dbca1461057e57806318f9bbae146105b95780631ca19f19146105ec5780631d2118f91461064b57806328fcf4d3146106865761041b565b806305075d6e146104665780630902f1ac146104ad57806309ac2953146105125780630c7de4e914610557575b61042433611546565b151561046457604051600160e51b62461bcd0281526004018080602001828103825260368152602001806157476036913960400191505060405180910390fd5b005b34801561047257600080fd5b506104996004803603602081101561048957600080fd5b50356001600160a01b0316611584565b604080519115158252519081900360200190f35b3480156104b957600080fd5b506104c26115ac565b60408051602080825283518183015283519192839290830191858101910280838360005b838110156104fe5781810151838201526020016104e6565b505050509050019250505060405180910390f35b34801561051e57600080fd5b506104646004803603608081101561053557600080fd5b506001600160a01b03813516906020810135906040810135906060013561160e565b34801561056357600080fd5b5061056c6116df565b60408051918252519081900360200190f35b34801561058a57600080fd5b5061056c600480360360408110156105a157600080fd5b506001600160a01b03813581169160200135166116e4565b3480156105c557600080fd5b50610499600480360360208110156105dc57600080fd5b50356001600160a01b031661177a565b3480156105f857600080fd5b506106276004803603604081101561060f57600080fd5b506001600160a01b03813581169160200135166117a2565b6040518082600281111561063757fe5b60ff16815260200191505060405180910390f35b34801561065757600080fd5b506104646004803603604081101561066e57600080fd5b506001600160a01b03813581169160200135166117f9565b6104646004803603606081101561069c57600080fd5b506001600160a01b038135811691602081013590911690604001356118e5565b3480156106c857600080fd5b50610464600480360360408110156106df57600080fd5b506001600160a01b038135169060200135611abf565b34801561070157600080fd5b506107286004803603602081101561071857600080fd5b50356001600160a01b0316611b99565b604080516001600160a01b039092168252519081900360200190f35b34801561075057600080fd5b50610797600480360360a081101561076757600080fd5b5080356001600160a01b03908116916020810135909116906040810135906060810135906080013560ff16611bba565b6040805192835260208301919091528051918290030190f35b3480156107bc57600080fd5b50610464600480360360208110156107d357600080fd5b50356001600160a01b0316611c5d565b3480156107ef57600080fd5b506104646004803603608081101561080657600080fd5b506001600160a01b03813581169160208101358216916040820135916060013516611d42565b34801561083857600080fd5b5061056c6004803603602081101561084f57600080fd5b50356001600160a01b0316611ea5565b34801561086b57600080fd5b506104996004803603602081101561088257600080fd5b50356001600160a01b0316611ec3565b34801561089e57600080fd5b506108c5600480360360208110156108b557600080fd5b50356001600160a01b0316611eeb565b6040805164ffffffffff9092168252519081900360200190f35b3480156108eb57600080fd5b506107286004803603602081101561090257600080fd5b5035611f17565b34801561091557600080fd5b506104996004803603602081101561092c57600080fd5b50356001600160a01b0316611f3f565b34801561094857600080fd5b5061096f6004803603602081101561095f57600080fd5b50356001600160a01b0316611f67565b6040805194855260208501939093528383019190915215156060830152519081900360800190f35b3480156109a357600080fd5b50610464611fa5565b3480156109b857600080fd5b50610464600480360360408110156109cf57600080fd5b506001600160a01b03813516906020013561206a565b3480156109f157600080fd5b5061056c60048036036040811015610a0857600080fd5b506001600160a01b0381358116916020013516612144565b348015610a2c57600080fd5b506104646004803603610120811015610a4457600080fd5b506001600160a01b03813581169160208101358216916040820135169060608101359060808101359060a08101359060c08101359060e0810135906101000135151561217a565b348015610a9757600080fd5b5061072860048036036020811015610aae57600080fd5b50356001600160a01b0316612221565b348015610aca57600080fd5b5061056c60048036036040811015610ae157600080fd5b506001600160a01b0381358116916020013516612242565b348015610b0557600080fd5b5061046460048036036040811015610b1c57600080fd5b506001600160a01b038135169060200135612271565b348015610b3e57600080fd5b5061046460048036036020811015610b5557600080fd5b50356001600160a01b031661234b565b348015610b7157600080fd5b5061056c60048036036020811015610b8857600080fd5b50356001600160a01b0316612436565b348015610ba457600080fd5b5061056c60048036036020811015610bbb57600080fd5b50356001600160a01b0316612454565b61046460048036036060811015610be157600080fd5b506001600160a01b03813581169160208101359160409091013516612581565b348015610c0d57600080fd5b5061056c60048036036020811015610c2457600080fd5b50356001600160a01b0316612697565b348015610c4057600080fd5b5061056c60048036036020811015610c5757600080fd5b50356001600160a01b0316612749565b348015610c7357600080fd5b5061049960048036036040811015610c8a57600080fd5b506001600160a01b0381358116916020013516612767565b348015610cae57600080fd5b5061049960048036036020811015610cc557600080fd5b50356001600160a01b03166127a0565b348015610ce157600080fd5b50610d1060048036036040811015610cf857600080fd5b506001600160a01b03813581169160200135166127c8565b60408051938452602084019290925282820152519081900360600190f35b348015610d3a57600080fd5b5061056c60048036036020811015610d5157600080fd5b50356001600160a01b0316612855565b348015610d6d57600080fd5b5061046460048036036080811015610d8457600080fd5b506001600160a01b038135169060208101359060408101359060600135612873565b348015610db257600080fd5b5061046460048036036020811015610dc957600080fd5b50356001600160a01b03166129ca565b348015610de557600080fd5b5061056c60048036036060811015610dfc57600080fd5b506001600160a01b03813581169160208101359091169060400135612b02565b348015610e2857600080fd5b5061046460048036036080811015610e3f57600080fd5b506001600160a01b038135811691602081013590911690604081013590606001351515612ba5565b348015610e7357600080fd5b5061056c60048036036020811015610e8a57600080fd5b50356001600160a01b0316612c30565b348015610ea657600080fd5b5061046460048036036020811015610ebd57600080fd5b50356001600160a01b0316612c4e565b348015610ed957600080fd5b5061046460048036036020811015610ef057600080fd5b50356001600160a01b0316612d8f565b348015610f0c57600080fd5b5061046460048036036080811015610f2357600080fd5b506001600160a01b038135811691602081013590911690604081013590606001351515612e74565b348015610f5757600080fd5b5061056c60048036036020811015610f6e57600080fd5b50356001600160a01b0316612eff565b348015610f8a57600080fd5b5061056c60048036036020811015610fa157600080fd5b50356001600160a01b0316612f1a565b348015610fbd57600080fd5b5061056c60048036036020811015610fd457600080fd5b50356001600160a01b0316612f86565b348015610ff057600080fd5b506104646004803603602081101561100757600080fd5b50356001600160a01b0316612fbf565b34801561102357600080fd5b5061056c6004803603602081101561103a57600080fd5b50356001600160a01b0316613083565b34801561105657600080fd5b506107286130a1565b34801561106b57600080fd5b5061056c6004803603602081101561108257600080fd5b50356001600160a01b03166130b0565b610464600480360360808110156110a857600080fd5b506001600160a01b038135811691602081013582169160408201359160600135166130ce565b3480156110da57600080fd5b50610464600480360360208110156110f157600080fd5b50356001600160a01b031661328f565b34801561110d57600080fd5b5061056c6004803603602081101561112457600080fd5b50356001600160a01b03166134b2565b34801561114057600080fd5b506107286134d3565b34801561115557600080fd5b506104646004803603604081101561116c57600080fd5b506001600160a01b0381351690602001356134e2565b34801561118e57600080fd5b50610464600480360360c08110156111a557600080fd5b506001600160a01b03813581169160208101359091169060408101359060608101359060808101359060a0013515156135bc565b3480156111e557600080fd5b50610464600480360360208110156111fc57600080fd5b50356001600160a01b031661362e565b34801561121857600080fd5b5061096f6004803603604081101561122f57600080fd5b506001600160a01b0381358116916020013516613719565b34801561125357600080fd5b506104996004803603606081101561126a57600080fd5b506001600160a01b038135811691602081013590911690604001356137c8565b34801561129657600080fd5b5061056c600480360360208110156112ad57600080fd5b50356001600160a01b0316613860565b3480156112c957600080fd5b5061056c600480360360208110156112e057600080fd5b50356001600160a01b0316613908565b3480156112fc57600080fd5b506104646004803603602081101561131357600080fd5b50356001600160a01b0316613929565b34801561132f57600080fd5b506104646004803603604081101561134657600080fd5b506001600160a01b0381351690602001351515613a4d565b34801561136a57600080fd5b506104646004803603602081101561138157600080fd5b50356001600160a01b0316613b8d565b34801561139d57600080fd5b5061056c600480360360208110156113b457600080fd5b50356001600160a01b0316613c72565b3480156113d057600080fd5b5061141d600480360360c08110156113e757600080fd5b5080356001600160a01b039081169160208101359091169060408101359060608101359060808101359060a0013560ff16613c90565b6040518083600281111561142d57fe5b60ff1681526020018281526020019250505060405180910390f35b34801561145457600080fd5b5061056c6004803603604081101561146b57600080fd5b506001600160a01b0381358116916020013516613d25565b34801561148f57600080fd5b50610464600480360360608110156114a657600080fd5b506001600160a01b038135811691602081013590911690604001351515613d54565b3480156114d457600080fd5b50610464600480360360608110156114eb57600080fd5b506001600160a01b03813581169160208101359091169060400135613de9565b34801561151757600080fd5b5061056c6004803603604081101561152e57600080fd5b506001600160a01b0381358116916020013516613f19565b6000813f7fc5d2460186f7233c927e7db2dcc703c0e500b653ca82273b7bfad8045d85a47081811480159061157a57508115155b925050505b919050565b6001600160a01b03166000908152603660205260409020600d0154600160e01b900460ff1690565b6060603880548060200260200160405190810160405280929190818152602001828054801561160457602002820191906000526020600020905b81546001600160a01b031681526001909101906020018083116115e6575b5050505050905090565b6034546001600160a01b0316331461165a57604051600160e51b62461bcd02815260040180806020018281038252602a815260200180615948602a913960400191505060405180910390fd5b6116648482613f48565b6001600160a01b038416600090815260366020526040902061168590614028565b60006116a061169386613908565b859063ffffffff6140c016565b6001600160a01b03861660009081526036602052604090209091506116cc90828563ffffffff61411d16565b6116d88584600061417b565b5050505050565b600481565b6001600160a01b038083166000908152603660209081526040808320600c01548151600160e01b6370a08231028152868616600482015291519394169283926370a082319260248082019391829003018186803b15801561174457600080fd5b505afa158015611758573d6000803e3d6000fd5b505050506040513d602081101561176e57600080fd5b50519150505b92915050565b6001600160a01b03166000908152603660205260409020600d0154600160d01b900460ff1690565b6001600160a01b0380821660009081526037602090815260408083209386168352929052908120805415156117db576000915050611774565b60008160030154116117ee5760026117f1565b60015b949350505050565b60355460408051600160e01b6385c858b1028152905133926001600160a01b0316916385c858b1916004808301926020929190829003018186803b15801561184057600080fd5b505afa158015611854573d6000803e3d6000fd5b505050506040513d602081101561186a57600080fd5b50516001600160a01b0316146118b457604051600160e51b62461bcd02815260040180806020018281038252603781526020018061589e6037913960400191505060405180910390fd5b6001600160a01b039182166000908152603660205260409020600d0180546001600160a01b03191691909216179055565b6034546001600160a01b0316331461193157604051600160e51b62461bcd02815260040180806020018281038252602a815260200180615948602a913960400191505060405180910390fd5b6119396141bc565b6001600160a01b038481169116146119ab57341561198b57604051600160e51b62461bcd0281526004018080602001828103825260328152602001806157dd6032913960400191505060405180910390fd5b6119a66001600160a01b03841683308463ffffffff6141d416565b611aba565b348111156119ed57604051600160e51b62461bcd0281526004018080602001828103825260358152602001806157126035913960400191505060405180910390fd5b80341115611aba576000611a07348363ffffffff61423116565b6040519091506000906001600160a01b0385169061c35090849084818181858888f193505050503d8060008114611a5a576040519150601f19603f3d011682016040523d82523d6000602084013e611a5f565b606091505b505090508015156116d85760408051600160e51b62461bcd02815260206004820152601660248201527f5472616e73666572206f6620455448206661696c656400000000000000000000604482015290519081900360640190fd5b505050565b60355460408051600160e01b6385c858b1028152905133926001600160a01b0316916385c858b1916004808301926020929190829003018186803b158015611b0657600080fd5b505afa158015611b1a573d6000803e3d6000fd5b505050506040513d6020811015611b3057600080fd5b50516001600160a01b031614611b7a57604051600160e51b62461bcd02815260040180806020018281038252603781526020018061589e6037913960400191505060405180910390fd5b6001600160a01b03909116600090815260366020526040902060090155565b6001600160a01b039081166000908152603660205260409020600c01541690565b60345460009081906001600160a01b03163314611c0b57604051600160e51b62461bcd02815260040180806020018281038252602a815260200180615948602a913960400191505060405180910390fd5b600080611c1889896127c8565b9250509150611c2b898984848b8a614273565b611c39898989848a8a6142a2565b611c458960008961417b565b611c4f89896143ca565b999098509650505050505050565b60355460408051600160e01b6385c858b1028152905133926001600160a01b0316916385c858b1916004808301926020929190829003018186803b158015611ca457600080fd5b505afa158015611cb8573d6000803e3d6000fd5b505050506040513d6020811015611cce57600080fd5b50516001600160a01b031614611d1857604051600160e51b62461bcd02815260040180806020018281038252603781526020018061589e6037913960400191505060405180910390fd5b6001600160a01b03166000908152603660205260409020600d018054600160e01b60ff0219169055565b60355460408051600160e01b6385c858b1028152905133926001600160a01b0316916385c858b1916004808301926020929190829003018186803b158015611d8957600080fd5b505afa158015611d9d573d6000803e3d6000fd5b505050506040513d6020811015611db357600080fd5b50516001600160a01b031614611dfd57604051600160e51b62461bcd02815260040180806020018281038252603781526020018061589e6037913960400191505060405180910390fd5b6001600160a01b038085166000908152603660205260408082208151600160e21b6304dda735028152600481019190915286841660248201526044810186905292841660648401525173__CoreLibrary___________________________926313769cd4926084808301939192829003018186803b158015611e7e57600080fd5b505af4158015611e92573d6000803e3d6000fd5b50505050611e9f8461445c565b50505050565b6001600160a01b031660009081526036602052604090206006015490565b6001600160a01b03166000908152603660205260409020600d0154600160e81b900460ff1690565b6001600160a01b03166000908152603660205260409020600d0154600160a01b900464ffffffffff1690565b6038805482908110611f2557fe5b6000918252602090912001546001600160a01b0316905081565b6001600160a01b03166000908152603660205260409020600d0154600160c81b900460ff1690565b6001600160a01b03166000908152603660205260409020600b81015460088201546009830154600d909301549193909291600160d01b900460ff1690565b60355460408051600160e01b6385c858b1028152905133926001600160a01b0316916385c858b1916004808301926020929190829003018186803b158015611fec57600080fd5b505afa158015612000573d6000803e3d6000fd5b505050506040513d602081101561201657600080fd5b50516001600160a01b03161461206057604051600160e51b62461bcd02815260040180806020018281038252603781526020018061589e6037913960400191505060405180910390fd5b612068614504565b565b60355460408051600160e01b6385c858b1028152905133926001600160a01b0316916385c858b1916004808301926020929190829003018186803b1580156120b157600080fd5b505afa1580156120c5573d6000803e3d6000fd5b505050506040513d60208110156120db57600080fd5b50516001600160a01b03161461212557604051600160e51b62461bcd02815260040180806020018281038252603781526020018061589e6037913960400191505060405180910390fd5b6001600160a01b039091166000908152603660205260409020600b0155565b6001600160a01b0390811660009081526037602090815260408083209490931682529290925290206004015464ffffffffff1690565b6034546001600160a01b031633146121c657604051600160e51b62461bcd02815260040180806020018281038252602a815260200180615948602a913960400191505060405180910390fd5b6121d28988888561459f565b6121db88614658565b6121e8898888878661467c565b6121f48987600061417b565b80151561221657612216886000612211888763ffffffff6140c016565b61417b565b505050505050505050565b6001600160a01b039081166000908152603660205260409020600d01541690565b6001600160a01b0380821660009081526037602090815260408083209386168352929052206003015492915050565b60355460408051600160e01b6385c858b1028152905133926001600160a01b0316916385c858b1916004808301926020929190829003018186803b1580156122b857600080fd5b505afa1580156122cc573d6000803e3d6000fd5b505050506040513d60208110156122e257600080fd5b50516001600160a01b03161461232c57604051600160e51b62461bcd02815260040180806020018281038252603781526020018061589e6037913960400191505060405180910390fd5b6001600160a01b039091166000908152603660205260409020600a0155565b60355460408051600160e01b6385c858b1028152905133926001600160a01b0316916385c858b1916004808301926020929190829003018186803b15801561239257600080fd5b505afa1580156123a6573d6000803e3d6000fd5b505050506040513d60208110156123bc57600080fd5b50516001600160a01b03161461240657604051600160e51b62461bcd02815260040180806020018281038252603781526020018061589e6037913960400191505060405180910390fd5b6001600160a01b03166000908152603660205260409020600d018054600160e81b60ff021916600160e81b179055565b6001600160a01b031660009081526036602052604090206002015490565b6001600160a01b0380821660009081526036602090815260408083206035548251600160e11b631b0c55dd02815292519495919486949190921692633618abba9260048083019392829003018186803b1580156124b057600080fd5b505afa1580156124c4573d6000803e3d6000fd5b505050506040513d60208110156124da57600080fd5b50516005830154909150151561257657806001600160a01b031663bb85c0bb856040518263ffffffff1660e01b815260040180826001600160a01b03166001600160a01b0316815260200191505060206040518083038186803b15801561254057600080fd5b505afa158015612554573d6000803e3d6000fd5b505050506040513d602081101561256a57600080fd5b5051925061157f915050565b506005015492915050565b6034546001600160a01b031633146125cd57604051600160e51b62461bcd02815260040180806020018281038252602a815260200180615948602a913960400191505060405180910390fd5b80341561260e57604051600160e51b62461bcd02815260040180806020018281038252603681526020018061568c6036913960400191505060405180910390fd5b6126166141bc565b6001600160a01b03858116911614612647576126426001600160a01b038516828563ffffffff61473a16565b611e9f565b6040516000906001600160a01b0383169061c35090869084818181858888f193505050503d8060008114611a5a576040519150601f19603f3d011682016040523d82523d6000602084013e611a5f565b6001600160a01b03811660009081526036602052604081206004810154151561273f5780600d0160009054906101000a90046001600160a01b03166001600160a01b03166334762ca56040518163ffffffff1660e01b815260040160206040518083038186803b15801561270a57600080fd5b505afa15801561271e573d6000803e3d6000fd5b505050506040513d602081101561273457600080fd5b5051915061157f9050565b6004015492915050565b6001600160a01b031660009081526036602052604090206003015490565b6001600160a01b03908116600090815260376020908152604080832094909316825292909252902060040154600160281b900460ff1690565b6001600160a01b03166000908152603660205260409020600d0154600160d81b900460ff1690565b6001600160a01b0380821660009081526037602090815260408083209386168352929052908120805482918291151561280b57506000925082915081905061284e565b80546001600160a01b038716600090815260366020526040812061283090849061478f565b90508181612844818363ffffffff61423116565b9550955095505050505b9250925092565b6001600160a01b03166000908152603660205260409020600b015490565b60355460408051600160e01b6385c858b1028152905133926001600160a01b0316916385c858b1916004808301926020929190829003018186803b1580156128ba57600080fd5b505afa1580156128ce573d6000803e3d6000fd5b505050506040513d60208110156128e457600080fd5b50516001600160a01b03161461292e57604051600160e51b62461bcd02815260040180806020018281038252603781526020018061589e6037913960400191505060405180910390fd5b6001600160a01b0384166000908152603660205260408082208151600160e11b63126ee2730281526004810191909152602481018690526044810185905260648101849052905173__CoreLibrary___________________________926324ddc4e69260848082019391829003018186803b1580156129ac57600080fd5b505af41580156129c0573d6000803e3d6000fd5b5050505050505050565b60355460408051600160e01b6385c858b1028152905133926001600160a01b0316916385c858b1916004808301926020929190829003018186803b158015612a1157600080fd5b505afa158015612a25573d6000803e3d6000fd5b505050506040513d6020811015612a3b57600080fd5b50516001600160a01b031614612a8557604051600160e51b62461bcd02815260040180806020018281038252603781526020018061589e6037913960400191505060405180910390fd5b6001600160a01b0381166000908152603660205260408082208151600160e11b6372efab530281526004810191909152905173__CoreLibrary___________________________9263e5df56a69260248082019391829003018186803b158015612aee57600080fd5b505af41580156116d8573d6000803e3d6000fd5b6034546000906001600160a01b03163314612b5157604051600160e51b62461bcd02815260040180806020018281038252602a815260200180615948602a913960400191505060405180910390fd5b612b5c848484614883565b612b678484846148d3565b612b738460008061417b565b506001600160a01b038083166000908152603760209081526040808320938716835292905220600301545b9392505050565b6034546001600160a01b03163314612bf157604051600160e51b62461bcd02815260040180806020018281038252602a815260200180615948602a913960400191505060405180910390fd5b6001600160a01b0384166000908152603660205260409020612c1290614028565b612c1e8460008461417b565b8015611e9f57611e9f84846000613d54565b6001600160a01b031660009081526036602052604090206007015490565b60355460408051600160e01b6385c858b1028152905133926001600160a01b0316916385c858b1916004808301926020929190829003018186803b158015612c9557600080fd5b505afa158015612ca9573d6000803e3d6000fd5b505050506040513d6020811015612cbf57600080fd5b50516001600160a01b031614612d0957604051600160e51b62461bcd02815260040180806020018281038252603781526020018061589e6037913960400191505060405180910390fd5b6001600160a01b0381166000908152603660205260409020805415801590612d35575060008160070154115b1515612d7557604051600160e51b62461bcd0281526004018080602001828103825260248152602001806158d56024913960400191505060405180910390fd5b600d018054600160e01b60ff021916600160e01b17905550565b60355460408051600160e01b6385c858b1028152905133926001600160a01b0316916385c858b1916004808301926020929190829003018186803b158015612dd657600080fd5b505afa158015612dea573d6000803e3d6000fd5b505050506040513d6020811015612e0057600080fd5b50516001600160a01b031614612e4a57604051600160e51b62461bcd02815260040180806020018281038252603781526020018061589e6037913960400191505060405180910390fd5b6001600160a01b03166000908152603660205260409020600d018054600160d81b60ff0219169055565b6034546001600160a01b03163314612ec057604051600160e51b62461bcd02815260040180806020018281038252602a815260200180615948602a913960400191505060405180910390fd5b6001600160a01b0384166000908152603660205260409020612ee190614028565b612eed8483600061417b565b8015611e9f57611e9f84846001613d54565b6001600160a01b031660009081526036602052604090205490565b6001600160a01b038116600090815260366020526040812081612f3c8261493c565b9050801515612f505760009250505061157f565b6000612f5b85613860565b9050612f7d612f70828463ffffffff6140c016565b839063ffffffff61495916565b95945050505050565b6001600160a01b0381166000908152603660205260408120612b9e612faa8261493c565b612fb385613860565b9063ffffffff6140c016565b6000612fc9614995565b60015490915060ff1680612fe05750612fe061499a565b80612fec575060005481115b151561302c57604051600160e51b62461bcd02815260040180806020018281038252602e81526020018061591a602e913960400191505060405180910390fd5b60015460ff1615801561304b576001805460ff19168117905560008290555b603580546001600160a01b0319166001600160a01b03851617905561306e614504565b8015611aba576001805460ff19169055505050565b6001600160a01b031660009081526036602052604090206001015490565b6035546001600160a01b031681565b6001600160a01b03166000908152603660205260409020600a015490565b6034546001600160a01b0316331461311a57604051600160e51b62461bcd02815260040180806020018281038252602a815260200180615948602a913960400191505060405180910390fd5b806131236141bc565b6001600160a01b0386811691161461319557341561317557604051600160e51b62461bcd02815260040180806020018281038252605f81526020018061580f605f913960600191505060405180910390fd5b6131906001600160a01b03861685838663ffffffff6141d416565b6116d8565b348311156131d757604051600160e51b62461bcd0281526004018080602001828103825260358152602001806157126035913960400191505060405180910390fd5b6040516000906001600160a01b0383169061c35090869084818181858888f193505050503d8060008114613227576040519150601f19603f3d011682016040523d82523d6000602084013e61322c565b606091505b505090508015156132875760408051600160e51b62461bcd02815260206004820152601660248201527f5472616e73666572206f6620455448206661696c656400000000000000000000604482015290519081900360640190fd5b505050505050565b60355460408051600160e01b6385c858b1028152905133926001600160a01b0316916385c858b1916004808301926020929190829003018186803b1580156132d657600080fd5b505afa1580156132ea573d6000803e3d6000fd5b505050506040513d602081101561330057600080fd5b50516001600160a01b03161461334a57604051600160e51b62461bcd02815260040180806020018281038252603781526020018061589e6037913960400191505060405180910390fd5b6038805460009190600019810190811061336057fe5b6000918252602090912001546001600160a01b039081169150821681146133bb57604051600160e51b62461bcd02815260040180806020018281038252603d8152602001806157a0603d913960400191505060405180910390fd5b6133c481613908565b1561340357604051600160e51b62461bcd02815260040180806020018281038252603081526020018061586e6030913960400191505060405180910390fd5b6001600160a01b0381166000908152603660205260408120600d81018054600c830180546001600160a01b0319169055600b8301849055838355600783018490556008830184905560098301849055600a909201929092557fffffff00ff0000ffffffffff00000000000000000000000000000000000000001690556038805480151561348c57fe5b600082815260209020810160001990810180546001600160a01b03191690550190555050565b6001600160a01b0381166000908152603660205260408120612b9e816149a0565b6034546001600160a01b031681565b60355460408051600160e01b6385c858b1028152905133926001600160a01b0316916385c858b1916004808301926020929190829003018186803b15801561352957600080fd5b505afa15801561353d573d6000803e3d6000fd5b505050506040513d602081101561355357600080fd5b50516001600160a01b03161461359d57604051600160e51b62461bcd02815260040180806020018281038252603781526020018061589e6037913960400191505060405180910390fd5b6001600160a01b03909116600090815260366020526040902060080155565b6034546001600160a01b0316331461360857604051600160e51b62461bcd02815260040180806020018281038252602a815260200180615948602a913960400191505060405180910390fd5b613614868686856149ce565b613622868686868686614a32565b6132878685600061417b565b60355460408051600160e01b6385c858b1028152905133926001600160a01b0316916385c858b1916004808301926020929190829003018186803b15801561367557600080fd5b505afa158015613689573d6000803e3d6000fd5b505050506040513d602081101561369f57600080fd5b50516001600160a01b0316146136e957604051600160e51b62461bcd02815260040180806020018281038252603781526020018061589e6037913960400191505060405180910390fd5b6001600160a01b03166000908152603660205260409020600d018054600160d81b60ff021916600160d81b179055565b6001600160a01b03808316600081815260366020908152604080832094861683526037825280832093835292905290812090918291829182918261375d89896116e4565b8254909150151561378c576004909101549095506000945084935060ff600160281b9091041691506137bf9050565b8061379d838563ffffffff61478f16565b6002840154600490940154919850965091945050600160281b900460ff169150505b92959194509250565b6001600160a01b038381166000818152603660209081526040808320948716835260378252808320938352929052908120600d830154919291600160d81b900460ff16151561381c57600092505050612b9e565b6004810154600160281b900460ff1615806138435750600d820154600160d01b900460ff16155b80613856575061385386866116e4565b84115b9695505050505050565b60008061386b6141bc565b6001600160a01b0316836001600160a01b0316141561388c57503031611774565b60408051600160e01b6370a0823102815230600482015290516001600160a01b038516916370a08231916024808301926020929190829003018186803b1580156138d557600080fd5b505afa1580156138e9573d6000803e3d6000fd5b505050506040513d60208110156138ff57600080fd5b50519392505050565b6001600160a01b03811660009081526036602052604081206117749061493c565b60355460408051600160e01b6385c858b1028152905133926001600160a01b0316916385c858b1916004808301926020929190829003018186803b15801561397057600080fd5b505afa158015613984573d6000803e3d6000fd5b505050506040513d602081101561399a57600080fd5b50516001600160a01b0316146139e457604051600160e51b62461bcd02815260040180806020018281038252603781526020018061589e6037913960400191505060405180910390fd5b6001600160a01b0381166000908152603660205260408082208151600160e51b63041e0b2d0281526004810191909152905173__CoreLibrary___________________________926383c165a09260248082019391829003018186803b158015612aee57600080fd5b60355460408051600160e01b6385c858b1028152905133926001600160a01b0316916385c858b1916004808301926020929190829003018186803b158015613a9457600080fd5b505afa158015613aa8573d6000803e3d6000fd5b505050506040513d6020811015613abe57600080fd5b50516001600160a01b031614613b0857604051600160e51b62461bcd02815260040180806020018281038252603781526020018061589e6037913960400191505060405180910390fd5b6001600160a01b0382166000908152603660205260408082208151600160e11b637b1dd5df02815260048101919091528315156024820152905173__CoreLibrary___________________________9263f63babbe9260448082019391829003018186803b158015613b7957600080fd5b505af4158015613287573d6000803e3d6000fd5b60355460408051600160e01b6385c858b1028152905133926001600160a01b0316916385c858b1916004808301926020929190829003018186803b158015613bd457600080fd5b505afa158015613be8573d6000803e3d6000fd5b505050506040513d6020811015613bfe57600080fd5b50516001600160a01b031614613c4857604051600160e51b62461bcd02815260040180806020018281038252603781526020018061589e6037913960400191505060405180910390fd5b6001600160a01b03166000908152603660205260409020600d018054600160e81b60ff0219169055565b6001600160a01b031660009081526036602052604090206009015490565b60345460009081906001600160a01b03163314613ce157604051600160e51b62461bcd02815260040180806020018281038252602a815260200180615948602a913960400191505060405180910390fd5b613cee8888888887614aaf565b6000613cfc89898787614bb1565b9050613d0a8960008061417b565b80613d158a8a6143ca565b9250925050965096945050505050565b6001600160a01b0380821660009081526037602090815260408083209386168352929052206001015492915050565b6034546001600160a01b03163314613da057604051600160e51b62461bcd02815260040180806020018281038252602a815260200180615948602a913960400191505060405180910390fd5b6001600160a01b0391821660009081526037602090815260408083209590941682529390935291206004018054911515600160281b0265ff000000000019909216919091179055565b6034546001600160a01b03163314613e3557604051600160e51b62461bcd02815260040180806020018281038252602a815260200180615948602a913960400191505060405180910390fd5b613e3d6141bc565b6001600160a01b03848116911614613e69576119a66001600160a01b038416838363ffffffff61473a16565b6040516000906001600160a01b0384169061c35090849084818181858888f193505050503d8060008114613eb9576040519150601f19603f3d011682016040523d82523d6000602084013e613ebe565b606091505b50509050801515611e9f5760408051600160e51b62461bcd02815260206004820152601660248201527f5472616e73666572206f6620455448206661696c656400000000000000000000604482015290519081900360640190fd5b6001600160a01b0380821660009081526037602090815260408083209386168352929052206002015492915050565b60355460408051600160e11b637744894b02815290516000926001600160a01b03169163ee891296916004808301926020929190829003018186803b158015613f9057600080fd5b505afa158015613fa4573d6000803e3d6000fd5b505050506040513d6020811015613fba57600080fd5b50519050613fc66141bc565b6001600160a01b03848116911614613ff2576119a66001600160a01b038416828463ffffffff61473a16565b6040516001600160a01b0382169083156108fc029084906000818181858888f19350505050158015611e9f573d6000803e3d6000fd5b60006140338261493c565b905080156140bc576001820154600d83015460009161405f91600160a01b900464ffffffffff16614cb2565b835490915061407590829063ffffffff614cfd16565b83556004830154600d84015460009161409b91600160a01b900464ffffffffff16614d35565b90506140b4846007015482614cfd90919063ffffffff16565b600785015550505b5050565b600082820183811015612b9e5760408051600160e51b62461bcd02815260206004820152601b60248201527f536166654d6174683a206164646974696f6e206f766572666c6f770000000000604482015290519081900360640190fd5b600061414061412b84614d84565b61413484614d84565b9063ffffffff61495916565b9050600061415c61414f614d9a565b839063ffffffff6140c016565b855490915061417290829063ffffffff614cfd16565b90945550505050565b614186838383614daa565b61418e614995565b6040517fb362f715591e6551ba78917a287fa286eed1ded21d619b267911b67f595af1c990600090a2505050565b73eeeeeeeeeeeeeeeeeeeeeeeeeeeeeeeeeeeeeeee90565b604080516001600160a01b0385811660248301528416604482015260648082018490528251808303909101815260849091019091526020810180516001600160e01b0316600160e01b6323b872dd02179052611e9f908590614f48565b6000612b9e83836040518060400160405280601e81526020017f536166654d6174683a207375627472616374696f6e206f766572666c6f77000081525061510f565b6001600160a01b038616600090815260366020526040902061429490614028565b6132878686868686866151a9565b6001600160a01b038087166000818152603660209081526040808320948a168352603782528083209383529290522060018360028111156142df57fe5b14156142fb576005820154600382015560006001820155614375565b600283600281111561430957fe5b1415614325576000600382015560078201546001820155614375565b60408051600160e51b62461bcd02815260206004820152601860248201527f496e76616c696420626f72726f772072617465206d6f64650000000000000000604482015290519081900360640190fd5b805461438d908690612fb3908963ffffffff6140c016565b815560028101546143a4908563ffffffff6140c016565b6002820155600401805464ffffffffff19164264ffffffffff1617905550505050505050565b6000806143d784846117a2565b905060008160028111156143e757fe5b14156143f7576000915050611774565b600181600281111561440557fe5b1461442b576001600160a01b0384166000908152603660205260409020600401546117f1565b50506001600160a01b0390811660009081526037602090815260408083209490931682529290925290206003015490565b6000805b6038548110156144ab57826001600160a01b031660388281548110151561448357fe5b6000918252602090912001546001600160a01b031614156144a357600191505b600101614460565b508015156140bc57603880546001810182556000919091527f38395c5dceade9603479b177b68959049485df8aa97b39f3533039af5f4561990180546001600160a01b0384166001600160a01b03199091161790555050565b603560009054906101000a90046001600160a01b03166001600160a01b0316630261bf8b6040518163ffffffff1660e01b815260040160206040518083038186803b15801561455257600080fd5b505afa158015614566573d6000803e3d6000fd5b505050506040513d602081101561457c57600080fd5b5051603480546001600160a01b0319166001600160a01b03909216919091179055565b6001600160a01b038085166000818152603660209081526040808320948816835260378252808320938352929052206145d782614028565b60006145e387876117a2565b905060015b8160028111156145f457fe5b141561462f576003820154614612908490869063ffffffff61530816565b600382015461462a908490879063ffffffff61537816565b61464f565b61463f838563ffffffff61548b16565b61464f838663ffffffff6154ac16565b50505050505050565b6001600160a01b038116600090815260366020526040902061467990614028565b50565b6001600160a01b0380851660009081526037602090815260408083209389168352928152828220603690915291902081546146cf9086906146c3908663ffffffff6140c016565b9063ffffffff61423116565b825560026146dd88886117a2565b60028111156146e857fe5b14156146f957600781015460018301555b831561471a576002820154614714908563ffffffff61423116565b60028301555b50600401805464ffffffffff19164264ffffffffff161790555050505050565b604080516001600160a01b038416602482015260448082018490528251808303909101815260649091019091526020810180516001600160e01b0316600160e01b63a9059cbb02179052611aba908490614f48565b815460009015156147a257506000611774565b60006147b18460000154614d84565b60038501549091506000908190156147e557600386015460048701546147de919064ffffffffff16614d35565b9050614827565b6148248660010154614134876007015461481889600401548a600d0160149054906101000a900464ffffffffff16614d35565b9063ffffffff614cfd16565b90505b61483f61483a848363ffffffff614cfd16565b615507565b865490925082141561487a57600486015464ffffffffff16421461487a57855461487090600163ffffffff6140c016565b9350505050611774565b50949350505050565b6001600160a01b038084166000818152603660209081526040808320948716835260378252808320938352929052206148bb82614028565b60038101546116d8908390859063ffffffff61530816565b6001600160a01b038083166000908152603760209081526040808320938716835292815282822060369091529190208154614914908463ffffffff6140c016565b8255600501546003820155600401805464ffffffffff19164264ffffffffff16179055505050565b6000611774826003015483600201546140c090919063ffffffff16565b6000600282046117f18361498961497c876b033b2e3c9fd0803ce8000000615520565b849063ffffffff6140c016565b9063ffffffff61558016565b600590565b303b1590565b600080612b9e8360000154614818856001015486600d0160149054906101000a900464ffffffffff16614cb2565b6001600160a01b03808516600090815260366020908152604080832060378352818420948816845293909152812090614a0787876117a2565b6001600160a01b0388166000908152603660205260409020909150614a2b90614028565b60016145e8565b6001600160a01b038087166000818152603660209081526040808320948a16835260378252808320938352929052208054614a799087906146c3908763ffffffff6140c016565b8155600782015460018201558215614a9a5760006003820181905560018201555b60028101546143a4908663ffffffff61423116565b6001600160a01b03808616600081815260366020908152604080832094891683526037825280832093835292905220614ae782614028565b6001836002811115614af557fe5b1415614b27576003810154614b1183878363ffffffff61537816565b614b21838663ffffffff61548b16565b5061464f565b6002836002811115614b3557fe5b1415614b61576005820154614b50838763ffffffff6154ac16565b614b2183868363ffffffff61530816565b60408051600160e51b62461bcd02815260206004820152601a60248201527f496e76616c69642072617465206d6f6465207265636569766564000000000000604482015290519081900360640190fd5b6001600160a01b03808416600090815260376020908152604080832093881683529281528282206036909152918120909190826002856002811115614bf257fe5b1415614c135750600581015460038301556000600183810191909155614c7a565b6001856002811115614c2157fe5b1415614c40575060006003830155600781015460018301556002614c7a565b604051600160e51b62461bcd0281526004018080602001828103825260238152602001806159726023913960400191505060405180910390fd5b8254614c8c908763ffffffff6140c016565b83556004909201805464ffffffffff19164264ffffffffff161790555095945050505050565b600080614ccc4264ffffffffff851663ffffffff61423116565b90506000614ce061412b6301e13380614d84565b9050612f7d614ced614d9a565b612fb3878463ffffffff614cfd16565b6000612b9e6b033b2e3c9fd0803ce8000000614989614d22868663ffffffff61552016565b6b019d971e4fe8401e74000000906140c0565b600080614d4f4264ffffffffff851663ffffffff61423116565b90506000614d67856301e1338063ffffffff61558016565b9050612f7d82614d7861497c614d9a565b9063ffffffff6155c216565b600061177482633b9aca0063ffffffff61552016565b6b033b2e3c9fd0803ce800000090565b6001600160a01b038084166000908152603660205260408120600d810154909282918291166357e37af088614de6886146c38b612fb385613860565b8760020154886003015489600601546040518663ffffffff1660e01b815260040180866001600160a01b03166001600160a01b031681526020018581526020018481526020018381526020018281526020019550505050505060606040518083038186803b158015614e5757600080fd5b505afa158015614e6b573d6000803e3d6000fd5b505050506040513d6060811015614e8157600080fd5b508051602080830151604093840151600189018490556005890182905560048901819055600d8901805464ffffffffff4216600160a01b0278ffffffffff000000000000000000000000000000000000000019909116179055885460078a0154865186815294850184905284870183905260608501919091526080840152935192965094509192506001600160a01b038916917f04e4f521f16fcfd987978b05504262c2a2db223844977aab000e5accedb2d725919081900360a00190a250505050505050565b614f5a826001600160a01b0316611546565b1515614fb05760408051600160e51b62461bcd02815260206004820152601f60248201527f5361666545524332303a2063616c6c20746f206e6f6e2d636f6e747261637400604482015290519081900360640190fd5b60006060836001600160a01b0316836040518082805190602001908083835b60208310614fee5780518252601f199092019160209182019101614fcf565b6001836020036101000a0380198251168184511680821785525050505050509050019150506000604051808303816000865af19150503d8060008114615050576040519150601f19603f3d011682016040523d82523d6000602084013e615055565b606091505b50915091508115156150b15760408051600160e51b62461bcd02815260206004820181905260248201527f5361666545524332303a206c6f772d6c6576656c2063616c6c206661696c6564604482015290519081900360640190fd5b805115611e9f578080602001905160208110156150cd57600080fd5b50511515611e9f57604051600160e51b62461bcd02815260040180806020018281038252602a815260200180615995602a913960400191505060405180910390fd5b600081848411156151a157604051600160e51b62461bcd0281526004018080602001828103825283818151815260200191508051906020019080838360005b8381101561516657818101518382015260200161514e565b50505050905090810190601f1680156151935780820380516001836020036101000a031916815260200191505b509250505060405180910390fd5b505050900390565b60006151b587876117a2565b6001600160a01b038816600090815260366020526040902090915060018260028111156151de57fe5b1415615227576001600160a01b038088166000908152603760209081526040808320938c168352929052206003810154615221908390899063ffffffff61537816565b5061524b565b600282600281111561523557fe5b141561524b5761524b818763ffffffff6154ac16565b600061526185612fb3898963ffffffff6140c016565b9050600184600281111561527157fe5b141561529457600582015461528f908390839063ffffffff61530816565b612216565b60028460028111156152a257fe5b14156152b85761528f828263ffffffff61548b16565b60408051600160e51b62461bcd02815260206004820152601c60248201527f496e76616c6964206e657720626f72726f772072617465206d6f646500000000604482015290519081900360640190fd5b600283015461531d818463ffffffff6140c016565b600285015560006153318361481886614d84565b90506000615346866006015461481885614d84565b90506153686153588760020154614d84565b614134848463ffffffff6140c016565b8660060181905550505050505050565b60028301548211156153d45760408051600160e51b62461bcd02815260206004820152601a60248201527f496e76616c696420616d6f756e7420746f206465637265617365000000000000604482015290519081900360640190fd5b60028301546153e9818463ffffffff61423116565b600285018190551515615403575060006006840155611aba565b60006154128361481886614d84565b90506000615427866006015461481885614d84565b90508181101561546b57604051600160e51b62461bcd02815260040180806020018281038252602381526020018061577d6023913960400191505060405180910390fd5b61536861547b8760020154614d84565b614134838563ffffffff61423116565b60038201546154a0908263ffffffff6140c016565b82600301819055505050565b60038201548111156154f257604051600160e51b62461bcd0281526004018080602001828103825260508152602001806156c26050913960600191505060405180910390fd5b60038201546154a0908263ffffffff61423116565b6000631dcd6500612b9e633b9aca0061498983866140c0565b600082151561553157506000611774565b82820282848281151561554057fe5b0414612b9e57604051600160e51b62461bcd0281526004018080602001828103825260218152602001806158f96021913960400191505060405180910390fd5b6000612b9e83836040518060400160405280601a81526020017f536166654d6174683a206469766973696f6e206279207a65726f00000000000081525061561e565b60006002820615156155e0576b033b2e3c9fd0803ce80000006155e2565b825b90506002820491505b8115611774576155fb8384614cfd565b92506002820615615613576156108184614cfd565b90505b6002820491506155eb565b60008183151561567357604051600160e51b62461bcd0281526004018080602001828103825283818151815260200191508051906020019080838360008381101561516657818101518382015260200161514e565b506000838581151561568157fe5b049594505050505056fe466565206c69717569646174696f6e20646f6573206e6f74207265717569726520616e79207472616e73666572206f662076616c756554686520616d6f756e742074686174206973206265696e6720737562747261637465642066726f6d20746865207661726961626c6520746f74616c20626f72726f777320697320696e636f727265637454686520616d6f756e7420616e64207468652076616c75652073656e7420746f206465706f73697420646f206e6f74206d617463684f6e6c7920636f6e7472616374732063616e2073656e6420657468657220746f20746865204c656e64696e6720706f6f6c20636f726554686520616d6f756e747320746f20737562747261637420646f6e2774206d6174636852657365727665206265696e672072656d6f76656420697320646966666572656e74207468616e20746865207265736572766520726571756573746564557365722069732073656e64696e672045544820616c6f6e67207769746820746865204552433230207472616e736665722e557365722069732073656e64696e672045544820616c6f6e67207769746820746865204552433230207472616e736665722e20436865636b207468652076616c756520617474726962757465206f6620746865207472616e73616374696f6e43616e6e6f742072656d6f7665206120726573657276652077697468206c6971756964697479206465706f73697465645468652063616c6c6572206d7573742062652061206c656e64696e6720706f6f6c20636f6e666967757261746f7220636f6e74726163745265736572766520686173206e6f74206265656e20696e697469616c697a656420796574536166654d6174683a206d756c7469706c69636174696f6e206f766572666c6f77436f6e747261637420696e7374616e63652068617320616c7265616479206265656e20696e697469616c697a65645468652063616c6c6572206d7573742062652061206c656e64696e6720706f6f6c20636f6e7472616374496e76616c696420696e7465726573742072617465206d6f64652072656365697665645361666545524332303a204552433230206f7065726174696f6e20646964206e6f742073756363656564a165627a7a72305820c6622d4dca409d044a82dd2744dde67abdf52124b95745f091b760bdef4e56530029",
  "source": "pragma solidity ^0.5.0;\n\nimport \"openzeppelin-solidity/contracts/math/SafeMath.sol\";\nimport \"openzeppelin-solidity/contracts/token/ERC20/SafeERC20.sol\";\nimport \"openzeppelin-solidity/contracts/token/ERC20/ERC20.sol\";\nimport \"openzeppelin-solidity/contracts/utils/Address.sol\";\nimport \"../../libraries/openzeppelin-upgradeability/VersionedInitializable.sol\";\n\nimport \"../../libraries/CoreLibrary.sol\";\nimport \"../../configuration/LendingPoolAddressesProvider.sol\";\nimport \"../../interfaces/ILendingRateOracle.sol\";\nimport \"../../interfaces/IReserveInterestRateStrategy.sol\";\nimport \"../../libraries/WadRayMath.sol\";\n\nimport \"../../lendingpool/LendingPoolCore.sol\";\n\n/*************************************************************************************\n* @title MockLendingPoolCore contract\n* @author Aave\n* @notice This is a mock contract to test upgradeability of the AddressProvider\n *************************************************************************************/\n\ncontract MockLendingPoolCore is LendingPoolCore {\n\n    event ReserveUpdatedFromMock(uint256 indexed revision);\n\n    uint256 constant private CORE_REVISION = 0x5;\n\n    function getRevision() internal pure returns(uint256) {\n        return CORE_REVISION;\n    }\n\n    function initialize(LendingPoolAddressesProvider _addressesProvider) public initializer {\n        addressesProvider = _addressesProvider;\n        refreshConfigInternal();\n    }\n\n    function updateReserveInterestRatesAndTimestampInternal(address _reserve, uint256 _liquidityAdded, uint256 _liquidityTaken)\n        internal\n    {\n        super.updateReserveInterestRatesAndTimestampInternal(_reserve, _liquidityAdded, _liquidityTaken);\n\n        emit ReserveUpdatedFromMock(getRevision());\n\n    }\n}\n",
  "sourcePath": "/Users/rongjianlan/workspace/go/src/github.com/harmony-one/aave-protocol/contracts/mocks/upgradeability/MockLendingPoolCore.sol",
  "compiler": {
    "name": "solc",
    "version": "0.5.5+commit.47a71e8f.Emscripten.clang"
  },
  "schemaVersion": "3.2.0",
  "updatedAt": "2020-08-09T08:55:40.407Z",
  "devdoc": {
    "author": "Aave",
    "methods": {
      "activateReserve(address)": {
        "details": "activates a reserve",
        "params": {
          "_reserve": "the address of the reserve*"
        }
      },
      "deactivateReserve(address)": {
        "details": "deactivates a reserve",
        "params": {
          "_reserve": "the address of the reserve*"
        }
      },
      "disableBorrowingOnReserve(address)": {
        "details": "disables borrowing on a reserve",
        "params": {
          "_reserve": "the address of the reserve*"
        }
      },
      "disableReserveAsCollateral(address)": {
        "details": "disables a reserve to be used as collateral",
        "params": {
          "_reserve": "the address of the reserve*"
        }
      },
      "disableReserveStableBorrowRate(address)": {
        "details": "disable the stable borrow rate mode on a reserve",
        "params": {
          "_reserve": "the address of the reserve*"
        }
      },
      "enableBorrowingOnReserve(address,bool)": {
        "details": "enables borrowing on a reserve. Also sets the stable rate borrowing",
        "params": {
          "_reserve": "the address of the reserve",
          "_stableBorrowRateEnabled": "true if the stable rate needs to be enabled, false otherwise*"
        }
      },
      "enableReserveAsCollateral(address,uint256,uint256,uint256)": {
        "details": "enables a reserve to be used as collateral",
        "params": {
          "_reserve": "the address of the reserve*"
        }
      },
      "enableReserveStableBorrowRate(address)": {
        "details": "enable the stable borrow rate mode on a reserve",
        "params": {
          "_reserve": "the address of the reserve*"
        }
      },
      "freezeReserve(address)": {
        "params": {
          "_reserve": "the address of the reserve*"
        }
      },
      "getReserveATokenAddress(address)": {
        "details": "gets the aToken contract address for the reserve",
        "params": {
          "_reserve": "the reserve address"
        },
        "return": "the address of the aToken contract*"
      },
      "getReserveAvailableLiquidity(address)": {
        "details": "gets the available liquidity in the reserve. The available liquidity is the balance of the core contract",
        "params": {
          "_reserve": "the reserve address"
        },
        "return": "the available liquidity*"
      },
      "getReserveConfiguration(address)": {
        "details": "this function aggregates the configuration parameters of the reserve. It's used in the LendingPoolDataProvider specifically to save gas, and avoid multiple external contract calls to fetch the same data.",
        "params": {
          "_reserve": "the reserve address"
        },
        "return": "the reserve decimalsthe base ltv as collateralthe liquidation thresholdif the reserve is used as collateral or not*"
      },
      "getReserveCurrentAverageStableBorrowRate(address)": {
        "details": "gets the reserve average stable borrow rate. The average stable rate is the weighted average of all the loans taken at stable rate.",
        "params": {
          "_reserve": "the reserve address"
        },
        "return": "the reserve current average borrow rate*"
      },
      "getReserveCurrentLiquidityRate(address)": {
        "details": "gets the reserve liquidity rate",
        "params": {
          "_reserve": "the reserve address"
        },
        "return": "the reserve liquidity rate*"
      },
      "getReserveCurrentStableBorrowRate(address)": {
        "details": "gets the reserve current stable borrow rate. Is the market rate if the reserve is empty",
        "params": {
          "_reserve": "the reserve address"
        },
        "return": "the reserve current stable borrow rate*"
      },
      "getReserveCurrentVariableBorrowRate(address)": {
        "details": "gets the reserve current variable borrow rate. Is the base variable borrow rate if the reserve is empty",
        "params": {
          "_reserve": "the reserve address"
        },
        "return": "the reserve current variable borrow rate*"
      },
      "getReserveDecimals(address)": {
        "details": "returns the decimals of the reserve",
        "params": {
          "_reserve": "the reserve address"
        },
        "return": "the reserve decimals*"
      },
      "getReserveInterestRateStrategyAddress(address)": {
        "details": "gets the interest rate strategy contract address for the reserve",
        "params": {
          "_reserve": "the reserve address"
        },
        "return": "the address of the interest rate strategy contract*"
      },
      "getReserveIsActive(address)": {
        "details": "returns true if the reserve is active",
        "params": {
          "_reserve": "the reserve address"
        },
        "return": "true if the reserve is active, false otherwise*"
      },
      "getReserveIsFreezed(address)": {
        "params": {
          "_reserve": "the reserve for which the information is needed"
        },
        "return": "true if the reserve is freezed, false otherwise*"
      },
      "getReserveIsStableBorrowRateEnabled(address)": {
        "details": "returns true if the stable rate is enabled on reserve",
        "params": {
          "_reserve": "the reserve address"
        },
        "return": "true if the stable rate is enabled on reserve, false otherwise*"
      },
      "getReserveLastUpdate(address)": {
        "params": {
          "_reserve": "the reserve for which the information is needed"
        },
        "return": "the last updated timestamp of the reserve*"
      },
      "getReserveLiquidationBonus(address)": {
        "details": "gets the reserve liquidation bonus",
        "params": {
          "_reserve": "the reserve address"
        },
        "return": "the reserve liquidation bonus*"
      },
      "getReserveLiquidationThreshold(address)": {
        "details": "gets the reserve liquidation threshold",
        "params": {
          "_reserve": "the reserve address"
        },
        "return": "the reserve liquidation threshold*"
      },
      "getReserveLiquidityCumulativeIndex(address)": {
        "details": "gets the reserve liquidity cumulative index",
        "params": {
          "_reserve": "the reserve address"
        },
        "return": "the reserve liquidity cumulative index*"
      },
      "getReserveNormalizedIncome(address)": {
        "details": "gets the normalized income of the reserve. a value of 1e27 means there is no income. A value of 2e27 means there there has been 100% income.",
        "params": {
          "_reserve": "the reserve address"
        },
        "return": "the reserve normalized income*"
      },
      "getReserveTotalBorrows(address)": {
        "details": "gets the reserve total borrows",
        "params": {
          "_reserve": "the reserve address"
        },
        "return": "the total borrows (stable + variable)*"
      },
      "getReserveTotalBorrowsStable(address)": {
        "details": "gets the reserve total borrows stable",
        "params": {
          "_reserve": "the reserve address"
        },
        "return": "the total borrows stable*"
      },
      "getReserveTotalBorrowsVariable(address)": {
        "details": "gets the reserve total borrows variable",
        "params": {
          "_reserve": "the reserve address"
        },
        "return": "the total borrows variable*"
      },
      "getReserveTotalLiquidity(address)": {
        "details": "gets the total liquidity in the reserve. The total liquidity is the balance of the core contract + total borrows",
        "params": {
          "_reserve": "the reserve address"
        },
        "return": "the total liquidity*"
      },
      "getReserveUtilizationRate(address)": {
        "details": "returns the utilization rate U of a specific reserve",
        "params": {
          "_reserve": "the reserve for which the information is needed"
        },
        "return": "the utilization rate in ray*"
      },
      "getReserveVariableBorrowsCumulativeIndex(address)": {
        "details": "gets the reserve variable borrow index",
        "params": {
          "_reserve": "the reserve address"
        },
        "return": "the reserve variable borrow index*"
      },
      "getReserves()": {
        "return": "the array of reserves configured on the core*"
      },
      "getUserBasicReserveData(address,address)": {
        "details": "returns the basic data (balances, fee accrued, reserve enabled/disabled as collateral) needed to calculate the global account data in the LendingPoolDataProvider",
        "params": {
          "_reserve": "the address of the reserve",
          "_user": "the address of the user"
        },
        "return": "the user deposited balance, the principal borrow balance, the fee, and if the reserve is enabled as collateral or not*"
      },
      "getUserBorrowBalances(address,address)": {
        "details": "calculates and returns the borrow balances of the user",
        "params": {
          "_reserve": "the address of the reserve",
          "_user": "the address of the user"
        },
        "return": "the principal borrow balance, the compounded balance and the balance increase since the last borrow/repay/swap/rebalance*"
      },
      "getUserCurrentBorrowRateMode(address,address)": {
        "details": "users with no loans in progress have NONE as borrow rate mode",
        "params": {
          "_reserve": "the address of the reserve for which the information is needed",
          "_user": "the address of the user for which the information is needed"
        },
        "return": "the borrow rate mode for the user,*"
      },
      "getUserCurrentStableBorrowRate(address,address)": {
        "details": "the stable rate returned is 0 if the user is borrowing at variable or not borrowing at all",
        "params": {
          "_reserve": "the address of the reserve for which the information is needed",
          "_user": "the address of the user for which the information is needed"
        },
        "return": "the user stable rate*"
      },
      "getUserLastUpdate(address,address)": {
        "details": "the variable borrow index of the user is 0 if the user is not borrowing or borrowing at stable",
        "params": {
          "_reserve": "the address of the reserve for which the information is needed",
          "_user": "the address of the user for which the information is needed"
        },
        "return": "the variable borrow index for the user*"
      },
      "getUserOriginationFee(address,address)": {
        "params": {
          "_reserve": "the address of the reserve for which the information is needed",
          "_user": "the address of the user for which the information is needed"
        },
        "return": "the origination fee for the user*"
      },
      "getUserUnderlyingAssetBalance(address,address)": {
        "details": "gets the underlying asset balance of a user based on the corresponding aToken balance.",
        "params": {
          "_reserve": "the reserve address",
          "_user": "the user address"
        },
        "return": "the underlying deposit balance of the user*"
      },
      "getUserVariableBorrowCumulativeIndex(address,address)": {
        "details": "the variable borrow index of the user is 0 if the user is not borrowing or borrowing at stable",
        "params": {
          "_reserve": "the address of the reserve for which the information is needed",
          "_user": "the address of the user for which the information is needed"
        },
        "return": "the variable borrow index for the user*"
      },
      "initReserve(address,address,uint256,address)": {
        "details": "initializes a reserve",
        "params": {
          "_aTokenAddress": "the address of the overlying aToken contract",
          "_decimals": "the decimals of the reserve currency",
          "_interestRateStrategyAddress": "the address of the interest rate strategy contract*",
          "_reserve": "the address of the reserve"
        }
      },
      "isReserveBorrowingEnabled(address)": {
        "details": "returns true if the reserve is enabled for borrowing",
        "params": {
          "_reserve": "the reserve address"
        },
        "return": "true if the reserve is enabled for borrowing, false otherwise*"
      },
      "isReserveUsageAsCollateralEnabled(address)": {
        "details": "returns true if the reserve is enabled as collateral",
        "params": {
          "_reserve": "the reserve address"
        },
        "return": "true if the reserve is enabled as collateral, false otherwise*"
      },
      "isUserAllowedToBorrowAtStable(address,address,uint256)": {
        "details": "checks if a user is allowed to borrow at a stable rate",
        "params": {
          "_amount": "the amount the the user wants to borrow",
          "_reserve": "the reserve address",
          "_user": "the user"
        },
        "return": "true if the user is allowed to borrow at a stable rate, false otherwise*"
      },
      "isUserUseReserveAsCollateralEnabled(address,address)": {
        "params": {
          "_reserve": "the address of the reserve for which the information is needed",
          "_user": "the address of the user for which the information is needed"
        },
        "return": "true if the user has chosen to use the reserve as collateral, false otherwise*"
      },
      "liquidateFee(address,uint256,address)": {
        "details": "transfers the fees to the fees collection address in the case of liquidation",
        "params": {
          "_amount": "the amount being transferred",
          "_destination": "the fee receiver address*",
          "_token": "the address of the token being transferred"
        }
      },
      "refreshConfiguration()": {
        "details": "updates the lending pool core configuration*"
      },
      "removeLastAddedReserve(address)": {
        "details": "removes the last added reserve in the reservesList array",
        "params": {
          "_reserveToRemove": "the address of the reserve*"
        }
      },
      "setReserveBaseLTVasCollateral(address,uint256)": {
        "params": {
          "_ltv": "the new loan to value*",
          "_reserve": "the address of the reserve"
        }
      },
      "setReserveDecimals(address,uint256)": {
        "params": {
          "_decimals": "the decimals of the reserve*",
          "_reserve": "the address of the reserve"
        }
      },
      "setReserveInterestRateStrategyAddress(address,address)": {
        "details": "updates the address of the interest rate strategy contract",
        "params": {
          "_rateStrategyAddress": "the address of the interest rate strategy contract*",
          "_reserve": "the address of the reserve"
        }
      },
      "setReserveLiquidationBonus(address,uint256)": {
        "params": {
          "_bonus": "the new liquidation bonus*",
          "_reserve": "the address of the reserve"
        }
      },
      "setReserveLiquidationThreshold(address,uint256)": {
        "params": {
          "_reserve": "the address of the reserve",
          "_threshold": "the new liquidation threshold*"
        }
      },
      "setUserUseReserveAsCollateral(address,address,bool)": {
        "details": "enables or disables a reserve as collateral",
        "params": {
          "_reserve": "the address of the principal reserve where the user deposited",
          "_useAsCollateral": "true if the depositor wants to use the reserve as collateral*",
          "_user": "the address of the depositor"
        }
      },
      "transferToFeeCollectionAddress(address,address,uint256,address)": {
        "details": "transfers the protocol fees to the fees collection address",
        "params": {
          "_amount": "the amount being transferred",
          "_destination": "the fee receiver address*",
          "_token": "the address of the token being transferred",
          "_user": "the address of the user from where the transfer is happening"
        }
      },
      "transferToReserve(address,address,uint256)": {
        "details": "transfers an amount from a user to the destination reserve",
        "params": {
          "_amount": "the amount being transferred*",
          "_reserve": "the address of the reserve where the amount is being transferred",
          "_user": "the address of the user from where the transfer is happening"
        }
      },
      "transferToUser(address,address,uint256)": {
        "details": "transfers to the user a specific amount from the reserve.",
        "params": {
          "_amount": "the amount being transferred*",
          "_reserve": "the address of the reserve where the transfer is happening",
          "_user": "the address of the user receiving the transfer"
        }
      },
      "unfreezeReserve(address)": {
        "params": {
          "_reserve": "the address of the reserve*"
        }
      },
      "updateStateOnBorrow(address,address,uint256,uint256,uint8)": {
        "details": "updates the state of the core as a consequence of a borrow action.",
        "params": {
          "_amountBorrowed": "the new amount borrowed",
          "_borrowFee": "the fee on the amount borrowed",
          "_rateMode": "the borrow rate mode (stable, variable)",
          "_reserve": "the address of the reserve on which the user is borrowing",
          "_user": "the address of the borrower"
        },
        "return": "the new borrow rate for the user*"
      },
      "updateStateOnDeposit(address,address,uint256,bool)": {
        "details": "updates the state of the core as a result of a deposit action",
        "params": {
          "_amount": "the amount being deposited",
          "_isFirstDeposit": "true if the user is depositing for the first time*",
          "_reserve": "the address of the reserve in which the deposit is happening",
          "_user": "the address of the the user depositing"
        }
      },
      "updateStateOnFlashLoan(address,uint256,uint256,uint256)": {
        "details": "updates the state of the core as a result of a flashloan action",
        "params": {
          "_income": "the income of the protocol as a result of the action*",
          "_reserve": "the address of the reserve in which the flashloan is happening"
        }
      },
      "updateStateOnLiquidation(address,address,address,uint256,uint256,uint256,uint256,uint256,bool)": {
        "details": "updates the state of the core as a consequence of a liquidation action.",
        "params": {
          "_amountToLiquidate": "the amount being repaid by the liquidator",
          "_balanceIncrease": "the accrued interest on the borrowed amount",
          "_collateralReserve": "the address of the collateral reserve that is being liquidated",
          "_collateralToLiquidate": "the amount of collateral being liquidated",
          "_feeLiquidated": "the amount of origination fee being liquidated",
          "_liquidatedCollateralForFee": "the amount of collateral equivalent to the origination fee + bonus",
          "_liquidatorReceivesAToken": "true if the liquidator will receive aTokens, false otherwise*",
          "_principalReserve": "the address of the principal reserve that is being repaid",
          "_user": "the address of the borrower"
        }
      },
      "updateStateOnRebalance(address,address,uint256)": {
        "details": "updates the state of the core as a consequence of a stable rate rebalance",
        "params": {
          "_balanceIncrease": "the accrued interest on the borrowed amount",
          "_reserve": "the address of the principal reserve where the user borrowed",
          "_user": "the address of the borrower"
        },
        "return": "the new stable rate for the user*"
      },
      "updateStateOnRedeem(address,address,uint256,bool)": {
        "details": "updates the state of the core as a result of a redeem action",
        "params": {
          "_amountRedeemed": "the amount being redeemed",
          "_reserve": "the address of the reserve in which the redeem is happening",
          "_user": "the address of the the user redeeming",
          "_userRedeemedEverything": "true if the user is redeeming everything*"
        }
      },
      "updateStateOnRepay(address,address,uint256,uint256,uint256,bool)": {
        "details": "updates the state of the core as a consequence of a repay action.",
        "params": {
          "_balanceIncrease": "the accrued interest on the borrowed amount",
          "_originationFeeRepaid": "the fee on the amount that is being repaid",
          "_paybackAmountMinusFees": "the amount being paid back minus fees",
          "_repaidWholeLoan": "true if the user is repaying the whole loan*",
          "_reserve": "the address of the reserve on which the user is repaying",
          "_user": "the address of the borrower"
        }
      },
      "updateStateOnSwapRate(address,address,uint256,uint256,uint256,uint8)": {
        "details": "updates the state of the core as a consequence of a swap rate action.",
        "params": {
          "_balanceIncrease": "the accrued interest on the borrowed amount",
          "_compoundedBorrowBalance": "the amount borrowed plus accrued interest",
          "_currentRateMode": "the current interest rate mode for the user*",
          "_principalBorrowBalance": "the amount borrowed by the user",
          "_reserve": "the address of the reserve on which the user is repaying",
          "_user": "the address of the borrower"
        }
      }
    },
    "title": "MockLendingPoolCore contract"
  },
  "userdoc": {
    "methods": {
      "freezeReserve(address)": {
        "notice": "allows the configurator to freeze the reserve. A freezed reserve does not allow any action apart from repay, redeem, liquidationCall, rebalance."
      },
      "getReserveIsFreezed(address)": {
        "notice": "returns if a reserve is freezed"
      },
      "getReserveLastUpdate(address)": {
        "notice": "returns the timestamp of the last action on the reserve"
      },
      "setReserveBaseLTVasCollateral(address,uint256)": {
        "notice": "allows the configurator to update the loan to value of a reserve"
      },
      "setReserveDecimals(address,uint256)": {
        "notice": "allows the configurator to update the reserve decimals"
      },
      "setReserveLiquidationBonus(address,uint256)": {
        "notice": "allows the configurator to update the liquidation bonus of a reserve"
      },
      "setReserveLiquidationThreshold(address,uint256)": {
        "notice": "allows the configurator to update the liquidation threshold of a reserve"
      },
      "unfreezeReserve(address)": {
        "notice": "allows the configurator to unfreeze the reserve. A unfreezed reserve allows any action to be executed."
      }
    },
    "notice": "***********************************************************************************This is a mock contract to test upgradeability of the AddressProvider************************************************************************************"
  }
}