{
  "contractName": "MockAggregatorLEND",
  "abi": [
    {
      "constant": true,
      "inputs": [],
      "name": "latestAnswer",
      "outputs": [
        {
          "name": "",
          "type": "int256"
        }
      ],
      "payable": false,
      "stateMutability": "view",
      "type": "function"
    },
    {
      "inputs": [
        {
          "name": "_initialAnswer",
          "type": "int256"
        }
      ],
      "payable": false,
      "stateMutability": "nonpayable",
      "type": "constructor"
    },
    {
      "anonymous": false,
      "inputs": [
        {
          "indexed": true,
          "name": "current",
          "type": "int256"
        },
        {
          "indexed": true,
          "name": "roundId",
          "type": "uint256"
        },
        {
          "indexed": false,
          "name": "timestamp",
          "type": "uint256"
        }
      ],
      "name": "AnswerUpdated",
      "type": "event"
    }
  ],
  "bytecode": "0x608060405234801561001057600080fd5b506040516020806100f68339810180604052602081101561003057600080fd5b5051600081815560408051428152905183929183917f0559884fd3a460db3073b7fc896cc77986f16e378210ded43186175bf646fc5f9181900360200190a3505060778061007f6000396000f3fe6080604052348015600f57600080fd5b506004361060285760003560e01c806350d25bcd14602d575b600080fd5b60336045565b60408051918252519081900360200190f35b6000549056fea165627a7a72305820c523ed0bf70a01e0e1d38220d5db961067f8b7226812dd684ae5c53d6ad8b0730029",
  "source": "pragma solidity ^0.5.0;\n\nimport \"./MockAggregatorBase.sol\";\n\ncontract MockAggregatorLEND is MockAggregatorBase {\n    constructor (int256 _initialAnswer) public MockAggregatorBase(_initialAnswer) {}\n}",
  "sourcePath": "/Users/rongjianlan/workspace/go/src/github.com/harmony-one/aave-protocol/contracts/mocks/oracle/CLAggregators/MockAggregatorLEND.sol",
  "compiler": {
    "name": "solc",
    "version": "0.5.8+commit.23d335f2.Emscripten.clang"
  },
  "schemaVersion": "3.2.0",
  "updatedAt": "2020-08-06T22:02:21.559Z",
  "devdoc": {
    "methods": {}
  },
  "userdoc": {
    "methods": {}
  }
}