{
  "contractName": "UintStorage",
  "abi": [
    {
      "constant": true,
      "inputs": [
        {
          "name": "_key",
          "type": "bytes32"
        }
      ],
      "name": "getUint",
      "outputs": [
        {
          "name": "",
          "type": "uint256"
        }
      ],
      "payable": false,
      "stateMutability": "view",
      "type": "function"
    }
  ],
  "bytecode": "0x6080604052348015600f57600080fd5b5060978061001e6000396000f3fe6080604052348015600f57600080fd5b506004361060285760003560e01c8063bd02d0f514602d575b600080fd5b604760048036036020811015604157600080fd5b50356059565b60408051918252519081900360200190f35b6000908152602081905260409020549056fea165627a7a72305820315dbbb9ff048009ca119f7042a00b2683148aeaa3de002ca87d8e24c0fff9db0029",
  "source": "pragma solidity ^0.5.0;\n\ncontract UintStorage {\n    mapping(bytes32 => uint256) private uints;\n\n    function getUint(bytes32 _key) public view returns (uint256) {\n        return uints[_key];\n    }\n\n    function _setUint(bytes32 _key, uint256 _value) internal {\n        uints[_key] = _value;\n    }\n\n}\n",
  "sourcePath": "/Users/rongjianlan/workspace/go/src/github.com/harmony-one/aave-protocol/contracts/configuration/UintStorage.sol",
  "compiler": {
    "name": "solc",
    "version": "0.5.8+commit.23d335f2.Emscripten.clang"
  },
  "schemaVersion": "3.2.0",
  "updatedAt": "2020-08-06T22:02:21.289Z",
  "devdoc": {
    "methods": {}
  },
  "userdoc": {
    "methods": {}
  }
}