{
  "contractName": "WalletBalanceProvider",
  "abi": [
    {
      "inputs": [
        {
          "name": "_provider",
          "type": "address"
        }
      ],
      "payable": false,
      "stateMutability": "nonpayable",
      "type": "constructor"
    },
    {
      "payable": true,
      "stateMutability": "payable",
      "type": "fallback"
    },
    {
      "constant": true,
      "inputs": [
        {
          "name": "_user",
          "type": "address"
        },
        {
          "name": "_token",
          "type": "address"
        }
      ],
      "name": "balanceOf",
      "outputs": [
        {
          "name": "",
          "type": "uint256"
        }
      ],
      "payable": false,
      "stateMutability": "view",
      "type": "function"
    },
    {
      "constant": true,
      "inputs": [
        {
          "name": "_user",
          "type": "address"
        }
      ],
      "name": "getUserWalletBalances",
      "outputs": [
        {
          "name": "",
          "type": "address[]"
        },
        {
          "name": "",
          "type": "uint256[]"
        }
      ],
      "payable": false,
      "stateMutability": "view",
      "type": "function"
    }
  ],
  "bytecode": "0x608060405234801561001057600080fd5b506040516020806106268339810180604052602081101561003057600080fd5b5051600080546001600160a01b039092166001600160a01b03199092169190911790556105c4806100626000396000f3fe6080604052600436106100295760003560e01c80639e3c930914610063578063f7888aec1461012f575b604051600160e51b62461bcd02815260040180806020018281038252602e81526020018061056b602e913960400191505060405180910390fd5b34801561006f57600080fd5b506100966004803603602081101561008657600080fd5b50356001600160a01b031661017c565b604051808060200180602001838103835285818151815260200191508051906020019060200280838360005b838110156100da5781810151838201526020016100c2565b50505050905001838103825284818151815260200191508051906020019060200280838360005b83811015610119578181015183820152602001610101565b5050505090500194505050505060405180910390f35b34801561013b57600080fd5b5061016a6004803603604081101561015257600080fd5b506001600160a01b038135811691602001351661046a565b60408051918252519081900360200190f35b60608060008060009054906101000a90046001600160a01b03166001600160a01b031663ed6ff7606040518163ffffffff1660e01b815260040160206040518083038186803b1580156101ce57600080fd5b505afa1580156101e2573d6000803e3d6000fd5b505050506040513d60208110156101f857600080fd5b505160408051600160e21b630240bc6b02815290519192506060916001600160a01b03841691630902f1ac916004808301926000929190829003018186803b15801561024357600080fd5b505afa158015610257573d6000803e3d6000fd5b505050506040513d6000823e601f3d908101601f19168201604052602081101561028057600080fd5b81019080805164010000000081111561029857600080fd5b820160208101848111156102ab57600080fd5b81518560208202830111640100000000821117156102c857600080fd5b50509291905050509050606081516040519080825280602002602001820160405280156102ff578160200160208202803883390190505b50905060005b825181101561045e57836001600160a01b03166305075d6e848381518110151561032b57fe5b906020019060200201516040518263ffffffff1660e01b815260040180826001600160a01b03166001600160a01b0316815260200191505060206040518083038186803b15801561037b57600080fd5b505afa15801561038f573d6000803e3d6000fd5b505050506040513d60208110156103a557600080fd5b505115156103cc57600082828151811015156103bd57fe5b60209081029091010152610456565b6103d4610516565b6001600160a01b031683828151811015156103eb57fe5b602090810290910101516001600160a01b0316146104325761042487848381518110151561041557fe5b9060200190602002015161046a565b82828151811015156103bd57fe5b866001600160a01b031631828281518110151561044b57fe5b602090810290910101525b600101610305565b50909350915050915091565b600061047e826001600160a01b031661052e565b1561050c57816001600160a01b03166370a08231846040518263ffffffff1660e01b815260040180826001600160a01b03166001600160a01b0316815260200191505060206040518083038186803b1580156104d957600080fd5b505afa1580156104ed573d6000803e3d6000fd5b505050506040513d602081101561050357600080fd5b50519050610510565b5060005b92915050565b73eeeeeeeeeeeeeeeeeeeeeeeeeeeeeeeeeeeeeeee90565b6000813f7fc5d2460186f7233c927e7db2dcc703c0e500b653ca82273b7bfad8045d85a47081811480159061056257508115155b94935050505056fe57616c6c657442616c616e636550726f766964657220646f6573206e6f7420616363657074207061796d656e7473a165627a7a723058209539c58e514dafeb81b25181a3883847c9eb859f5db24a4ebeec20027008c6010029",
  "source": "pragma solidity ^0.5.0;\n\nimport \"openzeppelin-solidity/contracts/utils/Address.sol\";\nimport \"openzeppelin-solidity/contracts/token/ERC20/IERC20.sol\";\n\nimport \"../configuration/LendingPoolAddressesProvider.sol\";\nimport \"../lendingpool/LendingPoolCore.sol\";\nimport \"../libraries/EthAddressLib.sol\";\n\n\n/**\n* @title WalletBalanceProvider contract\n* @author Aave, influenced by https://github.com/wbobeirne/eth-balance-checker/blob/master/contracts/BalanceChecker.sol\n* @notice Implements a logic of getting multiple tokens balance for one user address\n* @dev NOTE: THIS CONTRACT IS NOT USED WITHIN THE AAVE PROTOCOL. It's an accessory contract used to reduce the number of calls\n* towards the blockchain from the Aave backend.\n**/\ncontract WalletBalanceProvider {\n\n    using Address for address;\n\n    LendingPoolAddressesProvider provider;\n\n    constructor(LendingPoolAddressesProvider _provider) public {\n\n        provider = _provider;\n\n    }\n    /**\n    @dev Fallback function, don't accept any ETH\n    **/\n    function() external payable {\n        revert(\"WalletBalanceProvider does not accept payments\");\n    }\n\n    /**\n    @dev Check the token balance of a wallet in a token contract\n\n    Returns the balance of the token for user. Avoids possible errors:\n      - return 0 on non-contract address\n    **/\n    function balanceOf(address _user, address _token) public view returns (uint256) {\n        // check if token is actually a contract\n        if (_token.isContract()) {\n            return IERC20(_token).balanceOf(_user);\n        } else {\n            return 0;\n        }\n    }\n\n\n    /**\n    @dev provides balances of user wallet for all reserves available on the pool\n    */\n    function getUserWalletBalances(address _user) public view returns (address[] memory, uint256[] memory) {\n\n        LendingPoolCore core = LendingPoolCore(provider.getLendingPoolCore());\n\n        address[] memory reserves = core.getReserves();\n\n        uint256[] memory balances = new uint256[](reserves.length);\n\n        for (uint256 j = 0; j < reserves.length; j++) {\n            if(!core.getReserveIsActive(reserves[j])){\n                balances[j] = 0;\n                continue;\n            }\n            if (reserves[j] != EthAddressLib.ethAddress()) {\n                balances[j] = balanceOf(_user, reserves[j]);\n            } else {\n                balances[j] = _user.balance; // ETH balance\n            }\n        }\n\n        return (reserves, balances);\n    }\n}",
  "sourcePath": "/Users/rongjianlan/workspace/go/src/github.com/harmony-one/aave-protocol/contracts/misc/WalletBalanceProvider.sol",
  "compiler": {
    "name": "solc",
    "version": "0.5.5+commit.47a71e8f.Emscripten.clang"
  },
  "schemaVersion": "3.2.0",
  "updatedAt": "2020-08-09T08:55:40.403Z",
  "devdoc": {
    "author": "Aave, influenced by https://github.com/wbobeirne/eth-balance-checker/blob/master/contracts/BalanceChecker.sol",
    "details": "NOTE: THIS CONTRACT IS NOT USED WITHIN THE AAVE PROTOCOL. It's an accessory contract used to reduce the number of calls towards the blockchain from the Aave backend.*",
    "methods": {
      "balanceOf(address,address)": {
        "details": "Check the token balance of a wallet in a token contract Returns the balance of the token for user. Avoids possible errors: - return 0 on non-contract address*"
      },
      "getUserWalletBalances(address)": {
        "details": "provides balances of user wallet for all reserves available on the pool"
      }
    },
    "title": "WalletBalanceProvider contract"
  },
  "userdoc": {
    "methods": {},
    "notice": "Implements a logic of getting multiple tokens balance for one user address"
  }
}